:020000040000FA
:4D000000FFFF62FF3900FFFFFFFFFFFFFFFFFFFFFFFFFFFFFFFFFFFFFFFFFFFFFFFFFFFFFFFFFFFFFFFFFFFFFFFFFFFFFFFFFFFFFFFFFFFFFFFFFFFFFFFFFFFFFFFFFFFFFFFFFFFFFFFFFFFFFFFFFFFFFF62
:4D004D00A009908126D0049AC01300592007E480AC86D7049A8013680264A0613901000000000000000000000000000000000C34013000F2C00018000360000C800130E004C0001800034EC0098001B8FEB6
:4D009A000015A00254800A50012A800A50012A4005B4800A50012A4005A8002DA0020000000000000000000000000000000012A0024800152001248004900012400248800A2001248004A80015400250FBA7
:4D00E70000008000000000000000000000000000000000000000000000200000000000000000000000000000000000000000000000000000000000000000000000000000000000000000000000000030FDFF
:4D01340000000000000000000000000000000000000000000000000000000000000000000000000000000000000000000000000000000000000000000000000000000000000000000000000000000098FFE7
:4D0181000000A800000000000000000000000000000000000000000000280000000000000000000000000000000000000000000000000000000000000000000000000000000000000000000000000038FF2A
:4D01CE00000000000000000000000000000000000000000000000000002004000000000000000000000000400000000000000000000000000000000000000000000000000000000000000000000000B8FDCB
:4D021B00A011B50000000002402000002D04003490C010020140A368140D10003406000000000000000000000000000000A045008000000000400004000D0200008016118400000008020D0000000058FD01
:4D02680000002008000000000800010008000020000000000000024000000000000000000000000000000000000000000000010000000000000000000008000000000400000000000010000400000020FB72
:4D02B500E04130000000000EC80302000C0400308803F04000008360100F00003C080000000000000000000000000000008001000006020000C00300000C0200000006410000000000000F0200000090FB52
:4D0302002010B0200000001240080000400000B08014120400000B600189020024000000000000000000000000000000008051000000000000402002008C000000004680100000006021010000000070FB1D
:4D034F00000431010000000021090100240000002240480800000000000000008020000000000000000000000000000000001001001000000000010100001000000000080200000000042008000000E0FC45
:4D039C00E0013C200000001EC00200000B04000C8007B04000C0001A400F08003C000000000000000000000000000000006000008001020000C0020000030000008001F04000000018200F0000000018FC44
:4D03E9008000300800000008000101000008003000024000000003600000040000000000000000000000000000000000008001000000000000000100000C0000000006408000000060000400000000E0FF8D
:4D043600A00531020000009860130000200000300816C44800008360102C0000B0200000000000000000000000000000008041000080000000000B02000C0200000006C10200000040102C08000000B0FFD5
:4D04830000000000000000424808000000000034810010021A449368120100003441000000000000000000000000000000A00900000000000040106A804D0000008026D040000000681400000004003CFB55
:4D04D00000000000000000000000020000000000080000401000000000000000000000000000000000000000000000000000000100000000000000000000020000000001000000004000000000000050FFF2
:4D051D00000000000000000EC8030000000000300006F00018040362400C04003C100000000000000000000000000000008001000000000000C00379100C0800000006F40000000060100000003010A8F949
:4D056A0008000000000000124120010000000080100610105800080001800000240200000000000000000000000000000000080200000000004020480020000000001010400000006001000000000043FA3B
:4D05B700000000000000000021090100000000102226420800110120002000008020000000000000000000000000000000801001000000000000010141041000000002088200000000440000008000E9F81F
:4D060400000000000000001EC00200000000003C8007B04006C0037A400304003C00000000000000000000000000000000E001000000000000C00278000F0000008007F00000000018000000000C108AFFF2
:4D0651000400000000000008000101000000003000064400180003600000000000000000000000000000000000000000008001000000000000000100000C000000000640800000006000000000000042FB68
:4D069E00000000000000009860130000000000B00846C04858048B6014000100B0200000000000000000000000000000008045000000000000000B62412C0200000016C108000000601100000000049CFD44
:4D06EB000000B44000000042400002004D100004A00018809A44000A210100003420000000000000000000000000000000200001000000000240200A0001A811008000D48800000068120D00000400B0F9FC
:4D07380000000000000000001000000000000000000000000000000000000000000000000000000000000000000000000000000000000000000000000000000001000000000000000000000800000008FF54
:4D07850000003C000000000EC80302000F0200008003F04018000000000C04003C000000000000000000000000000000000080000000000000C003000000E441000000F22000000060000F0000001058FD9A
:4D07D2000400040A0000009240200000490000008544140080200801248000002405000000000000000000000000000000000400000000008042200442002001000010100400000000218102000000D2FD56
:4D081F000C008020000000002109010020080080404048080811002181200000802000000000000000000000000000000000040200000000400001010100040000000002820000002044200800800010FBDA
:4D086C0000003C000000001EC00200000F00002C8007B0401EC00258000304003C000000000000000000000000000000006001000000000006C80218200BE001018005F00000000078000F00000C1000FB8D
:4D08B900080010100000000800010100000400200002400018000200000004000000000000000000000000000000000000000101000000000008010000080400000004408000000060200408000010A9FF1D
:4D0906000000B40000000098601300002C0000304216C4481805136180400000B0200000000000000000000000000000008011000000000098000B62082C8005010046C20800000060048D00003001E8FF9B
:4D09530020000480060000024208040001000014920018420250080940010000B440000000000000000000000000000000A01000804600000240200C0005000000801210000000006810010000040060FF5D
:4D09A000000000000002000000000000000000200000000000000000000000000000000000000000000000000000000000000101000004000000000000080400000004020000000040000000000000A0FCF4
:4D09ED00008000800701000EC0030100000400308003F04000000002000C00003C200000000000000000000000000000008001008007010018C00300000C080000000604400000006000000000001008FADE
:4D0A3A00080000A1100000124900000080000080A044140840080B0044400100240200000000000000000000000000000000800080400000804210024280000000004000000000006040400100000081FAEB
:4D0A8700000480001004000021090100200000804020420880108000202000008020000000000000000000000000000000000402001004004000010101000400000000020200000060202000008000F3FEAF
:4D0AD40060800C900700001EC00200000304000C8007B04016C00058000304003C000000000000000000000000000000006000008007000006C8021820030000008001304000000078000304000C10F8FC05
:4D0B21000400001002020008000101000000000020024400100003404000040000000000000000000000000000000000000000010002020000080100000008000000000400000000600000000000003AFABA
:4D0B6E008011328116000098601300000C0100008146C0489808926000400000B0200000000000000000000000000000000008008016000080000B6284400000000020C01000000060080C0400304290FDA1
:4D0BBB003000B4C010020002402008004D100004880010008A601128242D0800B410000000000000000000000000000000204000800000001A4008080005000034A282D00000000028010D00000400D8FC0F
:4D0C080000000000000000000800010000000000000000801000024200000000000000000000000000000000000000000000000000000000001000010008080000000400400000004040000800000070F96C
:4D0C550000003C080202000EC80162200F0200000006F00018000360000F00003C00000000000000000000000000000000000000000002001EC00300000C00003C0806F00000000060400F0200001018FAE8
:4D0CA2000C08050124000012400A0000010000B0100610828002200441090200242200000000000000000000000000000080090200000000124550004280080004010012280000000004210000000041FE3B
:4D0CEF000404802010000040001000012008000001464808801000012000000080200000000000000000000000000000000030000010000040100101010004008020000282000000008120080080006BFC54
:4D0D3C0070803C800702001EC8031A200F00000CA007B04006C00018000F08003C00000000000000000000000000000000600000800102001EC00218200300003C8001F00000000018000F00000C10F8F9D0
:4D0D89000800100002040008100100000404003000064000001000024000080000000000000000000000000000000000008001000000020000080100200008001010004480000000000004000000007AFDFB
:4D0DD600801132201600001A010302082D0000200916C44880001000028D0000B0200000000000000000000000000000000049000026000058000B6202400000B00020C00800000000802C08003004F0FF63
:4D0E2300200004800000000242080C000100001480C010080B402128042D2884B400000000000000000000000000000000200000804600000240200800413000008000D00801000028000100003420DCFB86
:4D0E7000000000000000000000000000000000201000000010100241200000000010000000000000000000000000000000008000000004000000000200000000000000020000000040400000000000A0FCCE
:4D0EBD00800100000000000EC00161200C0400308003F00018000362000FE0013C000000000000000000000000000000000000008007010018C8036000000800000000F04000000060000000003C0000F923
:4D0F0A000808012140080012490200008000000084141214402000000829220426120000000000000000000000000000000004018020000000404000422C002000001014080000000044400100040AF3FB36
:4D0F570000048000100000400010000120000080402042088010000120008000812000000000000000000000000000000080040200100400400001010140040400000202820000000081200000802071FCF3
:4D0FA40060800C900102001EC8031A200304000C8007B04006C00018000F68013C000000000000000000000000000000006001008007000006C8021820036080008005F00000000018000304003C00B2F9F4
:4D0FF1000400000000020008100100000000000020024400001000024000848000000000000000000000000000000000000000010002040000080100000C0000010000448000000000000000001000FAFCF1
:4D103E00001032042600001A01030284000100008146C04880001000022C8009B0200000000000000000000000000000008009000046000080000B0208488205000026C00800000000808C1000B420DCFC85
:4D108B00B03104800000004248006A0001A085B49000140042481009210100000400000000000000000000000000000000A01102802600001A400B0900813000008012D080021000082401000034209CFEF1
:4D10D800000000000002000000000020000000000000004000000000000000000000000000000000000000000000000000000000000401000010020000000000000004020000000000000000000000A8FCA8
:4D112500E00130800700000EC8017A1000E4413C8003F20000000000000C04003010000000000000000000000000000000E08100000601001E00036200008401000006F4001E100000000004003C08F0FA94
:4D1172002C5000A1400800124122480180200904A0041008992020012400000000000000000000000000000000000000002000000016000042040B00420000200000401004030100000A0000002401D3FB68
:4D11BF0004048100820000400010004120000481202042080001012120200000004000000000000000000000000000000000040100260800401003000120100400001008820802002081200000802099FE1E
:4D120C00E8010C900500001EC8037A0003E4013C8007B04006C80258000304000C00000000000000000000000000000000E00100800700001EC08318200B6080008001F00016000058000304003C001CFBAD
:4D1259008800000002000008100100000004001020024400180000024000040000000000000000000000000000000000008080000006000008080300000804000100004080080000000000000000007AFC69
:4D12A600B00501041604001A010362414C8005318246C0481004136002400000001000000000000000000000000000000080110000A600005A001301842C0004000000C80858100060808C1000B02088FA5C
:4D12F300A0110580260000424008680001200034C000140083480008080D20043442000000000000000000000000000000A05100800000001A50006A8081A811048040140002030068408D0100040070FC33
:4D134000000000000401000010000220000000200000000000000000000004800000000000000000000000000000000000000100000000000000000000000000010000000000000000000800000000F0FA91
:4D138D00E04100000602000EC80178100C8481308803F20000000000400FE2813C10000000000000000000000000000000800100000002001EC403780000E04100000004001E100078000C0000301078FD63
:4D13DA00280500214600009240224904800010308004108800090060010920102401000000000000000000000000000000801102000000005240080C14402104002216008242000008842C020000001AF9D2
:4D142700000481004601004000100041200004301140480888100001220080008120000000000000000000000000000000800500001000004010010141040400800020020208020000412C0400800038FE45
:4D147400E0010C900700001EC8037A000364803C8007B04016C00018000F68013C00000000000000000000000000000000E08100800102001EC00278000BE0010D9001304016000078000F00000C10D8FD44
:4D14C100040000000600000810010040000400300002400000100360000084800000000000000000000000000000000000808100000000000008012000008800001006000008000020200C0200000099FCDB
:4D150E00800531428600001A01036A04400010322116C44898001342122C8009B0200000000000000000000000000000008009000086000058000B6A414CA005310124C11058100060018C00000042C8FCAD
:4D155B00100000000000000000000000000000000000000000000000000000000000000000000000000000000000000000000000000000000000000000000000000000000000000000000000000000CCFB6C
:4D15A800000000000010000000000000002000040000100002400008000020000400000000000000000000000000000000200004000010000040000000010000048000100002400008000020000000C0FC15
:4D15F50000800000000100000000000000000000000000000000000000000000000000000000000000000000000000000000000000000000000000002000008000000000000000000000000000001008FC74
:4D1642002C100492401000024810094081240004800011000240000800012800040000000000000000000000000000000020000480401200024900080401201004800010000240000800013000040293FBC4
:4D168F00040000000000000000000000000000000000000000000000000000000000000000000000000000000000000000000000000000000000000000000000000000000000000000000000000000C9FA47
:4D16DC0010000000001000000000000000000000000000000240000800000000000000000000000000000000000000000000000400001000000000000001000000800000000040000000002000000034F836
:4D172900080000100002000010000000000000000000018000000000000000000000000000000000000000000000000000000000000000000000000100000000000000000000080000000004000000D2FCED
:4D177600202804820010004240100C0A41222804904010000240000800812888042000000000000000000000000000000020900480001800024200080A012028049200102402400008248120000405A0FA2B
:4D17C30000001000020000000008000004000000001021220000008000040800800000000000000000000000000000000000000000020000480080004000000010080000024000002001000000800008FB54
:4D18100000000000000000000000000000000040000000800000000000000000002000000000000000000000000000000080000100000000000000020000000000000000A00000000000000000000068FD23
:4D185D0000000040000000000080000000000000100000000000000000000000004000000000000000000000000000000020000000000000000000000000000000000000000000000000000000000068FAAC
:4D18AA0000800000000000000000000000000000000000021000020000000000000000000000000000000000000000000000410000000000000000000000000000000001000000000080000000000040FA61
:4D18F7000000000000000000000000000000000000001000000000000000000000000000000000000000000000000000000000000000000000C0000000042800000000040000000000000000000000A8F903
:4D19440000000088000000000000000000000010000000000000000120000000000000000000000000000000000000000000000000010000000000000000000000000000000200000000000000000010FE8C
:4D19910002000000000000000002000000000001000012000088000000000000200000000000000000000000000000000000000000000000000000000000000000000280000000000210010001100080FF25
:4D19DE0040400820000000000401001004040001000041000400022010008000200000000000000000000000000000000000000000000180000000200000000000000000200000000200080200000088F991
:4D1A2B002000052500000050D050004A010880010014361402C80008400020000C050000000000000000000000000000000000020000048000000A08000000000000A1209400000003200348000800B8F82C
:4D1A780000212000028000120403020A0C0000008882C58010020100020000040428000000000000000000000000000000008010000000000000010210000000002230001000000040000000000004A0F8B8
:4D1AC500000000000400000004010000040000002004410000000100000000000020000000000000000000000000000000000020000000000000010010000000000000000000000000000000000000A8FC6C
:4D1B1200028108000080001000020040010000000000840010080000000000000000000000000000000000000000000000000000000000000000000000000000000000002000000020000000000008B4FB95
:4D1B5F0000000000000000000000000000000000000000000000000000000000000000000000000000000000000000000000000000000000000000000000000000000000000000000000000000000098FFA2
:4D1BAC00000000100000000000000000000000000000000000000000000000000400000000000000000000000000000000000000000000000000000000020000000000000000000000000000000000A8F935
:4D1BF900000000000000000000020200000000000000000000000000000000000000000000000000000000000000000000000000000000000000000400000000000000000000000000000000000000B8FBE4
:4D1C4600000000000000001200000000000000001002000000000000000000000000000000000000000000000000000000000000000000000000000400000000000000000000000000000000000000B8F978
:4D1C930000000080000000000000000000000000080000002000080001000000000000000000000000000000000000000000000000000000000000000020000000001020000000008000000000000080FD06
:4D1CE00000000000000000000000000000000000000000000000000000000000000000000000000000000000000000000000000000000000000000000010100000008000000000000010000000000000FE09
:4D1D2D0000000800010000000000000002000040000000001000020000020000000000000000000000000000000000000080800000010000040000100000002008000200000000000000000000080040FB88
:4D1D7A0000000240000000000000008800000002040000000000000000000100000800000000000000000000000000000000000000800400000000008000000000800040100000000000001900004048FDD1
:4D1DC700000000000000002000000000000000000000000000000040000000000000000000000000000000000000000000000000000000000000400000000000000000000000000000000000000000F8F93E
:4D1E1400000000000000000000000000000000004000000000000000010400000000000000000000000000000000000000000000000000000000080000000000000000000000000000000000000000C0FE76
:4D1E6100000000100000000000000000000000080000000001000000000000002000000000000000000000000000000000000000000000000000080000000000000000000000000000000000000000B8FD3E
:4D1EAE0000400000000000000000001000004000000000000000000000000000004000000000000000000000000000000000000000000000000004001000004000000000000000000000000200000838FB86
:4D1EFB00000000000000000C0000000000800090000040004000000000008200100000000000000000000000000000000000040000000000020000000000000000000000000000000000000000000070F8FE
:4D1F480000000000000000000000000000100000000000000000000040000000000000000000000000000000000000000000000000000000000000000000080000000004000000000040000000000004FEAE
:4D1F9500200000000000000000010000000000000000000000000000000000040400000000000000000000000000000000000000000000000000000000000000000000000000000000200000000000C8FEF0
:4D1FE200000000000000000000000000000000000000004000000000000000000004000000000000000000000000000000000200000000000008020000000000000008000000000000000004000000F8FB63
:4D202F00002020048000000000000008080120004400000000904010880000000024000000000000000000000000000000002103008400001002000008021100200481081000000040880001000004C0FA86
:4D207C00000120000408000480005000080001200000000001020000000A84000000000000000000000000000000000000000000000400001000004000000081200000A00000000040000A0000200068FCF9
:4D20C90000000000000000000000050000000000800000000800810000000000000000000000000000000000000000000000000000000000000000000000000000000000000000000000000000000018FBA9
:4D211600000000000800002004C0800000000000000120010020002000100000000000000000000000000000000000000000000000000000040000000005000000000600010002000800100000080092FEDC
:4D216300000000000000000000400000000000002000000000000400000000000008000000000000000000000000000000000000000000000000010000000000000000008000000000000000000080E8F8E2
:4D21B00000000000000000000000000000000000000000200008000400000000000000000000000000000000000000000000000000000800024000000000000000000000000000000000010000000070FA01
:4D21FD0000000000000000001000000000000000000080000000000000000000000000000000000000000000000000000000000000000000000000000000000000000000010200000000000000000038FFCB
:4D224A008A001000000000000000000000000000000001000000000000000000000000000000000000000000000000000000000000000000000000200000800000001000000000000000040000100018FBD5
:4D22970008001100000000080002200002420000800000001000000000000040000000000000000000000000000000000000000000000000080080001004000008080240000800000000004000008811FBD9
:4D22E4004A000020000000040401100008800000000241000408001000024800000000000000000000000000000000000000401000001000000000000000000000000000200000000040000000108090F821
:4D233100A0800820A0000006D05018000364000088A114140610000800412980A0000000000000000000000000000000000000050014100084020A0120020000081001208004000A00400040000410B0F9F9
:4D237E004021200C86C0011450C0600000024130000664103404E2201004084B90200000000000000000000000000000000000900000000008408020080482000000C200000000080008010000000478FD2A
:4D23CB0000000010012000000080100000022010000120000008802040040040080000000000000000000000000000000000000800000000080080200002820000000200000000000000000000000010F93E
:4D241800402008088240000400802000004000080002002008804000000080000000000000000000000000000000000000000000000000000000000010000000000000010000000000080000000008C0FF0F
:4D246500000000000000000000000000000000000000048100000020000000000000000000000000000000000000000000000000000000000000000200000000000000000000020000000000000000F0F899
:4D24B2006A0400000001000000000800002000000000000020000400000000000800000000000000000000000000000000000000000000000000800800002100800000000200040000080000000480AAFEB7
:4D24FF00000000000000001000040020000000000000000000000000100005000210000000000000000000000000000000400000000000000000000000000000000000000000000000000400000000C8FF2A
:4D254C0000000000000000081000000004800004000044000000000000000001000000000000000000000000000000000000000000000000000000000000040000000000000000002020000000000028FDF4
:4D25990000000000000000000000000000000000000000000000000000000000080000000000000000000000000000000000000000000000000000000000020000000000000000000810000000000080FD56
:4D25E600000000000000000000000000000000000000000000000000000000001000000000000000000000000000000000000000000000000000000000200000000000000000000010000000000000A8FFC1
:4D26330000000400000000000000080001000000000000000000000000010000400000000000000000000000000000000000000080000000000000080000000000000410000000000000100000040048FE16
:4D26800000000000030000000000000000000080080000004200000010000000000000000000000000000000000000000000240000000000008000000000000000000000000400000001000000000058FF30
:4D26CD0000000008000000008000000000000004000000000000000800004000000000000000000000000000000000000000400000000000000000000000000000000000000000001000010000000098FB08
:4D271A0000000000000000000204000000000008008400000800011800000002000000000000000000000000000000000040000080000000000041000000000000000000000000000000000000000088F83C
:4D276700000000000000000002000000000000000000000000200000000000000000000000000000000000000000000000000200000002000000000100000080000008000000000000000000000000B0FCCA
:4D27B400000000000000000000000000000000000000900000000800000100002000000000000000000000000000000000000002000000000000000120000000000000000000000000000000000000C4FB3D
:4D28010000000000000000000000080200A08100801004005A48A3080C01240834080000000000000000000000000000000000000000000000000000000000000080460200004093680C0000000000E0FA20
:4D284E0000000000000000000000004000000100000000000000020000000080200000000000000000000000000000000000000000000000000000000000000000000400000000020000000000000068F9F3
:4D289B0000000000000000000000000000800100800700001E0483784000E800300000000000000000000000000000000000000000000000000000000000000000000600000000037810000000000058FF8B
:4D28E800000000000000000000006021008021008040040052000B08012C20093208000000000000000000000000000000000000000000000000000000000000000046010000000B0A010000000000C8FDA6
:4D29350000000000000000000000000400001001000204004010002440400484000000000000000000000000000000000000000000000000000000000000000000000008000000200200000000000070FF25
:4D29820000000000000000000000182000600000800500001EC000580003E0010C20000000000000000000000000000000000000000000000000000000000000008001000000C0007840000000000090FB21
:4D29CF00000000000000000000006000008001000002000000000320200C80003010000000000000000000000000000000000000000000000000000000000000000006000000000320000000000000B0FFF1
:4D2A1C000000000000000000000040110080410000460200581083600228A209B100000000000000000000000000000000000000000000000000000000000000000006010000008368410000000000A0FC73
:4D2A690000000000000000000000000000A049348810D020004013080800201096000000000000000000000000000000000000000000000000000000000000000080160000004013000000000000008CFEDF
:4D2AB600000000000000000000000000000000200000820000008000000000002008000000000000000000000000000000000000000000000000000000000000000000010000008000000000000000A8FE62
:4D2B0300000000000000000000000000008001308807C020000003780000E0003100000000000000000000000000000000000000000000000000000000000000000006040000000300000000000000B8FA1A
:4D2B5000080000000000000000000000000084308080C0000000100A2400200180200000000000000000000000000000000000000000000000000000000000000000100000000008010000000000004BF960
:4D2B9D00000000000000000000000000008010012202040001000124400000040010000000000000000000000000000000000000000000000000000000000000000002080000002102000000000000A9FFE3
:4D2BEA0000000000000000000000000000E0010C8005300000C003580000E0010D00000000000000000000000000000000000000000000000000000000000000008007000000C003000000000000006CFE3F
:4D2C3700040000000000000000000000008001300002C00000000320200080000020000000000000000000000000000000000000000000000000000000000000000006040000000300000000000000BAFD32
:4D2C8400000000000000000000000000008051B00846C22800008B60020080290001000000000000000000000000000000000000000000000000000000000000000046000000008B0000000000000070FF73
:4D2CD1001000000000000000000068104D300434894018040140000A010D22103401000000000000000000000000000000000000000000000000000000000000008002000000400002000000000000D0FA46
:4D2D1E0000000000000000000000400008000001000000000000000020080000011000000000000000000000000000000000000000000000000000000000000000000404000000000000000000000068FE78
:4D2D6B000000000000000000000060100C0200308007048000000079200CE2003C0800000000000000000000000000000000000000000000000000000000000000000600000000000100000000000068F830
:4D2DB8000C00000000000000000060000C808500C100C00200000808000C208924000000000000000000000000000000000000000000000000000000000000000000A000000000000000000000000032FF14
:4D2E050004000000000000000000004480101010228200000000002140001084802000000000000000000000000000000000000000000000000000000000000000000002000000100200000000000018F92A
:4D2E52000800000000000000000018000360803C8005308000C002580003E0013C00000000000000000000000000000000000000000000000000000000000000008001000000C0020000000000000070F9D9
:4D2E9F000800000000000000000060000C8001300002C00000000222200C8000000000000000000000000000000000000000000000000000000000000000000000000004000000020000000000000021FE0A
:4D2EEC001000000000000000000060148C0249308A26842000000360028CA209311100000000000000000000000000000000000000000000000000000000000000002000000000230400000000000090FC09
:4D2F39001000000000D0405A480068112D221006A040D0229A506108042D22080422000000000000000000000000000000000000000000000040236C01000000008022010000400100000000000000E8FC6D
:4D2F860000000000000000000000000000000000000002000000020020000080000000000000000000000000000000000000000000000000000000002000000000000400000000020200000000000078FFBB
:4D2FD3000000000000F0201E040060000C0000008007C0801E040378400CE80000200000000000000000000000000000000000000000000000C083781000000000000602000000030000000000000010FC79
:4D3020000C000000001008020110012120041002852008029200000904202009B2000000000000000000000000000000000000000000000000402008040000000000100000000050000000000000002AFE97
:4D306D00040000000000824010082044841008814002440041100021400410040011000000000000000000000000000000000000000000000000000000000000000000020000001002000000000000E0FB67
:4D30BA001000000000F0001EC00079000F60012C8005F0001EC00058000FE0010D000000000000000000000000000000000000000000000000C0037A40000000008001000000C0000000000000000080FFF1
:4D3107000800000000400008000060100C0201200002C02000000022200C8200300000000000000000000000000000000000000000000000000001200000000000000004000000000200000000000091FBF7
:4D3154000000000000D0449A104360048C8005324046C20858101060028C80292009000000000000000000000000000000000000000000000040136922000000000020000000001000000000000000C0FB35
:4D31A10010003410001000024000084001A89094901014800040080821012830040400000000000000000000000000000020000000000000004000080000000000802600000040200000000000000094FB23
:4D31EE0000000000000000000000000000000120000000000000000200000000000000000000000000000000000000000000000000000000000000000000000000000002000000000200000000000088FDE8
:4D323B0000003C0800008000000300000084013090070000000000780000E0000100000000000000000000000000000000008000000000000000000140000000008007010000000000000000000000C8FECB
:4D3288000C008400000008800810018420002800804004000100130A22402105002200000000000000000000000000000000100000000000000020000100000000801400000000100400000000000023FB79
:4D32D50004008020000002400008004240080881408200400000102140400084904000000000000000000000000000000000040000000000000008008000000000001004000000110200000000000071FE82
:4D33220008003C0000304006C80059000B60000C8005B00000C00058000BE8012C000000000000000000000000000000006080000000000000C0001900000000008007000000C00200000000000000C4FDDC
:4D336F00080010000000000000004000080800002002800000000320200880000000000000000000000000000000000000000001000000000000000000000000000000000000000002000000000000E2FB5C
:4D33BC001000B42000C00259204060810C0000028126C40201009260020CB00931400000000000000000000000000000008005000000000000000B648100000000002602000000130000000000000038F8FE
:4D3409001000040000D0405A480B2984852100059040588402401108002524109600000000000000000000000000000000200000000000000040236C0100000000800000000040080A000000000000D8FCC1
:4D34560000000000000000000000400008000000000080000000020100080000200800000000000000000000000000000000000000000000000000002000000000000000000000000000000000000068F9AD
:4D34A3000000002000F0201EC40360000C0000008007C40018000360000CE40031000000000000000000000000000000008081000000000000C083781000000000000604000000000140000000000068FEF7
:4D34F0000C0000020010040240A0004000041032C10000808008506000002001802000000000000000000000000000000000100000000000004010080000000000000000000000000001000000000032F838
:4D353D00040080000000824010080242400808000202044040000061404000848040000000000000000000000000000000000400000000000000000000000000000010000000000001800000000000B8FB5A
:4D358A0010000C1000F0001EC00318000360010D9005300006C800780003E8010C000000000000000000000000000000006080000000000000C0037A40000000008001020000C00218000000000000E0F8D9
:4D35D700080000000040000800010240000801300002008000000062200088000000000000000000000000000000000000000001000000000000012240000000000000000000000200000000000000B1FC3C
:4D3624000000304200C08258502300024080052208460204002110600240A0090140000000000000000000000000000000000400000000000000236004000000000040080000002364840000000000A0FB67
:4D3671001000341000D0040240132A0245A09014811050885A400808024520300400000000000000000000000000000000A009000000000002401308000000000080400000004020680C00000000005CFE38
:4D36BE0000000000008020000002402008040120100082001010000140080400000000000000000000000000000000000000800000000000000082000000000000000004000000000200000000000098FBF6
:4D370B0000003C0800C02000000360200C8001308007C00018000078000CE0003120000000000000000000000000000000E0410000000000180883004000000000000004000000007810000000000098FFD2
:4D3758000C00240100C002800840000240012800C28000480021080C4280300500020000000000000000000000000000002005000000000000010B000100000000001600000000104C020000000000D3F9D4
:4D37A5000400802000C00040000900424008088040820040480001214040000480000000000000000000000000000000000000000000000040000B0280000000000020020000000101000000000000E9FCD2
:4D37F20008003C0000F08006C80219000360000D8005300016C802580003E8010D10000000000000000000000000000000E001010000000006C8031800000000008001000000C002784000000000003CFD88
:4D383F000800000000C040000000024000080001200200800010002220008800000000000000000000000000000000000000000000000000000003010000000000000600000000000200000000000082FCE3
:4D388C001000B02000C0001821080002400008008126040440001360024080290042000000000000000000000000000000800501000000000002136020000000000024010000000B6041000000000078FED3
:4D38D900000004000010009A400B090021A051048240100402400808224128100404000000000000000000000000000000A00900000000009A40006802000000008022010000406008000000000000B8FFD0
:4D392600000000000000001004000040000800002000028000000001000000000100000000000000000000000000000000008000000000000008004010000000000004000000000000000000000000D0FEAA
:4D3973000000302000008018C08300200080010180070040180000780000E0000000000000000000000000000000000000E04100000000001E0400611000000000000602000000006040000000000038FD72
:4D39C0000800000200000898422200042C040400842008080002080C410021890022000000000000000000000000000000201000000000001200206001000000000010000000000B01010000000000A2FB20
:4D3A0D00000080000000029800082242408000904082404040001122404400041010000000000000000000000000000000000000000000004010086084000000000010080000002000800000000000B0FA9B
:4D3A5A0000000C100030401EC803580003E8012D8005B00006C80258000BE8012D00000000000000000000000000000000E00101000000001EC0007900000000008001000000C0001900000000000060F8D0
:4D3AA7000400000000000018040002400C804100200200800000002020008800002000000000000000000000000000000080000000000000001000602000000000000000000000030000000000000081F98C
:4D3AF4000000004200C0105800236002288205308126C40400210364024C80293001000000000000000000000000000000A0050100000000180143600200000000000008000000920084000000000090FA8C
:4D3B4100100000000000000000000000000000000000000000000000000000000000000000000000000000000000000000000000000000000000000000000000000000000000000000000000000000CCFB60
:4D3B8E00200000800000000000000800012000040000100002400008000100000400000000000000000000000000000000000004800010000200000000012000048000100002400000000120000400F8FE16
:4D3BDB0000000010000080001000000000000000000002000000000000000080000000000000000000000000000000000000000000000000000000024000000000000000000000000020000000000088FA97
:4D3C28002C0004820010048240000900012000048020100002400008000120000400000000000000000000000000000000201006800010000240100802012000048000100002400008040120000400CBF86D
:4D3C7500040000000000000000000000000000000000000000000000000000000000000000000000000000000000000000000000000000000000000000000000000000000000000000000000000000C9FA3B
:4D3CC2002800008000000000000008000120000400001000004000000001000000000000000000000000000000000000000000048000100000000000000120000400001000024000000001200004007AFAEB
:4D3D0F0008000000000000000880000000000000000000000004000010000080000000000000000000000000000000000000000000000000001000000000000000000000000000000000000000000062F8D9
:4D3D5C00300004A0001040024100080001200004802012000240000801012010040400000000000000000000000000000020000580001000824000090A012000048080100002400008400120000400ACFB3B
:4D3DA90000000000000000012000000000000000000000000000000000000000000800000000000000000000000000000000000000000000000000048000000000000000000000000000000000000090F898
:4D3DF60000000000000000000000000000000000000000000000002000000000004000000000000000000000000000000000000000000000000000000000000000000008000000000000000000000090F98F
:4D3E4300000000000000000000000000000000000008000000000080000000012000000000000000000000000000000000000000000000000000000000000000000000000000000000000000000000A0FCED
:4D3E900002000000000000000000000000000000000C00000002000020000000000000000000000000000000000000000000000000000000000000000000000000000000000000000000000000000078FF3E
:4D3EDD0000000000000000000000000000000000000001800000000200000800000000000000000000000000000000000000000000000000000040000000000000000004000000000000000000000020FAAF
:4D3F2A00000000040000100000000000000080008000000000000010000000000010000000000000000000000000000000000000000000000000000000000000000000000000000000000000000080C0FBDB
:4D3F770000000000000000000000000000080000000241000004000000000800200000000000000000000000000000000000000000000000000000000000000000000000000000000010000000000090F8EE
:4D3FC40040800800000000001000002000000000000000000008000000000240100000000000000000000000000000000000000000000000000000000000000000000002400000000200000001000078FAA7
:4D40110020000500000000001000004000040000000122200018002000000C000D0000000000000000000000000000000000000000000000000000000000000000000004800000000220002000000084FB10
:4D405E00802000000280101004010000140000000E90811E02024060A0188061A00E000000000000000000000000000000000020000000000000000000000000000000000000000000000000000000F0FA88
:4D40AB0000010000040000001002000004000000080002000000004000000001012000000000000000000000000000000000000000000000000000000000000000000000000000000000000000000040F908
:4D40F8000E800000008080020000000000000000200084200008002100042040100800000000000000000000000000000000002000000000000000000000000000000000000000000000000000008034FCB2
:4D41450000000000000000000000008000000000000000000100000000000000000000000000000000000000000000000000000000000000000000000000000000000000000000000000000000000000FFAD
:4D41920000000000000000000000008001004000000000800040000000000000800000000000000000000000000000000000000000000000000000000000000000000000000000000000000000000040FAA5
:4D41DF00000000000000000000000020000000020000004000000000000000000000000000000000000000000000000000000000000000000000000000000000000000000000000000000000000000F8FB3E
:4D422C00000000000000000000000000000000002000000000000208000008000000000000000000000000000000000000000000000000000000000000000000000000000000000000000000000000B8FF5C
:4D42790000000000000000000000800000020640000000020000080000200000800000000000000000000000000000000000000000000000000000000000000000001000000000440000000000000050FCE6
:4D42C600000000000000000000000000000000020000000000000000100000000000000000000000000000000000000000000000000000000000000000000000000000000000000000000000000000A8FDF4
:4D431300000000000000010000040000080000000000000000000200000000000000000000000000000000000000000000002000000000000000040000000000000000000000000000000000000000A0FE8C
:4D436000000000400000200020400000000000000000000000200000000000000000000000000000000000000000000000000000000000000002400008000000000000000000000000800000000000F8FD71
:4D43AD0000000000000000180001000000000000000004000800002000000080010000000000000000000000000000000000000000000000000000100000000000000000000000000000000000000040F9B4
:4D43FA00000000000000000000000000000000000000000000000000080040000004000000000000000000000000000000000000000000000000000000000000000000000000000000000000000000D0FB5F
:4D4447000C000000000000000000000000000000000000000000000000008000000000000000000000000000000000000000000000000000000000000000000000000000000000000000000000000058FB49
:4D44940000000008000001000C00000000000000000000000004000000000000400000000000000000000000000000000000400000000000000004880000000000000800000000000010000000000050FE50
:4D44E10000000000000000000000000120000080000000000000000000000000040000000000000000000000000000000000000000000000000000000000000000800000000000080200000000000088FBDC
:4D452E0000000000000000000000000000000001400000000000000200001000002800000000000000000000000000000000000000000000000000000000000000000004000000000000000000000028FD9C
:4D457B00000000000000000000000000000000009000000002000000010000000000000000000000000000000000000000000000000000000000000000000000000000000000000000000000000000B0FFB1
:4D45C80000000000000040200004000000000000000000002000008000000102000000000000000000000000000000000000000000000000000000000000000000000000000000000000000000000000F9A6
:4D461500000000040000100002400000010060006000201000C20000000003000844000000000000000000000000000000000100000000001002000040000000000085080000800000400000000000D0F997
:4D466200100020000080001000024008080121000010040010004001000000042100000000000000000000000000000000808100000000001800030320000000008014000000404200200000000000F2F9ED
:4D46AF0000000000000000000000001000000000000000000000000000000000000000000000000000000000000000000000000000000000008000000000000000000000000000000000000000000010FE20
:4D46FC00000000000000000000000000002200000000004001008100000400001000000000000000000000000000000000000000000000000000000000000000000002000000000000000000000000D0FFA8
:4D47490000000000000000000000000010000020001100000000040000080000000000000000000000000000000000000000000000000000000000000000000000000000000000000000000000000030FAAC
:4D47960000000000000000000000000000000008000000000000000000020000000000000000000000000000000000000000000000000000000000000000000000008000000000800000000000000010FDBF
:4D47E300020000000000000000000000004000000004000000000008000020001000000000000000000000000000000000000000000000000000000000000000000000000000000008000000000000A8FA61
:4D48300000001000000000080000000000000000000000000000000000000000000000000000000000000000000000000000000200000000000000400000000000000000000000002000000000000070F859
:4D487D0040001120000400004000000000480000000000001000800010008400110000000000000000000000000000000080000000000000000001000000000000000000000000010000000000000030FF0B
:4D48CA00184000000202000010011000080000100000020008080010000240400808000000000000000000000000000000000000000010000000000000000000000000000000800000000000000000BAFE10
:4D4917004080099000060000D00A0800014400040002440006100029200164800D20000000000000000000000000000000400000000010000080000000000000000000000000C0000000000000000028FA60
:4D496400004820081081001000422010048000800884C0031802630AA0040220800400000000000000000000000000000000010000000000080000400000000000000200280000810000800100000010FBDF
:4D49B100002000100004000000001040044000000800400004000100000104000000000000000000000000000000000000000000000000000800000000000000000002002000008100000000000000B0FB49
:4D49FE00000008000020000800810000000000000004110010880002000000400008000000000000000000000000000000800000000000000000002000000000000000000000000000000002000000A8FE7C
:4D4A4B0000000000000000000000000000000008000000000000000008020020000000000000000000000000000000000000000000000000400000000800000000000000000000000008000000000070F933
:4D4A9800000000000000000000000000000000000000020000000000000000000400000000000000000000000000000000000000000000000000000040000000000000000000000000000000000000B8FDD6
:4D4AE500000008000020000000000000000000140080000000000044000500000000000000000000000000000000000000000000000000000000000000000000000000020000400000000000000000E0FA63
:4D4B3200000000000000000000000040001000040000001000000000000100000000000000000000000000000000000000000000000000000000000000000000000001020000000001000000000000F8FCD9
:4D4B7F00000000000000000000000000002000000000000000000000000000000000000000000000000000000000000000000000000000000000000000000000000000000000000000000000000000B8FD14
:4D4BCC0000000000000000000000000000000000000000000000000000000040000000000000000000000000000000000000000000000000000000000000000000000000000080000000000000000058FF85
:4D4C190000000000001000004000000000000000000000200000000000000000000000000000000000000000000000000000000000000000024000800000000000000000000000000000000000008038FE66
:4D4C660008000000000000020000002100080480000000000000000000000000000000000000000000000000000000000000000000000000000000000000000000000000000000080000000000000040FF03
:4D4CB30000000000000000000000400004000000000000000000011010000000000000000000000000000000000000000000000000000000000000000000000000000000000000000100000000000098FFB7
:4D4D000000000000000000000000200000400000000040020000004000002080000000000000000000000000000000000000000000000000000000000000000000000000000000000000000000000038FDAF
:4D4D4D0000000010000002400000100000000000000080000000000000000000000000000000000000000000000000000000800000000000000008000100000000000200000000000020000000000068F82C
:4D4D9A00000000000020000000000000200000000000000000000800000080000000000000000000000000000000000000000000000000000000000000000000000000000000000004000000000000F8FD0B
:4D4DE700000000000000001A41A30000000000008016D0020140130000000000000000000000000000000000000000000000000000000000000000000000000000000000000000000000000000000078FA53
:4D4E340000000000000000001002000000000000000081000000800000000000000000000000000000000000000000000000000000000000000000000000000000000000000000000000000000000020FD01
:4D4E8100000000000000001E04030000000000000006C00000000300000000000000000000000000000000000000000000000000000000000000000000000000000000000000000000000000000000D0F82E
:4D4ECE00000000000000005200830000000000000020C84000001002000000000000000000000000000000000000000000000000000000000000000000000000000000000000000000000000000000C0FCCC
:4D4F1B0000000000000000000008010000000000002202440000010400000000000000000000000000000000000000000000000000000000000000000000000000000000000000000000000000000090FF44
:4D4F6800000000000000001ED0000000000000008007300000C0030000000000000000000000000000000000000000000000000000000000000000000000000000000000000000000000000000000000FE96
:4D4FB500000000000000000008030200000000000006C0000000030000000000000000000000000000000000000000000000000000000000000000000000000000000000000000000000000000000088FD54
:4D500200000000000000001801030000000000000006C12000008300000000000000000000000000000000000000000000000000000000000000000000000000000000000000000000000000000000B8FD26
:4D504F00000000000000000040090000000000008000D404004020000000A0090401000000000000000000000000000000000000000000000000000000000000000000000000000000000000000000F8FF6E
:4D509C00000000000000000000820000000000000000002000000001000000410008000000000000000000000000000000000000000000000000000000000000000000000000000000000000000000D8FE05
:4D50E900000000000000000000030000000000000000C00000000000000080410000000000000000000000000000000000000000000000000000000000000000000000000000000000000000000000B0FD49
:4D51360008000000000000000000040000000000004004420000200200008005B01000000000000000000000000000000000000000000000000000000000000000000000000000000000000000000052FAE7
:4D518300000000000000000000000000000000000020444400000800000080110001000000000000000000000000000000000000000000000000000000000000000000000000000000000000000000C8F8DD
:4D51D0000000000000000000C0000200000000008005F00000C002010000E0010D2000000000000000000000000000000000000000000000000000000000000000000000000000000000000000000078FB17
:4D521D00040000000000000000000100000000000004C00000000200000080013020000000000000000000000000000000000000000000000000000000000000000000000000000000000000000000E1F9CE
:4D526A00000000000000000000000000000000000016C42200008B0000008085200200000000000000000000000000000000000000000000000000000000000000000000000000000000000000000080FECB
:4D52B7001000000000000000400B000045000000800212800040080000002010000000000000000000000000000000000000000000000000000000000000000000000000000000000000000000000068FD19
:4D530400000000000000000000000100080200000004000000000002000000400000000000000000000000000000000000000000000000000000000000000000000000000000000000000000000000B0FC5F
:4D5351000000000000000000C08300000C0000000006000000C0030100000000000000000000000000000000000000000000000000000000000000000000000000000000000000000000000000000058FF9F
:4D539E000C00000000000000400A000080100000000008140040000000008009020000000000000000000000000000000000000000000000000000000000000000000000000000000000000000000082F87B
:4D53EB00040000000000000000080200200000000020048400001101000000080000000000000000000000000000000000000000000000000000000000000000000000000000000000000000000000B0FBDA
:4D5438000800000000000000C0030000030400008001B00000C0020000006000010000000000000000000000000000000000000000000000000000000000000000000000000000000000000000000070FA97
:4D548500080000000000000000000100000400000000840000000100000080010100000000000000000000000000000000000000000000000000000000000000000000000000000000000000000000D9FEEF
:4D54D200100000000000000000230000000000000020C00001000B0400000011000000000000000000000000000000000000000000000000000000000000000000000000000000000000000000000080FCDD
:4D551F001000344200000000401000008D01000080105808825001681200A031B408000000000000000000000000000000000000000000000000000000000000000000000000000000000000000000E0FE33
:4D556C0000000000000000000000010000000000000080800000020100000000200000000000000000000000000000000000000000000000000000000000000000000000000000000000000000000020FEB0
:4D55B90000003C0800000000000002000F0200000000C0400E0003600000E0413000000000000000000000000000000000000000000000000000000000000000000000000000000000000000000000A0FEEE
:4D5606000C00840000000000000B000089000000004008021202400021002010300400000000000000000000000000000000000000000000000000000000000000000000000000000000000000000082FA94
:4D565300040080200000000000200000200800000022048400110820220000003008000000000000000000000000000000000000000000000000000000000000000000000000000000000000000000A8FB3E
:4D56A00008003C0000000000C00001000F000000800530001EC000790000E0013D0000000000000000000000000000000000000000000000000000000000000000000000000000000000000000000058F92E
:4D56ED0008001000000000000003000000040000000004800800006000008080302000000000000000000000000000000000000000000000000000000000000000000000000000000000000000000041FBD9
:4D573A001000B42000000000009200008C00000000260004980200618400A011300000000000000000000000000000000000000000000000000000000000000000000000000000000000000000000038FD61
:4D578700100000000000000040400000010000008040124800401128000120000401000000000000000000000000000000000000000000000000000000000000000000000000000000000000000000E8FDA6
:4D57D40000000000000000000000000000000000000000000000024120000000000800000000000000000000000000000000000000000000000000000000000000000000000000000000000000000028F9FC
:4D5821000000000000000000000000000C040000000000000000036200000480002000000000000000000000000000000000000000000000000000000000000000000000000000000000000000000030F8F9
:4D586E000C000000000000000020040040000000004004140000100041000008B000000000000000000000000000000000000000000000000000000000000000000000000000000000000000000000B2FB6F
:4D58BB0004000000000000000009040000100000001000000000080042200000020200000000000000000000000000000000000000000000000000000000000000000000000000000000000000000038FCCD
:4D5908001000000000000000C0020000030000008005B28000C00019000364000C1000000000000000000000000000000000000000000000000000000000000000000000000000000000000000000048F929
:4D595500080000000000000000000200000800000004800000000000400000003010000000000000000000000000000000000000000000000000000000000000000000000000000000000000000000B9FE38
:4D59A200000000000000000000130000400000000016C40001000001028C8411220000000000000000000000000000000000000000000000000000000000000000000000000000000000000000000050FEF6
:4D59EF0010000400000000024000000021100000800212040040202A0C01A031B400000000000000000000000000000000000000000000000000000000000000000000000000000000000000000000E8FE4A
:4D5A3C0000000000000000000000000000000000000400400000004000000000002000000000000000000000000000000000000000000000000000000000000000000000000000000000000000000098FDE4
:4D5A8900000000100000001800030000000400000006000000000062000CE4413C0800000000000000000000000000000000000000000000000000000000000000000000000000000000000000000048FB81
:4D5AD6000C0000000000008002400000200000000000C84200000800420020000400000000000000000000000000000000000000000000000000000000000000000000000000000000000000000000DAFB48
:4D5B230004000040000000400000040024000000001000040000090042200000802000000000000000000000000000000000000000000000000000000000000000000000000000000000000000000078F9F9
:4D5B700010000C0000000006C80000000B0400008001328000C002190003E4013D0000000000000000000000000000000000000000000000000000000000000000000000000000000000000000000048F97B
:4D5BBD00080000000000000010000000000400000000C20000000000400080001010000000000000000000000000000000000000000000000000000000000000000000000000000000000000000000B9F92B
:4D5C0A000000B01000000080000802000C000000000080240000030102808405B60000000000000000000000000000000000000000000000000000000000000000000000000000000000000000000070FD21
:4D5C57001000344200D0185A40400000450000848016510842408B08442D2000040000000000000000000000000000000000000000000000000000000000000000000000000000000000000000000018FB43
:4D5CA40000000000000000001000000008020000100080800008020000000800000000000000000000000000000000000000000000000000000000000000000000000000000000000000000000000080FFF8
:4D5CF10000003C0800F0201E040000000C00001C0006C4400E108300000F0280000000000000000000000000000000000000000000000000000000000000000000000000000000000000000000000040F854
:4D5D3E000C00240100900492002004008010002404100002520023000A8100080012000000000000000000000000000000000000000000000000000000000000000000000000000000000000000000AAFC13
:4D5D8B0004008020000082000001000040080000101202000011002442200800820000000000000000000000000000000000000000000000000000000000000000000000000000000000000000000090FB8C
:4D5DD80008003C0000F0001ED00202000300003C800730801EC00058000F60000C1000000000000000000000000000000000000000000000000000000000000000000000000000000000000000000040FEE3
:4D5E2500080000000000000008000100000000100006014008000300400400000000000000000000000000000000000000000000000000000000000000000000000000000000000000000000000000E1FD9B
:4D5E72001000B02000C0041901030000001000302046000098029360024D9091B040000000000000000000000000000000000000000000000000000000000000000000000000000000000000000000D8FBBC
:4D5EBF000000040000100002400900002D0200008026D0280040206C142D20108400000000000000000000000000000000000000000000000000000000000000000000000000000000000000000000E8FFC2
:4D5F0C00000000000000000000820000080000000004010000000040000008400020000000000000000000000000000000000000000000000000000000000000000000000000000000000000000000A0FA77
:4D5F59000000301000C04018080300000C0000000006C08000000060100F02003C0000000000000000000000000000000000000000000000000000000000000000000000000000000000000000000088F809
:4D5FA6000400000000000400000004002C02000000460202000020620129800905120000000000000000000000000000000000000000000000000000000000000000000000000000000000000000009AF84C
:4D5FF3000C000040000002400008040000000000002042000100100222200810100400000000000000000000000000000000000000000000000000000000000000000000000000000000000000000058F993
:4D60400000000C0000304006C8000000030800008001F00000C00218000F60802C00000000000000000000000000000000000000000000000000000000000000000000000000000000000000000000A0F9BF
:4D608D000800000000000000100002000C0000000006C0200000026000008081100000000000000000000000000000000000000000000000000000000000000000000000000000000000000000000041FF07
:4D60DA000000801000004880001000008C0800000026C10800008B60144C1001302100000000000000000000000000000000000000000000000000000000000000000000000000000000000000000000F8E9
:4D61270010000000000000000000000000000000000000000000000000000000000000000000000000000000000000000000000000000000000000000000000000000000000000000000000000000088FF94
:4D617400200000800010000240000800012000048000100002400008000000000000000000000000000000000000000000200004800010000240000800012000048000100002400008000120000400D8F8F3
:4D61C10000000010000000000000000000000000000000000000000000000000012000000000000000000000000000000000000000000000000000000000000000000000000000000000000000000088FCDC
:4D620E002C00048200100002400008000120000480001000024000080041210804010000000000000000000000000000002000048000100002400008000120000480001000024000080001200004009AFF0E
:4D625B00040000000000000000000000000000000000000000000000000000000000000000000000000000000000000000000000000000000000000000000000000000000000000000000000000000D8FB1F
:4D62A800300000800000000000000800002000008000100000000008000000000000000000000000000000000000000000200004800010000240000800012000048000100002400008000120000400F8FA25
:4D62F50008000000000080000000020000000000100000000000000000000800001000000000000000000000000000000000000000000000000000000000000000000000000000000000000000000091FC1D
:4D634200200004840010040248200800012400848000100002495008004120000601000000000000000000000000000000200004800010000240000800012000048000100002400008000120000400A0F9E1
:4D638F0000000000000000000000000000000008000000000000000000000000104000000000000000000000000000000000000000000000000000000000000000000000000000000000000000000080FAEF
:4D63DC00000000000000000800010000040000000000000000000000000080000200000000000000000000000000000000000000000000000000000000000000000000000000000000000000000000C8F825
:4D642900000000000000000000010000000000000002004000020002000000000000000000000000000000000000000000000000000000000000000000000000000000000000000000000000000000E8F8FF
:4D647600080000000000000000020000000000200000008000020000000000000000000000000000000000000000000000000000000000000000000000000000000000000000000000000000000000B8FF76
:4D64C30000000000000000000002000000000010000080800000000000000000000000000000000000000000000000000000000000000000000000000000000000000000000000000000000000000020FD5D
:4D65100000000000000000000000000000040000000000000000000000000000040000000000000000000000000000000000000000000000000000000000000000000000000000000000000000000098FF9F
:4D655D0000000800000000040000002000000001800000800000020000008000000000000000000000000000000000000000000000000000000000000000000000000000000000000000000000000080FAC8
:4D65AA0040000010000000040000000000000000000010000080000000000000010000000000000000000000000000000000000000000000000000000000000000000002000000000200000000000058F86B
:4D65F700200008200000008602000020000080000001104000C0000000004000010000000000000000000000000000000000000000000000000000000000000000000004000000000200000000000058FE39
:4D6644008220300004C000380081001000000000000001001804C00010088020100C000000000000000000000000000000000000000000000000000000000000000000000000000000000000000000C0FE3B
:4D66910000011000008000080002014000000000000004000208000140000001080800000000000000000000000000000000000000000000000000000000000000000000000000000000000000000098FDEB
:4D66DE000A800800048000040000000000000000000000000800000100010000012000000000000000000000000000000000000000000000000000000000000000000000000000000000000000000020FF0B
:4D672B0000000000001000000000000001000000000000000000000000002000000000000000000000000000000000000000000000000000000000000000000000000000000000000000000000000088FD6B
:4D67780000000000000000000000000000000000000004000040000000000000000000000000000000000000000000000000000000000000000000000000000000000000000000000000000000000098FBFD
:4D67C500000000000000806000000000300000000000000000008000000008002200000000000000000000000000000000000000000000000000000000000000000000000000000000000000000000E0F9F4
:4D681200000008000000000440C0000000000000000000000080000000020000000000000000000000000000000000000000000000000000000000000000000000000000000000000000000000000058FD56
:4D685F0000000000000000000000000000000000000000200000000000000040000800000000000000000000000000000000000000000000000000000000000000000000000000000000000000000078FD0F
:4D68AC0000000000000000000000000000000000000000000000000000000000000000000000000000000000000000000000000000000000000000000000000000000000000000000000000000000098FF08
:4D68F90000000000000000000000000000000000000000000000000000000000000000000000000000000000000000000000000000000000000000000000000000000000000000000000000000000098FFBB
:4D69460000000000000000000000000000000000000000000000000000000000000000000000000000000000000000000000000000000000000000000000000000000000000000000000000000000098FF6D
:4D69930000000000000000000800000000100000000009000000040000000000000000000000000000000000000000000000000000000000000000000000000000000000000000000000000000000010FB87
:4D69E000040020000000000080000000020000000001200000000008000000008000000000000000000000000000000000000000000000000000000000000000000000000000000000000000000000C8FB58
:4D6A2D00000000000000000000000000000000000000000000004000000000000000000000000000000000000000000000000000000000000000000000000000000000000000000000000000000000D8FB09
:4D6A7A0000000008000000000000040000000000000000000000000000010000010000000000000000000000000000000000000000000000000000000000000000000000000000000000000000000090FB36
:4D6AC700000000000000000000080000040000000010000200000000010000000000000000000000000000000000000000000000000000000000000000000000000000000000000000000000000000C0F9AA
:4D6B140000000000000000020000000000080000000009001000000200000000000000000000000000000000000000000000000000000000000000000000000000000000000000000000000000000028FDEA
:4D6B6100000000000000000040000000000000040000000002000000000000000000000000000000000000000000000000000000000000000000000000000000000000000000000000000000000000F8FFAA
:4D6BAE00000000000000000000000100080000000004004000000200000000200000000000000000000000000000000000000000000000000000000000000000000000000000000000000000000000B0F883
:4D6BFB00000000240020100000400600020900000080041000400000000041000104000000000000000000000000000000000000000000000000000000000000000000000000000000000000000000C8FCCA
:4D6C4800080000000080001008000000000100000080801000004041180840802000000000000000000000000000000000000000000000000000000000000000000000000000000000000000000000F0F8E5
:4D6C950000000000000000000000000000000000100000000000000000000000000000000000000000000000000000000000000000000000000000000000000000000000000000000000000000000088FE1C
:4D6CE20000000020000000000408000000000000000000000000848000000200000C00000000000000000000000000000000000000000000000000000000000000000000000000000000000000000090FB9C
:4D6D2F0010000400000000000000000000000000000000010000020000000000080000000000000000000000000000000000000000000000000000000000000000000000000000000000000000000040FCBC
:4D6D7C0000000000000000000000020000000000000000004000010000000001000000000000000000000000000000000000000000000000000000000000000000000000000000000000000000000088F905
:4D6DC90000000000000000000000000000000000000440000000000000000000000000000000000000000000000000000000000000000000000000000000000000000000000000000000000000000098FFA2
:4D6E160000001000000000000000000000000000000000000000080001000000000000000000000000000000000000000000000000000000000000000000000000000000000000000000000000000000FF17
:4D6E6300200000200200000800000000080000010000420000084100000440000008000000000000000000000000000000000000000000000000000000000000000000000000000000000000000000A0FB1D
:4D6EB00018001000000200000082100004000010000200000000000000000000000000000000000000000000000000000000000000001000000000000000000000000000000000000000000000000060F85B
:4D6EFD00403004100104000440000A0003008004800022000088000100024000001000000000000000000000000000000000000000001000000000000000000000000000000000000000000000000018FC49
:4D6F4A00004010001000001804A3000008800020040E00220800A14500080001000000000000000000000000000000000000000000000000000000000000000000000000000000000000000000000000FB0D
:4D6F970000200800000000100881000000400000800000201000410000000000000000000000000000000000000000000000000000000000000000000000000000000000000000000000000000000010FFAC
:4D6FE400000000000000000480000000040000082002000000000020000480000000000000000000000000000000000000000000000000000000000000000000000000000000000000000000000000D0FB3F
:4D70310000000000000002000000000000000000000000000000000000200000000000000000000000000000000000000000000000000000000000000000000000000000000000000000000000000098FF59
:4D707E0000000000000000000000000000000000000000000000000000000000001000000000000000000000000000000000000000000000000000000000000000000000000000000000000000000098FE1F
:4D70CB0000000000000000000000000000000000000000001000080400000000040000000000000000000000000000000000000000000000000000000000000000000000000000000000000000000050FA0E
:4D711800000000000000000000000000000000000000000000000000A00000000800000000000000000000000000000000000000000000000000000000000000000000000000000000000000000000B0FFD3
:4D716500040000000000000000000000000200000000000001000000000000000000000000000000000000000000000000000000000000000000000000000000000000000000000000000000000000C8F915
:4D71B20000000000000000000000000000000000000010000000000000000000000000000000000000000000000000000000000000000000000000000000000000000000000000000000000000000088FFF9
:4D71FF0000000000000000000000000000000000000000000000000000000000000000000000000000000000000000000000000000000000000000000000000000000000000000000000000000000098FFAC
:4D724C00020000000000000000000000000000000000000000000000000000000000000000000000000000000000000000000000000000000000000000000000000000000000000000000000000000B8FD3E
:4D729900000000000080000000040000000000000001000000000008000800834000000000000000000000000000000000000000000000000000000000000000000000000000000000000000000000B8FC9C
:4D72E600000000000000000000000000001000000002400002000020000000000000000000000000000000000000000000000000000000000000000000000000000000000000000000000000000000C8FC23
:4D733300000000000000000000000000000000000000000000000000000000048000000000000000000000000000000000000000000000000000000000000000000000000000000000000000000000D0FBBE
:4D73800000000000000000000000000000000000000000000000000000000000000000000000000000000000000000000000000000000000000000000000000000000000000000000000000000000098FF29
