:020000040000FA
:2F000000FFFF627D16FFFFFFFFFFFFFFFFFFFFFFFFFFFFFFFFFFFFFFFFFFFFFFFFFFFFFFFFFFFFFFFFFFFFFFFFFFFFFFFFFFFF08
:2F002F0000000004000000000004000400000000000000040000000000040000000000000000000000000000000002000000FA92
:2F005E00000000000000000000000000000000000000000000000000000000000000000000000000000000000200000000009CD5
:2F008D0000000000000000000000000000000000000000000000000000000000000000000000000000000000020002000000BC84
:2F00BC0000000A54024002400A54025002400A440A44025002400A44025002400A4402400240024002400240004000400080B1E6
:2F00EB00000002420240024002618240024006400A4002640240024002420240024002400240024002400240024002400080EE39
:2F011A000000024000000000024000400000020002000040000002000040000002000000000000000000000002000200000098CE
:2F01490000000240024002400240024002400240024002400240024002400240024002400240024002400240004000400000BC65
:2F01780000000822024002404400021002400042804002000240184002100240044202400240024002400240004000400000DD33
:2F01A70000000000000000000000000000000000000000000000000000000000000000000000000000000000000000000040DA0F
:2F01D600000000000000000000000000000000000000000000000000000000000000000000000000000000000000000000009E5C
:2F020500000000000000000000000000000000000000000000000000000000000000000000000000000000000000000000009E2C
:2F02340002000000000000000000000000000000000000000000000000000000000000000000000000000000000000000000BEDB
:2F02630002000000000000000000000000000000000000000000000000000000000000000000000000000000000000000040FA30
:2F02920000000000000000000000000000000000000000000000000000000000000000000000000000000000000000000040DA23
:2F02C10002000000000000000000000000000000000000000000000000000000000000000000000000000000000000000000BE4E
:2F02F00002000000000000000000000000000000000000000000000000000000000000000000000000000000000000000000BE1F
:2F031F0000000000000000000000000000000000000000000000000000000000000000000000000000000000000000000040DA95
:2F034E00000000000000000000000000000000000000000000000000000000000000000000000000000000000000000000009EE2
:2F037D00000000000000000000000000000000000000000000000000000000000000000000000000000000000000000000009EB3
:2F03AC000A040000000000000000000000000000000000000000000000000000000000000000000000000000000000000080B2E2
:2F03DB0002000000000000000000000000000000000000000000000000000000000000000000000000000000000000000040FAB7
:2F040A0002000000000000000000000000000000000000000000000000000000000000000000000000000000000000000040FA87
:2F04390002000000000000000000000000000000000000000000000000000000000000000000000000000000008000000000B65C
:2F046800440000000000000000000000000000000000000000000000000000000000000000000000000000000040000000009E43
:2F049700000000000000000000000000000000000000000000000000000000000000000000000000000000000000000000009E98
:2F04C600000000000000000000000000000000000000000000000000000000000000000000000000000000000000000000009E69
:2F04F500000000000000000000000000000000000000000000000000000000000000000000000000000000000000000000009E3A
:2F05240002000000000000000000000000000000000000000000000000000000000000000000000000000000000000000040FA6C
:2F05530002000000000000000000000000000000000000000000000000000000000000000000000000000000000000000040FA3D
:2F058200000000000000000000000000000000000000000000000000000000000000000000000000000000000000000000009EAC
:2F05B10002000000000000000000000000000000000000000000000000000000000000000000000000000000000000000040FADF
:2F05E00002000000000000000000000000000000000000000000000000000000000000000000000000000000000000000040FAB0
:2F060F0000000000000000000000000000000000000000000000000000000000000000000000000000000000000000000040DAA2
:2F063E00000000000000000000000000000000000000000000000000000000000000000000000000000000000000000000009EEF
:2F066D00000000000000000000000000000000000000000000000000000000000000000000000000000000000000000000009EC0
:2F069C000A040000000000000000000000000000000000000000000000000000000000000000000000000000000000000080B2EF
:2F06CB000A0000000000000000000000000000000000000000000000000000000000000000000000000000000000000000C0F244
:2F06FA0002000000000000000000000000000000000000000000000000000000000000000000000000000000000000000040FA95
:2F07290002000000000000000000000000000000000000000000000000000000000000000000000000000000000000000000BEE1
:2F0758000008000000000000000000000000000000000000000000000000000000000000000000000000000000000000000096D4
:2F07870000000000000000000000000000000000000000004060030000000000000000000000000000000000000000000000FFA1
:2F07B600000000000000000000000000000000000000000000000300000000000000000000000000000000000000000000009D74
:2F07E500000000000000000000000000000000000000000000000000000000000000000000000000000000000000000000009E47
:2F08140002000000000000000000000000000000000000000040080100000000000000000000000000000000000000000040A783
:2F08430002000000000000000000000000000000000000000000000000000000000000000000000000000000000000000040FA4A
:2F087200000000000000000000000000000000000000000000000000000000000000000000000000000000000000000000009EB9
:2F08A10002000000000000000000000000000000000000000040000000000000000000000000000000000000000000000040BEE8
:2F08D00002000000000000000000000000000000000000000000000000000000000000000000000000000000000000000040FABD
:2F08FF0000000000000000000000000000000000000000004060030000000000000000000000000000000000000000000040BB2C
:2F092E00000000000000000000000000000000000000000000000300000000000000000000000000000000000000000000009DFA
:2F095D00000000000000000000000000000000000000000000000000000000000000000000000000000000000000000000009ECD
:2F098C0002000000000000000000000000000000000000000040480000000000000000000000000000000000000000000000B200
:2F09BB0002000000000000000000000000000000000000000000000000000000000000000000000000000000000000000040FAD1
:2F09EA0000000000000000000000000000000000000000000000000000000000000000000000000000000000000000000040DAC4
:2F0A190002000000000000000000000000000000000000000040000000000000000000000000000000000000000000000000FA72
:2F0A480002000000000000000000000000000000000000000000000000000000000000000000000000000000000000000000BEBF
:2F0A770000620700000000000000000000000000000000004060070000000000000000000000000000000000000000000000EE52
:2F0AA60000000300000000000000000000000000000000000000030000000000000000000000000000000000000000000000AE6D
:2F0AD500000000000000000000000000000000000000000000000000000000000000000000000000000000000000000000009E54
:2F0B040002404000000000000000000000000000000000000040000200000000000000000000000000000000000000000040D8E6
:2F0B330002000000000000000000000000000000000000000000000000000000000000000000000000000000000000000040FA57
:2F0B6200000000000000000000000000000000000000000000000000000000000000000000000000000000000000000000009EC6
:2F0B9100024000000000000000000000000000000000000000400000000000000000000000000000000000800000000000C0FE75
:2F0BC00002000000000000000000000000000000000000000000000000000000000000000000000000000040000000000040BEC6
:2F0BEF0000400100000000000000000000000000000000004060030000000000000000000000000000000000000000000040EAC9
:2F0C1E00000001000000000000000000000000000000000000000300000000000000000000000000000000000000000000008C17
:2F0C4D00000000000000000000000000000000000000000000000000000000000000000000000000000000000000000000009EDA
:2F0C7C0002400401000000000000000000000000000000000040280000000000000000000000000000000000000000000000C6D4
:2F0CAB0002000400000000000000000000000000000000000000000000000000000000000000000000000000000000000040BE16
:2F0CDA0000000000000000000000000000000000000000000000000000000000000000000000000000000000000000000040DAD1
:2F0D090002400200000000000000000000000000000000000040000000000000000000000000000000000000000000000000989F
:2F0D380002004100000000000000000000000000000000000000000000000000000000000000000000000000000000000000AB9E
:2F0D670000400900000000000000000000410300804003004060070000000000000000000000000000000000000000610700F20C
:2F0D960000000100000000000000000000000000000000000000030000000000000000000000000000000000000000000300BF68
:2F0DC500000000000000000000000000000003000000030000000000000000000000000000000000000000000000000000009D5C
:2F0DF4000A4400020000000000000000006000000060000000400004000000000000000000000000000000000000004040C0B488
:2F0E23000A0004000000000000000000402000004020000000000000000000000000000000000000000000000000000000C09082
:2F0E520002000000000000000000000000000000000000000000000000000000000000000000000000000000000000000000BEB1
:2F0E810002400200000000000000000000C000000040000000400000000000000000000000000000000000000080004000C0D866
:2F0EB000000441000000000000000000004000000000000000000000000000000000000000000000000000000040000000408F7F
:2F0EDF0080400700000000000000000000000000000000004060030000000000000000000000000000000000000080400700FFB4
:2F0F0E00000003000000000000000000000000000000000000000300000000000000000000000000000000000000000003009D0E
:2F0F3D00000000000000000000000000000000000000000000000000000000000000000000000000000000000000000000009EE7
:2F0F6C0002604000000000000000000000000000000000000040440000000000000000000000000000000000000000504040CA96
:2F0F9B0002000000000000000000000000000000000000000000000000000000000000000000000000000000000000000040FAEB
:2F0FCA0000400040004000400040004000400040004000400040004000400040004000400040004000400040004000400000DE9A
:2F0FF90002000000000000000000000000000000008000800000000000000000000000000000000000000000000000800040F215
:2F10280002000000000000000000000000000000004000400000000000000000000000000000000000000000000000400040FE99
:2F105700000000000000000000000000000000000000000000000000000000000000000000000000000000000000000000009ECC
:2F108600000000000000000000000000000000000000000000000000000000000000000000000000000000000000000000009E9D
:2F10B50000000000000000000000000000000000000000000000000000000000000000000000000000000000000400020000D82E
:2F10E400000000000000000000000000000000000000000000000000000000000000000000000000000000000000000000009E3F
:2F11130010000000000000000000000000000000000000000000080000000000000000000000000000000000000000000004C7CA
:2F11420000000000000000000000000000000000000000400010000000000000000000000000000000000000000000000000CF5F
:2F117100000000000000000000000000000000000000000000000000000000000000000000000000000000000080800000809639
:2F11A000000000200000000000000000000000000000000000000000000000000000000000000000000000000000000000209E42
:2F11CF00001010100000000000100010100000101010001010000010001000000010000000000000000000000000000010009F62
:2F11FE00000000000000000000000000000000000000000000000000000000000000000000000000000000000000000000009E24
:2F122D0000100000000000000000000000880000400000000000000000000000000000000000000000000000000000000080CE6C
:2F125C00000000000000000000000000000000000000000000000000000000000000000000000000000000000000000000009EC5
:2F128B00000000000000000000000000000000000000000000000000000000000000000000000000000000000000000000009E96
:2F12BA00000000000000000000000000000000000000000000000000000000000000000000000000000000000000000000009E67
:2F12E900000000000000000000000000000000000000000000000002000000000000000000000000000000000000000002009E34
:2F13180000010000000000000000800000000000000000000000004000000000000000000000000000000000000000000082B3B0
:2F13470010400008000000000000000000010004000100000021000400000000000800000000000000000000000000010020C209
:2F137600000000000000000000000000000000000000000000000000000000000000000000000000000000000000000000009EAA
:2F13A500000000000000000000000000000000000000000000000000000000000000000000000000000000000000000000009E7B
:2F13D40000000000000000000000000000000000000000000000080000000000000000000000000000000000000000000000964C
:2F14030000000000000000000002000000000000000000000010000000000000000000000000000000000000000000000000AFF9
:2F143200000000000000000000000000000000000000000000000000000000000000000000000000000000000000000000009EED
:2F146100000000000000000000000000000000000000000000000000000000000000000000000000000000000000000000009EBE
:2F149000000000000000000000000000000000000000000000000000000000000000000000000000000000000000000000009E8F
:2F14BF00000000000000000000000000000000000000000000000000000000000000000000000000000000000000000000009E60
:2F14EE00000000000000000000000000000000000000000000000000000000000000000000000000000000000000000000009E31
:2F151D0000020000000000001000000000000000000000000000100000000000000000000000000000000000200000000000ADB0
:2F154C00000000000000000000000000000000000000000000000000000000000000000000000000000000000000000000009ED2
:2F157B00000000000000000000000000000000000000000000000000000000000000000000000000000000000000000000009EA3
:2F15AA0000040010000000000000000000000000200002000201000000100000000000000000000000000000000000010000A820
:2F15D900000000000000000000000000000000000000000000000000000000000000000000000000000000000000000000009E45
:2F160800000000080000000000000000000000000000000000000000000000000000000000000000000000000000000000C0D219
:2F163700000000000000000000000000000000000000000000000000000000000000000000000000000000000000000000009EE6
:2F166600000000000000000000000000000000000000000000000000000000000000000000000000000000000000000000009EB7
:2F169500000000000000000000000000000000000000000000000000000000000000000000000000000000000000000000009E88
:2F16C40002000000000000000000000000000000000000000000000000000000000000000000000000000000000000000040FABB
:2F16F30002000000000000000000000000000000000000000000000000000000000000000000000000000000000000000040FA8C
:2F172200000000000000000000000000000000000000000000000000000000000000000000000000000000000000000000009EFA
:2F17510002000000000000000000000000000000000000000000000000000000000000000000000000000000000000000040FA2D
:2F17800002000000000000000000000000000000000000000000000000000000000000000000000000000000000000000040FAFE
:2F17AF00000000000000000000000000000000000000000000000000000000000000000000000000000000000000000000009E6D
:2F17DE00000000000000000000000000000000000000000000000000000000000000000000000000000000000000000000009E3E
:2F180D00000000000000000000000000000000000000000000000000000000000000000000000000000000000000000000009E0E
:2F183C0002000000000000000000000000000000000000000000000000000000000000000000000000000000000000000040FA41
:2F186B0002000000000000000000000000000000000000000000000000000000000000000000000000000000000000000040FA12
:2F189A00000000000000000000000000000000000000000000000000000000000000000000000000000000000000000000009E81
:2F18C90002000000000000000000000000000000000000000000000000000000000000000000000000000000000000000040FAB4
:2F18F80002000000000000000000000000000000000000000000000000000000000000000000000000000000000000000040FA85
:2F192700000000000000000000000000000000000000000000000000000000000000000000000000000000000000000000009EF3
:2F195600000000000000000000000000000000000000000000000000000000000000000000000000000000000000000000009EC4
:2F198500000000000000000000000000000000000000000000000000000000000000000000000000000000000000000000009E95
:2F19B40002000000000000000000000000000000000000000000000000000000000000000000000000000000000000000040FAC8
:2F19E30002000000000000000000000000000000000000000000000000000000000000000000000000000000000000000040FA99
:2F1A1200000000000000000000000000000000000000000000000000000000000000000000000000000000000000000000009E07
:2F1A410002000000000000000000000000000000000000000000000000000000000000000000000000000000000000000040FA3A
:2F1A700002000000000000000000000000000000000000000000000000000000000000000000000000000000000000000040FA0B
:2F1A9F00000000000000000000000000000000000000000000000000000000000000000000000000000000000000000000009E7A
:2F1ACE00000000000000000000000000000000000000000000000000000000000000000000000000000000000000000000009E4B
:2F1AFD00000000000000000000000000000000000000000000000000000000000000000000000000000000000000000000009E1C
:2F1B2C0002000000000000000000000000000000000000000000000000000000000000000000000000000000000000000040FA4E
:2F1B5B0002000000000000000000000000000000000000000000000000000000000000000000000000000000000000000040FA1F
:2F1B8A00000000000000000000000000000000000000000000000000000000000000000000000000000000000000000000009E8E
:2F1BB90002000000000000000000000000000000000000000000000000000000000000000000000000000000000000000040FAC1
:2F1BE80002000000000000000000000000000000000000000000000000000000000000000000000000000000000000000040FA92
:2F1C1700000000000000000000000000000000000000000000000000000000000000000000000000000000000000000000009E00
:2F1C4600000000000000000000000000000000000000000000000000000000000000000000000000000000000000000000009ED1
:2F1C7500000000000000000000000000000000000000000000000000000000000000000000000000000000000000000000009EA2
:2F1CA40002000000000000000000000000000000000000000000000000000000000000000000000000000000000000000040FAD5
:2F1CD30002000000000000000000000000000000000000000000000000000000000000000000000000000000000000000040FAA6
:2F1D0200000000000000000000000000000000000000000000000000000000000000000000000000000000000000000000009E14
:2F1D310002000000000000000000000000000000000000000000000000000000000000000000000000000000000000000040FA47
:2F1D600002000000000000000000000000000000000000000000000000000000000000000000000000000000000000000040FA18
:2F1D8F00000000000000000000000000000000000000000000000000000000000000000000000000000000000000000000009E87
:2F1DBE00000000000000000000000000000000000000000000000000000000000000000000000000000000000000000000009E58
:2F1DED00000000000000000000000000000000000000000000000000000000000000000000000000000000000000000000009E29
:2F1E1C0002000000000000000000000000000000000000000000000000000000000000000000000000000000000000000040FA5B
:2F1E4B0002000000000000000000000000000000000000000000000000000000000000000000000000000000000000000040FA2C
:2F1E7A00000000000000000000000000000000000000000000000000000000000000000000000000000000000000000000009E9B
:2F1EA90002000000000000000000000000000000000000000000000000000000000000000000000000000000000000000040FACE
:2F1ED80002000000000000000000000000000000000000000000000000000000000000000000000000000000000000000040FA9F
:2F1F0700000000000000000000000000000000000000000000000000000000000000000000000000000000000000000000009E0D
:2F1F3600000000000000000000000000000000000000000000000000000000000000000000000000000000000000000000009EDE
:2F1F6500000000000000000000000000000000000000000000000000000000000000000000000000000000000000000000009EAF
:2F1F940002000000000000000000000000000000000000000000000000000000000000000000000000000000000000000040FAE2
:2F1FC30002000000000000000000000000000000000000000000000000000000000000000000000000000000000000000040FAB3
:2F1FF200000000000000000000000000000000000000000000000000000000000000000000000000000000000000000000009E22
:2F20210002000000000000000000000000000000000000000000000000000000000000000000000000000000000000000040FA54
:2F20500002000000000000000000000000000000000000000000000000000000000000000000000000000000000000000040FA25
:2F207F00000000000000000000000000000000000000000000000000000000000000000000000000000000000000000000009E94
:2F20AE00000000000000000000000000000000000000000000000000000000000000000000000000000000000000000000009E65
:2F20DD00000000000000000000000000000000000000000000000000000000000000000000000000000000000000000000009E36
:2F210C0002000000000000000000000000000000000000000000000000000000000000000000000000000000000000000040FA68
:2F213B0002000000000000000000000000000000000000000000000000000000000000000000000000000000000000000040FA39
:2F216A00000000000000000000000000000000000000000000000000000000000000000000000000000000000000000000009EA8
:2F21990002000000000000000000000000000000000000000000000000000000000000000000000000000000000000000040FADB
:2F21C80002000000000000000000000000000000000000000000000000000000000000000000000000000000000000000040FAAC
:2F21F700000000000000000000000000000000000000000000000000000000000000000000000000000000000000000000009E1B
:2F222600000000000000000000000000000000000000000000000000000000000000000000000000000000000000000000009EEB
:2F225500000000000000000000000000000000000000000000000000000000000000000000000000000000000000000000009EBC
:2F22840002000000000000000000000000000000000000000000000000000000000000000000000000000000000000000040FAEF
:2F22B30002000000000000000000000000000000000000000000000000000000000000000000000000000000000000000040FAC0
:2F22E200000000000000000000000000000000000000000000000000000000000000000000000000000000000000000000009E2F
:2F23110002000000000000000000000000000000000000000000000000000000000000000000000000000000000000000040FA61
:2F23400002000000000000000000000000000000000000000000000000000000000000000000000000000000000000000040FA32
:2F236F00000000000000000000000000000000000000000000000000000000000000000000000000000000000000000000009EA1
:2F239E00000000000000000000000000000000000000000000000000000000000000000000000000000000000000000000009E72
:2F23CD00000000000000000000000000000000000000000000000000000000000000000000000000000000000000000000009E43
:2F23FC0002000000000000000000000000000000000000000000000000000000000000000000000000000000000000000040FA76
:2F242B0002000000000000000000000000000000000000000000000000000000000000000000000000000000000000000040FA46
:2F245A00000000000000000000000000000000000000000000000000000000000000000000000000000000000000000000009EB5
:2F24890002000000000000000000000000000000000000000000000000000000000000000000000000000000000000000040FAE8
:2F24B80002000000000000000000000000000000000000000000000000000000000000000000000000000000000000000040FAB9
:2F24E700000000000000000000000000000000000000000000000000000000000000000000000000000000000000000000009E28
:2F251600000000000000000000000000000000000000000000000000000000000000000000000000000000000000000000009EF8
:2F254500000000000000000000000000000000000000000000000000000000000000000000000000000000000000000000009EC9
:2F257400000000000000000000000000000000000000000000000000000000000000000000000000000000000000000000009E9A
:2F25A300000000000000000000000000000000000000000000000000000000000000000000000000000000000000000000009E6B
:2F25D200000000000000000000000000000000000000000000000000000000000000000000000000000000000000000000009E3C
:2F260100000000000000000000000000000000000000000000000000000000000000000000000000000000000000000000009E0C
:2F263000000000000000000000000000000000000000000000000000000000000000000000000000000000000000000000009EDD
:2F265F00000000000000000000000000000000000000000000000000000000000000000000000000000000000000000000009EAE
:2F268E00000000000000000000000000000000000000000000000000000000000000000000000000000000000000000000009E7F
:2F26BD00000000000000000000000000000000000000000000000000000000000000000000000000000000000000000000009E50
:2F26EC00000000000000000000000000000000000000000000000000000000000000000000000000000000000000000000009E21
:2F271B00000000000000000000000000000000000000000000000000000000000000000000000000000000000000000000009EF1
:2F274A00000000000000000000000000000000000000000000000000000000000000000000000000000000000000000000009EC2
:2F277900000000000000000000000000000000000000000000000000000000000000000000000000000000000000000000009E93
:2F27A800000000000000000000000000000000000000000000000000000000000000000000000000000000000000000000009E64
:2F27D700000000000000000000000000000000000000000000000000000000000000000000000000000000000000000000009E35
:2F280600000000000000000000000000000000000000000000000000000000000000000000000000000000000000000000009E05
:2F283500000000000000000000000000000000000000000000000000000000000000000000000000000000000000000000009ED6
:2F286400000000000000000000000000000000000000000000000000000000000000000000000000000000000000000000009EA7
:2F289300000000000000000000000000000000000000000000000000000000000000000000000000000000000000000000009E78
:2F28C200000000000000000000000000000000000000000000000000000000000000000000000000000000000000000000009E49
:2F28F100000000000000000000000000000000000000000000000000000000000000000000000000000000000000000000009E1A
:2F292000000000000000000000000000000000000000000000000000000000000000000000000000000000000000000000009EEA
:2F294F00000000000000000000000000000000000000000000000000000000000000000000000000000000000000000000009EBB
:2F297E00000000000000000000000000000000000000000000000000000000000000000000000000000000000000000000009E8C
:2F29AD00000000000000000000000000000000000000000000000000000000000000000000000000000000000000000000009E5D
:2F29DC00000000000000000000000000000000000000000000000000000000000000000000000000000000000000000000009E2E
:2F2A0B00000000000000000000000000000000000000000000000000000000000000000000000000000000000000000000009EFE
:2F2A3A00000000000000000000000000000000000000000000000000000000000000000000000000000000000000000000009ECF
:2F2A6900000000000000000000000000000000000000000000000000000000000000000000000000000000000000000000009EA0
:2F2A9800000000000000000000000000000000000000000000000000000000000000000000000000000000000000000000009E71
:2F2AC70000000000000000000000000000000000000000000000000000000000000000000000000000000000000000000040DAC6
:2F2AF600000000000000000000000000000000000000000000000000000000000000000000000000000000000000000000009E13
:2F2B2500000000000000000000000000000000000000000000000000000000000000000000000000000000000000000000009EE3
:2F2B540002000000000000000000000000000000000000000000000000000000000000000000000000000000000000000000BE92
:2F2B830002000000000000000000000000000000000000000000000000000000000000000000000000000000000000000040FAE7
:2F2BB20000000000000000000000000000000000000000000000000000000000000000000000000000000000000000000040DADA
:2F2BE10002000000000000000000000000000000000000000000000000000000000000000000000000000000000000000000BE05
:2F2C100002000000000000000000000000000000000000000000000000000000000000000000000000000000000000000000BED5
:2F2C3F00000000000000000000000000000000000000000000000000000000000000000000000000000000000000000000009EC8
:2F2C6E00000000000000000000000000000000000000000000000000000000000000000000000000000000000000000000009E99
:2F2C9D00000000000000000000000000000000000000000000000000000000000000000000000000000000000000000000009E6A
:2F2CCC000A0400000000000000000000000000000000000000000000000000000000000000000000000000000000000000C0F615
:2F2CFB0002000000000000000000000000000000000000000000000000000000000000000000000000000000000000000040FA6E
:2F2D2A0002000000000000000000000000000000000000000000000000000000000000000000000000000000000000000000BEBA
:2F2D590002000000000000000000000000000000000000000000000000000000000000000000000000000000000000000040FA0F
:2F2D8800040100000000000000000000000000000000000000000000000000000000000000000000000000000000000000409B3C
:2F2DB70000000000000000000000000000000000000000000000000000000000000000000000000000000000000000000040DAD3
:2F2DE600000000000000000000000000000000000000000000000000000000000000000000000000000000000000000000009E20
:2F2E1500000000000000000000000000000000000000000000000000000000000000000000000000000000000000000000009EF0
:2F2E44000A040000000000000000000000000000000000000000000000000000000000000000000000000000000000000080B21F
:2F2E73000A0000000000000000000000000000000000000000000000000000000000000000000000000000000000000000C0F274
:2F2EA20002000000000000000000000000000000000000000000000000000000000000000000000000000000000000000040FAC5
:2F2ED10002000000000000000000000000000000000000000000000000000000000000000000000000000000000000000000BE12
:2F2F0000000800000000000000000000000000000000000000000000000000000000000000000000000000000000000000009604
:2F2F2F00000000000000000000000000000000000000000000000000000000000000000000000000000000000000000000009ED5
:2F2F5E00000000000000000000000000000000000000000000000000000000000000000000000000000000000000000000009EA6
:2F2F8D00000000000000000000000000000000000000000000000000000000000000000000000000000000000000000000009E77
:2F2FBC000A0400000000000000000000000000000000000000000000000000000000000000000000000000000000000000C0F622
:2F2FEB0006000000000000000000000000000000000000000000000000000000000000000000000000000000000000000040BAB7
:2F301A0002000000000000000000000000000000000000000000000000000000000000000000000000000000000000000000BEC7
:2F30490002000000000000000000000000000000000000000000000000000000000000000000000000000000000000000040FA1C
:2F30780000080000000000000000000000000000000000000000000000000000000000000000000000000000000000000040D20F
:2F30A70000000000000000000000000000000000000000000000000000000000000000000000000000000000000000000040DAE0
:2F30D600000000000000000000000000000000000000000000000000000000000000000000000000000000000000000000009E2D
:2F310500000000000000000000000000000000000000000000000000000000000000000000000000000000000000000000009EFD
:2F3134000A040000000000000000000000000000000000000000000000000000000000000000000000000000000000000080B22C
:2F31630002000000000000000000000000000000000000000000000000000000000000000000000000000000000000000040FA01
:2F31920002000000000000000000000000000000000000000000000000000000000000000000000000000000000000000040FAD2
:2F31C10002000000000000000000000000000000000000000000000000000000000000000000000000000000000000000000BE1F
:2F31F00004080000000000000000000000000000000000000000000000000000000000000000000000000000000000000000D6CE
:2F321F00000000000000000000000000000000000000000000000000000000000000000000000000000000000000000000009EE2
:2F324E00000000000000000000000000000000000000000000000000000000000000000000000000000000000000000000009EB3
:2F327D00000000000000000000000000000000000000000000000000000000000000000000000000000000000000000000009E84
:2F32AC0002000000000000000000000000000000000000000000000000000000000000000000000000000000000000000040FAB7
:2F32DB0002000000000000000000000000000000000000000000000000000000000000000000000000000000000000000040FA88
:2F330A00000000000000000000000000000000000000000000000000000000000000000000000000000000000000000000009EF6
:2F33390002000000000000000000000000000000000000000000000000000000000000000000000000000000000000000040FA29
:2F33680002000000000000000000000000000000000000000000000000000000000000000000000000000000000000000040FAFA
:2F339700004001000000000000000000000000000000000000000000000000000000000000000000000000000000000000408BFB
:2F33C600000001000000000000000000000000000000000000000000000000000000000000000000000000000000000000008F48
:2F33F500000000000000000000000000000000000000000000000000000000000000000000000000000000000000000000009E0B
:2F3424000A440402000000000000000000000000000000000000000000000000000000000000000000000000000000000080960F
:2F34530002000400000000000000000000000000000000000000000000000000000000000000000000000000000000000040BE46
:2F34820002000000000000000000000000000000000000000000000000000000000000000000000000000000000000000040FADF
:2F34B10002400200000000000000000000000000000000000000000000000000000000000000000000000000000000000000DCCC
:2F34E00004044100000000000000000000000000000000000000000000000000000000000000000000000000000000000000CFA5
:2F350F0040400700000000000000000000000000000000000000000000000000000000000000000000000000000000000000ED19
:2F353E0000000300000000000000000000000000000000000000000000000000000000000000000000000000000000000000ADAE
:2F356D00000000000000000000000000000000000000000000000000000000000000000000000000000000000000000000009E91
:2F359C0002504000000000000000000000000000000000000000000000000000000000000000000000000000000000000040AE80
:2F35CB0002000000000000000000000000000000000000000000000000000000000000000000000000000000000000000040FA95
:2F35FA00000000000000000000000000000000000000000000000000000000000000000000000000000000000000000000009E04
:2F36290002400000000000000000000000000000000000000000000000000000000000000000000000000000000000000040BA36
:2F36580002000000000000000000000000000000000000000000000000000000000000000000000000000000000000000040FA07
:2F36870000540700000000000000000000000000000000004060030000000000000000000000000000000000000000000000DC3A
:2F36B60000000300000000000000000000000000000000000000030000000000000000000000000000000000000000000000AE31
:2F36E500000000000000000000000000000000000000000000000000000000000000000000000000000000000000000000009E18
:2F371400024040000000000000000000000000000000000000408400000000000000000000000000000000000000000000C0F68A
:2F37430002000000000000000000000000000000000000000000000000000000000000000000000000000000000000000040FA1B
:2F377200000000000000000000000000000000000000000000000000000000000000000000000000000000000000000000009E8A
:2F37A100024000000000000000000000000000000000000000400000000000000000000000000000008000000000000000C0F641
:2F37D00002000000000000000000000000000000000000000000000000000000000000000000000000400000000000000040BA8E
:2F37FF0002400100000000000000000000000000000000000000000000000000000000000000000000000000000000000040AB6D
:2F382E00000001000000000000000000000000000000000000000000000000000000000000000000000000000000000000008FDB
:2F385D00000000000000000000000000000000000000000000000000000000000000000000000000000000000000000000009E9E
:2F388C00004044000000000000000000000000000000000000000000000000000000000000000000000000000000000000009EEB
:2F38BB0000000400000000000000000000000000000000000000000000000000000000000000000000000000000000000000DA00
:2F38EA0000400040004000400040004000400040004000400040004000400040004000400040004000400040004000400000DE51
:2F39190000000200000000000000000000000000000000000000000000000000000000000000000000000000000000000000BCC1
:2F394800000041000000000000000000000000000000000000000000000000000000000000000000000000000000000000008B84
:2F397700000000000000000000000000000000000000000000000000000000000000000000000000000000000000000000009E83
:2F39A600000000000000000000000000000000000000000000000000000000000000000000000000000000000000000000009E54
:2F39D500000000000000000000000000000000000000000000000000000000000000000000000000000000000000000000009E25
:2F3A0400000000000000000000000000000000000000000000000000000000000000000000000000000000000000000000009EF5
:2F3A3300000000000000000000000000000000000000000000000000000000000000000000000000000000000000000000009EC6
:2F3A6200000000000000000000000000000000000000000000000000000000000000000000000000000000000000000000009E97
:2F3A9100000000000000000000000000000000000000000000000000000000000000000000000000000000000000000000009E68
:2F3AC000000000000000000000000000000000000000000000000000000000000000000000000000000000000000000000009E39
:2F3AEF00001010000000000000000000000000000000000010000000000000000000000000000000000000000000000000008EEA
:2F3B1E00000000000000000000000000000000000000000000000000000000000000000000000000000000000000000000009EDA
:2F3B4D00000000000000000000000000000000000000000000000000000000000000000000000000000000000000000000009EAB
:2F3B7C00000000000000000000000000000000000000000000000000000000000000000000000000000000000000000000009E7C
:2F3BAB0000080000000000000000000000000000000000000001000000000000000000000000000000000000000000000000865C
:2F3BDA00000000000000000000000000000000000000000000000000000000000000000000000000000000000000000000009E1E
:2F3C0900000000000000000000000000000000000000000000000000000000000000000000000000000000000000000000009EEE
:2F3C3800000000000000000000000000000000000000000000000000000000000000000000000000000000000000000000009EBF
:2F3C670008000000000000000000000000000000000000000000000000000000000000000000000000000000000000000090870F
:2F3C9600000000000000000000000000000000000000000000000000000000000000000000000000000000000000000000009E61
:2F3CC500000000000000000000000000000000000000000000000000000000000000000000000000000000000000000000009E32
:2F3CF400000000000000000000000000000000000000000000000000000000000000000000000000000000000000000000009E03
:2F3D2300000000000000000000000000000000000000000000000000000000000000000000000000000000000000000000009ED3
:2F3D5200000000000000000000000000000000000000000000000000000000000000000000000000000000000000000000009EA4
:2F3D8100000000000000000000000000000000000000000000000000000000000000000000000000000000000000000000009E75
:2F3DB000000000000000000000000000000000000000000000000000000000000000000000000000000000000000000000009E46
:2F3DDF00004000000000000000000000000000000000000000000000000000000000000000000000000000000000000000049ED3
:2F3E0E0000002000000000000000000000000000000000000000000000000000000000000000000000000000000000000004DC85
:2F3E3D00000000000000000000000000000000000000000000000000000000000000000000000000000000000000000000009EB8
:2F3E6C00000000000000000000000000000000000000000000000000000000000000000000000000000000000000000000009E89
:2F3E9B00000000000000000000000000000000000000000000000000000000000000000000000000000000000000000000009E5A
:2F3ECA0000000000000000000000000000000000000000000000200000000000000000000000000000800000000000000080B6F3
:2F3EF900000000000000000000000000000000000000000000000000000000000000000000000000000000000000000000009EFC
:2F3F2800000000040000000000000000000000000000000000000000000000000000000000000000000000000000000000409A8C
:2F3F570002000000000000000000000000000000000000000000000000000000000000000000000000000000000000000040FAFF
:2F3F8600000000000000000000000000000000000000000000000000000000000000000000000000000000000000000000009E6E
:2F3FB500000000000000000000000000000000000000000000000000000000000000000000000000000000000000000000009E3F
:2F3FE400000000000000000000000000000000000000000000000000000000000000000000000000000000000000000000009E10
:2F401300000000000000000000000000000000000000000000000000000000000000000000000000000000000000000000009EE0
:2F404200000000000000000000000000000000000000000000000000000000000000000000000000000000000000000000009EB1
:2F407100000000000000000000000000000000000000000000000000000000000000000000000000000000000000000000009E82
:2F40A000000000000000000000000000000000000000000000000000000000000000000000000000000000000000000000009E53
:2F40CF00000000000000000000000000000000000000000000000000000000000000000000000000000000000000000000009E24
:2F40FE00000000000000000000000000000000000000000000000000000000000000000000000000000000000000000000009EF5
:2F412D00000000000000000000000000000000000000000000000000000000000000000000000000000000000000000000009EC5
:2F415C0002000000000000000000000000000000000000000000000000000000000000000000000000000000000000000040FAF8
:2F418B0002000000000000000000000000000000000000000000000000000000000000000000000000000000000000000040FAC9
:2F41BA00000000000000000000000000000000000000000000000000000000000000000000000000000000000000000000009E38
:2F41E90002000000000000000000000000000000000000000000000000000000000000000000000000000000000000000040FA6B
:2F42180002000000000000000000000000000000000000000000000000000000000000000000000000000000000000000040FA3B
:2F42470000000000000000000000000000000000000000000000000000000000000000000000000000000000000000000040DA2E
:2F427600000000000000000000000000000000000000000000000000000000000000000000000000000000000000000000009E7B
:2F42A500000000000000000000000000000000000000000000000000000000000000000000000000000000000000000000009E4C
:2F42D40002000000000000000000000000000000000000000000000000000000000000000000000000000000000000000000BEFB
:2F43030002000000000000000000000000000000000000000000000000000000000000000000000000000000000000000040FA4F
:2F43320000000000000000000000000000000000000000000000000000000000000000000000000000000000000000000040DA42
:2F43610002000000000000000000000000000000000000000000000000000000000000000000000000000000000000000000BE6D
:2F43900002000000000000000000000000000000000000000000000000000000000000000000000000000000000000000000BE3E
:2F43BF00000000000000000000000000000000000000000000000000000000000000000000000000000000000000000000009E31
:2F43EE00000000000000000000000000000000000000000000000000000000000000000000000000000000000000000000009E02
:2F441D00000000000000000000000000000000000000000000000000000000000000000000000000000000000000000000009ED2
:2F444C000A0400000000000000000000000000000000000000000000000000000000000000000000000000000000000000C0F67D
:2F447B000A0000000000000000000000000000000000000000000000000000000000000000000000000000000000000000C0F256
:2F44AA0002000000000000000000000000000000000000000000000000000000000000000000000000000000000000000000BE23
:2F44D90002000000000000000000000000000000000000000000000000000000000000000000000000000000000000000040FA78
:2F45080000080000000000000000000000000000000000000000000000000000000000000000000000000000000000000040D26A
:2F453700000000000000000000000000000000000000000000000000000000000000000000000000000000000000000000009EB7
:2F456600000000000000000000000000000000000000000000000000000000000000000000000000000000000000000000009E88
:2F459500000000000000000000000000000000000000000000000000000000000000000000000000000000000000000000009E59
:2F45C40002000000000000000000000000000000000000000000000000000000000000000000000000000000000000000040FA8C
:2F45F30002000000000000000000000000000000000000000000000000000000000000000000000000000000000000000040FA5D
:2F462200000000000000000000000000000000000000000000000000000000000000000000000000000000000000000000009ECB
:2F46510002000000000000000000000000000000000000000000000000000000000000000000000000000000000000000040FAFE
:2F46800002000000000000000000000000000000000000000000000000000000000000000000000000000000000000000040FACF
:2F46AF00000000000000000000000000000000000000000000000000000000000000000000000000000000000000000000009E3E
:2F46DE00000000000000000000000000000000000000000000000000000000000000000000000000000000000000000000009E0F
:2F470D00000000000000000000000000000000000000000000000000000000000000000000000000000000000000000000009EDF
:2F473C000A0400000000000000000000000000000000000000000000000000000000000000000000000000000000000000C0F68A
:2F476B0006000000000000000000000000000000000000000000000000000000000000000000000000000000000000000040BA1F
:2F479A0002000000000000000000000000000000000000000000000000000000000000000000000000000000000000000000BE30
:2F47C90002000000000000000000000000000000000000000000000000000000000000000000000000000000000000000040FA85
:2F47F80000080000000000000000000000000000000000000000000000000000000000000000000000000000000000000040D278
:2F482700004001000000000000000000000000000000000000000000000000000000000000000000000000000000000000408B56
:2F485600000001000000000000000000000000000000000000000000000000000000000000000000000000000000000000008FA3
:2F488500000000000000000000000000000000000000000000000000000000000000000000000000000000000000000000009E66
:2F48B40002404800000000000000000000000000000000000000000000000000000000000000000000000000000000000080FAD1
:2F48E30002000400000000000000000000000000000000000000000000000000000000000000000000000000000000000040BEA2
:2F49120000000000000000000000000000000000000000000000000000000000000000000000000000000000000000000040DA5C
:2F49410002400200000000000000000000000000000000000000000000000000000000000000000000000000000000000000DC27
:2F49700002004100000000000000000000000000000000000000000000000000000000000000000000000000000000000000AB2A
:2F499F0000400100000000000000000000000000000000000000000000000000000000000000000000000000000000000000CFD9
:2F49CE00000001000000000000000000000000000000000000000000000000000000000000000000000000000000000000008F2A
:2F49FD00000000000000000000000000000000000000000000000000000000000000000000000000000000000000000000009EED
:2F4A2C000A4444000000000000000000000000000000000000000000000000000000000000000000000000000000000000C0F613
:2F4A5B0002000400000000000000000000000000000000000000000000000000000000000000000000000000000000000040BE28
:2F4A8A0002000000000000000000000000000000000000000000000000000000000000000000000000000000000000000000BE3D
:2F4AB9000240020000000000000000000000000000000000000000000000000000000000000000000000000000000000004098B2
:2F4AE80004084100000000000000000000000000000000000000000000000000000000000000000000000000000000000040878B
:2F4B170000410700000000000000000000000000000000000000000000000000000000000000000000000000000000000040ECFB
:2F4B460000000300000000000000000000000000000000000000000000000000000000000000000000000000000000000000AD90
:2F4B7500000000000000000000000000000000000000000000000000000000000000000000000000000000000000000000009E73
:2F4BA40002604000000000000000000000000000000000000000000000000000000000000000000000000000000000000000DA66
:2F4BD30002000000000000000000000000000000000000000000000000000000000000000000000000000000000000000040FA77
:2F4C020000000000000000000000000000000000000000000000000000000000000000000000000000000000000000000040DA69
:2F4C310002400000000000000000000000000000000000000000000000000000000000000000000000000000000000000000FE14
:2F4C600002000000000000000000000000000000000000000000000000000000000000000000000000000000000000000000BE65
:2F4C8F0000540700000000000000000000000000000000000000000000000000000000000000000000000000000000000040F962
:2F4CBE0000000300000000000000000000000000000000000000000000000000000000000000000000000000000000000000AD17
:2F4CED00000000000000000000000000000000000000000000000000000000000000000000000000000000000000000000009EFA
:2F4D1C000A444000000000000000000000000000000000000000000000000000000000000000000000000000000000000080F664
:2F4D4B0002000000000000000000000000000000000000000000000000000000000000000000000000000000000000000040FAFD
:2F4D7A0002400040004000400040004000400040004000400040004000400040004000400040004000400040004000400040BA8E
:2F4DA90002000000000000000000000000000000000000000000000000000000000000000000000000000000000000000000BE1B
:2F4DD80004040000000000000000000000000000000000000000000000000000000000000000000000000000000000000000DACA
:2F4E0700000000000000000000000000000000000000000000000000000000000000000000000000000000000000000000009EDE
:2F4E3600000000000000000000000000000000000000000000000000000000000000000000000000000000000000000000009EAF
:2F4E6500000000000000000000000000000000000000000000000000000000000000000000000000000000000000000000009E80
:2F4E9400000000000000000000000000000000000000000000000000000000000000000000000000000000000000000000009E51
:2F4EC300000000000000000000000000000000000000000000000000000000000000000000000000000000000000000000009E22
:2F4EF200000000000000000000000000000000000000000000000000000000000000000000000000000000000000000000009EF3
:2F4F2100000000000000000000000000000000000000000000000000000000000000000000000000000000000000000000009EC3
:2F4F5000000000000000000000000000000000000000000000000000000000000000000000000000000000000000000000009E94
:2F4F7F00001010000000000000000000000000000000000000000000000000000000000000000000000000000000000000008F54
:2F4FAE00000000000000000000000000000000000000000000000000000000000000000000000000000000000000000000009E36
:2F4FDD00000000000000000000000000000000000000000000000000000000000000000000000000000000000000000000009E07
:2F500C00000000000000000000000000000000000000000000000000000000000000000000000000000000000000000000009ED7
:2F503B00000000000000000000000000000000000000000000000000000000000000000000000000000000000000000000009EA8
:2F506A00000000000000000000000000000000000000000000000000000000000000000000000000000000000000000000009E79
:2F509900000000000000000000000000000000000000000000000000000000000000000000000000000000000000000000009E4A
:2F50C800000000000000000000000000000000000000000000000000000000000000000000000000000000000000000000009E1B
:2F50F700000008000000000000000000000000000000000000000000000000000000000000000000000000000000000000908F63
:2F512600000000000000000000000000000000000000000000000000000000000000000000000000000000000000000000009EBC
:2F515500000000000000000000000000000000000000000000000000000000000000000000000000000000000000000000009E8D
:2F518400000000000000000000000000000000000000000000000000000000000000000000000000000000000000000000009E5E
:2F51B30000400000000000000000000000000000000000000000000000000000000000000000000000000000000000000002FE8D
:2F51E200000000000000000000000000000000000000000000000000000000000000000000000000000000000000000000009E00
:2F521100000000000000000000000000000000000000000000000000000000000000000000000000000000000000000000009ED0
:2F524000000000000000000000000000000000000000000000000000000000000000000000000000000000000000000000009EA1
:2F526F0000040000000000000000000000000000000000000000000000000000000000000000000000000000000000000002BA50
:2F529E0000002000000000000000000000000000000000000000000000000000000000000000000000000000000000000004DCE1
:2F52CD00000000000000000000000000000000000000000000000000000000000000000000000000000000000000000000009E14
:2F52FC00000000000000000000000000000000000000000000000000000000000000000000000000000000000000000000009EE5
:2F532B00000000000000000000000000000000000000000000000000000000000000000000000000000000000000000000009EB5
:2F535A00000000000000000000000000000000000000000000000000000000000000000000000000000000000000000000009E86
:2F538900000000000000000000000000000000000000000000000000000000000000000000000000000000000000000000009E57
:2F53B800000000000000000000000000000000000000000000000000000000000000000000000000000000000000000000009E28
:2F53E700000000000000000000000000000000000000000000000000000000000000000000000000000000000000000000009EF9
:2F541600000000000000000000000000000000000000000000000000000000000000000000000000000000000000000000009EC9
:2F544500000000000000000000000000000000000000000000000000000000000000000000000000000000000000000000009E9A
:2F54740002000000000000000000000000000000000000000000000000000000000000000000000000000000000000000040FACD
:2F54A30002000000000000000000000000000000000000000000000000000000000000000000000000000000000000000040FA9E
:2F54D200000000000000000000000000000000000000000000000000000000000000000000000000000000000000000000009E0D
:2F55010002000000000000000000000000000000000000000000000000000000000000000000000000000000000000000040FA3F
:2F55300002000000000000000000000000000000000000000000000000000000000000000000000000000000000000000040FA10
:2F555F00000000000000000000000000000000000000000000000000000000000000000000000000000000000000000000009E7F
:2F558E00000000000000000000000000000000000000000000000000000000000000000000000000000000000000000000009E50
:2F55BD00000000000000000000000000000000000000000000000000000000000000000000000000000000000000000000009E21
:2F55EC0002000000000000000000000000000000000000000000000000000000000000000000000000000000000000000040FA54
:2F561B0002000000000000000000000000000000000000000000000000000000000000000000000000000000000000000040FA24
:2F564A00000000000000000000000000000000000000000000000000000000000000000000000000000000000000000000009E93
:2F56790002000000000000000000000000000000000000000000000000000000000000000000000000000000000000000040FAC6
:2F56A80002000000000000000000000000000000000000000000000000000000000000000000000000000000000000000040FA97
:2F56D700000000000000000000000000000000000000000000000000000000000000000000000000000000000000000000009E06
:2F570600000000000000000000000000000000000000000000000000000000000000000000000000000000000000000000009ED6
:2F573500000000000000000000000000000000000000000000000000000000000000000000000000000000000000000000009EA7
:2F57640002000000000000000000000000000000000000000000000000000000000000000000000000000000000000000040FADA
:2F57930002000000000000000000000000000000000000000000000000000000000000000000000000000000000000000040FAAB
:2F57C200000000000000000000000000000000000000000000000000000000000000000000000000000000000000000000009E1A
:2F57F10002000000000000000000000000000000000000000000000000000000000000000000000000000000000000000040FA4D
:2F58200002000000000000000000000000000000000000000000000000000000000000000000000000000000000000000040FA1D
:2F584F00000000000000000000000000000000000000000000000000000000000000000000000000000000000000000000009E8C
:2F587E00000000000000000000000000000000000000000000000000000000000000000000000000000000000000000000009E5D
:2F58AD00000000000000000000000000000000000000000000000000000000000000000000000000000000000000000000009E2E
:2F58DC0002000000000000000000000000000000000000000000000000000000000000000000000000000000000000000040FA61
:2F590B0002000000000000000000000000000000000000000000000000000000000000000000000000000000000000000040FA31
:2F593A00000000000000000000000000000000000000000000000000000000000000000000000000000000000000000000009EA0
:2F59690002000000000000000000000000000000000000000000000000000000000000000000000000000000000000000040FAD3
:2F59980002000000000000000000000000000000000000000000000000000000000000000000000000000000000000000040FAA4
:2F59C700000000000000000000000000000000000000000000000000000000000000000000000000000000000000000000009E13
:2F59F600000000000000000000000000000000000000000000000000000000000000000000000000000000000000000000009EE4
:2F5A2500000000000000000000000000000000000000000000000000000000000000000000000000000000000000000000009EB4
:2F5A540002000000000000000000000000000000000000000000000000000000000000000000000000000000000000000040FAE7
:2F5A830002000000000000000000000000000000000000000000000000000000000000000000000000000000000000000040FAB8
:2F5AB200000000000000000000000000000000000000000000000000000000000000000000000000000000000000000000009E27
:2F5AE10002000000000000000000000000000000000000000000000000000000000000000000000000000000000000000040FA5A
:2F5B100002000000000000000000000000000000000000000000000000000000000000000000000000000000000000000040FA2A
:2F5B3F00000000000000000000000000000000000000000000000000000000000000000000000000000000000000000000009E99
:2F5B6E00000000000000000000000000000000000000000000000000000000000000000000000000000000000000000000009E6A
:2F5B9D00000000000000000000000000000000000000000000000000000000000000000000000000000000000000000000009E3B
:2F5BCC0002000000000000000000000000000000000000000000000000000000000000000000000000000000000000000040FA6E
:2F5BFB0002000000000000000000000000000000000000000000000000000000000000000000000000000000000000000040FA3F
:2F5C2A00000000000000000000000000000000000000000000000000000000000000000000000000000000000000000000009EAD
:2F5C590002000000000000000000000000000000000000000000000000000000000000000000000000000000000000000040FAE0
:2F5C880002000000000000000000000000000000000000000000000000000000000000000000000000000000000000000040FAB1
:2F5CB700000000000000000000000000000000000000000000000000000000000000000000000000000000000000000000009E20
:2F5CE600000000000000000000000000000000000000000000000000000000000000000000000000000000000000000000009EF1
:2F5D1500000000000000000000000000000000000000000000000000000000000000000000000000000000000000000000009EC1
:2F5D440002000000000000000000000000000000000000000000000000000000000000000000000000000000000000000040FAF4
:2F5D730002000000000000000000000000000000000000000000000000000000000000000000000000000000000000000040FAC5
:2F5DA200000000000000000000000000000000000000000000000000000000000000000000000000000000000000000000009E34
:2F5DD10002000000000000000000000000000000000000000000000000000000000000000000000000000000000000000040FA67
:2F5E000002000000000000000000000000000000000000000000000000000000000000000000000000000000000000000040FA37
:2F5E2F00000000000000000000000000000000000000000000000000000000000000000000000000000000000000000000009EA6
:2F5E5E00000000000000000000000000000000000000000000000000000000000000000000000000000000000000000000009E77
:2F5E8D00000000000000000000000000000000000000000000000000000000000000000000000000000000000000000000009E48
:2F5EBC0002000000000000000000000000000000000000000000000000000000000000000000000000000000000000000040FA7B
:2F5EEB0002000000000000000000000000000000000000000000000000000000000000000000000000000000000000000040FA4C
:2F5F1A00000000000000000000000000000000000000000000000000000000000000000000000000000000000000000000009EBA
:2F5F490002000000000000000000000000000000000000000000000000000000000000000000000000000000000000000040FAED
:2F5F780002000000000000000000000000000000000000000000000000000000000000000000000000000000000000000040FABE
:2F5FA700000000000000000000000000000000000000000000000000000000000000000000000000000000000000000000009E2D
:2F5FD600000000000000000000000000000000000000000000000000000000000000000000000000000000000000000000009EFE
:2F600500000000000000000000000000000000000000000000000000000000000000000000000000000000000000000000009ECE
:2F60340002000000000000000000000000000000000000000000000000000000000000000000000000000000000000000040FA01
:2F60630002000000000000000000000000000000000000000000000000000000000000000000000000000000000000000040FAD2
:2F609200000000000000000000000000000000000000000000000000000000000000000000000000000000000000000000009E41
:2F60C10002000000000000000000000000000000000000000000000000000000000000000000000000000000000000000040FA74
:2F60F00002000000000000000000000000000000000000000000000000000000000000000000000000000000000000000040FA45
:2F611F00000000000000000000000000000000000000000000000000000000000000000000000000000000000000000000009EB3
:2F614E00000000000000000000000000000000000000000000000000000000000000000000000000000000000000000000009E84
:2F617D00000000000000000000000000000000000000000000000000000000000000000000000000000000000000000000009E55
:2F61AC0002000000000000000000000000000000000000000000000000000000000000000000000000000000000000000040FA88
:2F61DB0002000000000000000000000000000000000000000000000000000000000000000000000000000000000000000040FA59
:2F620A00000000000000000000000000000000000000000000000000000000000000000000000000000000000000000000009EC7
:2F62390002000000000000000000000000000000000000000000000000000000000000000000000000000000000000000040FAFA
:2F62680002000000000000000000000000000000000000000000000000000000000000000000000000000000000000000040FACB
:2F629700000000000000000000000000000000000000000000000000000000000000000000000000000000000000000000009E3A
:2F62C600000000000000000000000000000000000000000000000000000000000000000000000000000000000000000000009E0B
:2F62F500000000000000000000000000000000000000000000000000000000000000000000000000000000000000000000009EDC
:2F632400000000000000000000000000000000000000000000000000000000000000000000000000000000000000000000009EAC
:2F635300000000000000000000000000000000000000000000000000000000000000000000000000000000000000000000009E7D
:2F638200000000000000000000000000000000000000000000000000000000000000000000000000000000000000000000009E4E
:2F63B100000000000000000000000000000000000000000000000000000000000000000000000000000000000000000000009E1F
:2F63E000000000000000000000000000000000000000000000000000000000000000000000000000000000000000000000009EF0
:2F640F00000000000000000000000000000000000000000000000000000000000000000000000000000000000000000000009EC0
:2F643E00000000000000000000000000000000000000000000000000000000000000000000000000000000000000000000009E91
:2F646D00000000000000000000000000000000000000000000000000000000000000000000000000000000000000000000009E62
:2F649C00000000000000000000000000000000000000000000000000000000000000000000000000000000000000000000009E33
:2F64CB00000000000000000000000000000000000000000000000000000000000000000000000000000000000000000000009E04
:2F64FA00000000000000000000000000000000000000000000000000000000000000000000000000000000000000000000009ED5
:2F652900000000000000000000000000000000000000000000000000000000000000000000000000000000000000000000009EA5
:2F655800000000000000000000000000000000000000000000000000000000000000000000000000000000000000000000009E76
:2F658700000000000000000000000000000000000000000000000000000000000000000000000000000000000000000000009E47
:2F65B600000000000000000000000000000000000000000000000000000000000000000000000000000000000000000000009E18
:2F65E500000000000000000000000000000000000000000000000000000000000000000000000000000000000000000000009EE9
:2F661400000000000000000000000000000000000000000000000000000000000000000000000000000000000000000000009EB9
:2F664300000000000000000000000000000000000000000000000000000000000000000000000000000000000000000000009E8A
:2F667200000000000000000000000000000000000000000000000000000000000000000000000000000000000000000000009E5B
:2F66A100000000000000000000000000000000000000000000000000000000000000000000000000000000000000000000009E2C
:2F66D000000000000000000000000000000000000000000000000000000000000000000000000000000000000000000000009EFD
:2F66FF00000000000000000000000000000000000000000000000000000000000000000000000000000000000000000000009ECE
:2F672E00000000000000000000000000000000000000000000000000000000000000000000000000000000000000000000009E9E
:2F675D00000000000000000000000000000000000000000000000000000000000000000000000000000000000000000000009E6F
:2F678C00000000000000000000000000000000000000000000000000000000000000000000000000000000000000000000009E40
:2F67BB00000000000000000000000000000000000000000000000000000000000000000000000000000000000000000000009E11
:2F67EA00000000000000000000000000000000000000000000000000000000000000000000000000000000000000000000009EE2
:2F681900000000000000000000000000000000000000000000000000000000000000000000000000000000000000000000009EB2
:2F684800000000000000000000000000000000000000000000000000000000000000000000000000000000000000000000009E83
:2F687700000000000000000000000000000000000000000000000000000000000000000000000000000000000000000000009E54
:2F68A600000000000000000000000000000000000000000000000000000000000000000000000000000000000000000000009E25
:2F68D500000000000000000000000000000000000000000000000000000000000000000000000000000000000000000000009EF6
:2F69040002000000000000000000000000000000000000000000000000000000000000000000000000000000000000000040FA28
:2F69330002000000000000000000000000000000000000000000000000000000000000000000000000000000000000000040FAF9
:2F696200000000000000000000000000000000000000000000000000000000000000000000000000000000000000000000009E68
:2F69910002000000000000000000000000000000000000000000000000000000000000000000000000000000000000000040FA9B
:2F69C00002000000000000000000000000000000000000000000000000000000000000000000000000000000000000000040FA6C
:2F69EF00000000000000000000000000000000000000000000000000000000000000000000000000000000000000000000009EDB
:2F6A1E00000000000000000000000000000000000000000000000000000000000000000000000000000000000000000000009EAB
:2F6A4D00000000000000000000000000000000000000000000000000000000000000000000000000000000000000000000009E7C
:2F6A7C000A0400000000000000000000000000000000000000000000000000000000000000000000000000000000000000C0F627
:2F6AAB0002000000000000000000000000000000000000000000000000000000000000000000000000000000000000000040FA80
:2F6ADA0002000000000000000000000000000000000000000000000000000000000000000000000000000000000000000000BECD
:2F6B090002000000000000000000000000000000000000000000000000000000000000000000000000000000000000000040FA21
:2F6B3800040400000000000000000000000000000000000000000000000000000000000000000000000000000000000000409E48
:2F6B6700000000000000000000000000000000000000000000000000000000000000000000000000000000000000000000009E61
:2F6B9600000000000000000000000000000000000000000000000000000000000000000000000000000000000000000000009E32
:2F6BC500000000000000000000000000000000000000000000000000000000000000000000000000000000000000000000009E03
:2F6BF40002000000000000000000000000000000000000000000000000000000000000000000000000000000000000000040FA36
:2F6C230002000000000000000000000000000000000000000000000000000000000000000000000000000000000000000040FA06
:2F6C5200000000000000000000000000000000000000000000000000000000000000000000000000000000000000000000009E75
:2F6C810002000000000000000000000000000000000000000000000000000000000000000000000000000000000000000040FAA8
:2F6CB00002000000000000000000000000000000000000000000000000000000000000000000000000000000000000000040FA79
:2F6CDF00000000000000000000000000000000000000000000000000000000000000000000000000000000000000000000009EE8
:2F6D0E00000000000000000000000000000000000000000000000000000000000000000000000000000000000000000000009EB8
:2F6D3D00000000000000000000000000000000000000000000000000000000000000000000000000000000000000000000009E89
:2F6D6C0002000000000000000000000000000000000000000000000000000000000000000000000000000000000000000040FABC
:2F6D9B0002000000000000000000000000000000000000000000000000000000000000000000000000000000000000000040FA8D
:2F6DCA00000000000000000000000000000000000000000000000000000000000000000000000000000000000000000000009EFC
:2F6DF90002000000000000000000000000000000000000000000000000000000000000000000000000000000000000000040FA2F
:2F6E280002000000000000000000000000000000000000000000000000000000000000000000000000000000000000000040FAFF
:2F6E5700000000000000000000000000000000000000000000000000000000000000000000000000000000000000000000009E6E
:2F6E8600000000000000000000000000000000000000000000000000000000000000000000000000000000000000000000009E3F
