:020000040000FA
:2B000000FFFF62FF2500FFFFFFFFFFFFFFFFFFFFFFFFFFFFFFFFFFFFFFFFFFFFFFFFFFFFFFFFFFFFFFFFFFFFFFFFFF76
:2B002B00601886611886611996C11D86617007D71D8601000000001886611886C11D866158866118866118866180F9CE
:2B005600401004411004E1100EA11004412884A2100401000000001004411004A110044138044110044110044100C335
:2B008100000000000000000000000000000000000000000000000000000000000000000000000000000000000080E7ED
:2B00AC00000000000000000000000000000000000000000000000000000000000000000000000000000000000080E7C2
:2B00D700000000000000800008000000000000000000000000000000000000000000000020000000000000000080C511
:2B010200000000000000A00002080000000000000000000000000000000000000000000028000000000000000080CDB3
:2B012D00000000000000000000000000000000000000000000000000000000000000000000000000000000000180F630
:2B015800000000000000000000000000000000000000000000000000000000000000000000000000000000000080E715
:2B018300000000000000000000000000000000000000000000000000000000000000000000000000000000000080E7EA
:2B01AE000200400000000000400000000000000000000000000000000000000000000000000100000000000080A0CEB5
:2B01D900080000000000000000000000000000000000000000000000000000000000000000000000000000001080EE75
:2B020400000000000000000000000000000000000080000000000000000000000000000000000000000000002088EDBA
:2B022F00000000000000000000000000000000000000000000000000000000000000000000000000000000000080E73D
:2B025A00000000000000000000000000000000000000000000000000000000000000000000000000000000000080E712
:2B028500000000000000000000000000000000000000000000000000000000000000000000000000000000000080E7E7
:2B02B000080000000000000000000000000000000000000000000000000000000000000000000000000000000080EFAC
:2B02DB00000000000000000000000000000000000000000000000000000000000000000000000000000000000080E791
:2B030600000000000000000080000000000000000000000000000000000000000000000000000000000000000000E765
:2B033100000020000000000000000000000000000020000000000000000000000000000080000000000000000880E772
:2B035C00000010000000000010000000000000000020000000000000000000000000000040000000000000000C00C525
:2B038700000000000000000082440000001080400000040000000000000000002000000000003100000000000080D60A
:2B03B200020000000000000000400000000000400000000000000000000000000000000000000000000000000008EDA9
:2B03DD00000010000000000010000000000000000000000000000000000000000000000000000000000000000080E76E
:2B040800000000000000000000040000001080000000040000000000000000002000000000000000000000000000E42D
:2B04330000000000000000008200000000000000000000000000000000000000000000000000B700000000000000BBAA
:2B045E00000000000000000000000000000000000000000000000000000000000000000000000000000000000080E70C
:2B048900020000000000000000000000000000000000000000000000000000000000000000000000000000000008ED51
:2B04B400800008800008800008800008800008800008000000000020000220000220000220000220000220000280E7BA
:2B04DF00800008800008800008800008800008800008000000000020000220000220000220000220000220000280E78F
:2B050A00000000010000000000020000000000000000040000000000000000000000000000040000000000008080ECCF
:2B05350002001E000000000026000000000000000026000000000000000000000000000018000000000000800188947A
:2B056000020000000000000000000000000000000000100000000000000000000000000000100000000000000008ED59
:2B058B000400041000000000040000000000000000240000000000000000000000000000D0000000000000002F90A0D6
:2B05B600020000000000000018000000000000000000000000000000000000000000000000000000000000004088F048
:2B05E1000200A0000000000018000000000000000000000000000000000000000000000000080000000000000008DE47
:2B060C0002000000000000001800000000000000001800000000000000000000000000000020000000000000040AA9BA
:2B063700000000000000000018000000000000000018000000000000000000000000000000000000000000000E0081D9
:2B066200000000040000000020000000000000000000000000000000000000000000000000040000000000008080CD78
:2B068D00000026000000000026000000000000000000000000000000000000000000000058000000000000800180A3FA
:2B06B800020010000000000008100000000000000000000000000000000000000000000000000000000000000288C69D
:2B06E30000001402000000002C000000000000000000000000000000000000000000000010400000000000001300BD8A
:2B070E00000020000000000000000000000000000000000000000000000000000000000000100000000000000080D53B
:2B073900000018000000000020100000000000000000000000000000000000000000000080000000000000000484C87D
:2B076400000010100000000008020000000000000000000000000000000000000000000080000000000000000080EC54
:2B078F00020030000000000038000000000000000000000000000000000000000000000000000000000000000C09B10F
:2B07BA00000020000000000020000000000000000000000000000000000000000000000000040000000000008480AF1D
:2B07E50000000600000000002E000000000000000000000000000000000000000000000018000000000000800100CD4F
:2B081000000000020000000000040000000000000000000000000000000000000000000000100000000000000480B56E
:2B083B0002002400000000002C0000000000000000000000000000000000000000000000D0000000000000000109B1B5
:2B086600020018000000000020000000000000000000000000000000000000000000000000000000000000000088D6CF
:2B089100040018000000000008000000000000000000000000000000000000000000000000080000000000000094ABD1
:2B08BC00020000000000000000020000000000000000000000000000000000000000000000200000000000000608A936
:2B08E700020000000000000038000000000000000000000000000000000000000000000000000000000000002688B24C
:2B091200020000010000000020000000000000000000000000000000000000000000000000040000000000004008CE7D
:2B093D00000006000000000026000000000000000000000000000000000000000000000018000000000000800180C585
:2B09680000000004000000000001000000000000000000000000000000000000000000006010000000000000008094DB
:2B0993000000240000000000040000000000000000000000000000000000000000000000F0000000000000000981B3E4
:2B09BE000200100000000000000000000000000000000000000000000000000000000000600000000000000010089BE9
:2B09E900020000020000000000100000000000000000000000000000000000000000000060000000000000000680F7F2
:2B0A1400040020000000000020000000000000000000000000000000000000000000000060000000000000000080850E
:2B0A3F000200000000000000100000000000000000000000000000000000000000000000600000000000000000809208
:2B0A6A00020000000000000000100000000000000000000000000000000000000000000000000000000000000080F5DA
:2B0A9500020026010000000026000000000000000006020000000000000000000000000078400000000000808988A0F6
:2B0AC000000000010000000000020000000000000038000000000000000000000000000000000000000000000C809BA9
:2B0AEB0000000400000000002400000000000000001C000000000000000000000000000070020000000000000500BC69
:2B0B16000000000400000000180000000000000000000000000000000000000000000000400000000000000000029EB8
:2B0B41000200200000000000180000000000000000000000000000000000000000000000E0020000000000000608D48B
:2B0B6C00020008000000000000000000000000000000000000000000000000000000000000080000000000000088EDD7
:2B0B97000400000200000000000000000000000000000000000000000000000000000000E0000000000000004010926B
:2B0BC200020000000000000020000000000000000000020000000000000000000000000000000000000000000008CD0F
:2B0BED0002002601000000002600000000000000000600000000000000000000000000001802000000000080010CCE13
:2B0C1800020000000000000000010000000000000000040000000000000000000000000000000000000000000888E832
:2B0C4300000004020000000004000000000000000034000000000000000000000000000070080000000000000580BC8F
:2B0C6E0000000000000000000000000000000000004000000000000000000000000000000020000000000000008083F8
:2B0C9900000000000000000000100000000000000000000000000000000000000000000000000000000000008800FF99
:2B0CC40002001800000000002000000000000000000000000000000000000000000000000000000000000000008AF64B
:2B0CEF00000018000000000010000000000000000038100000000000000000000000000000000000000000000E00A2BA
:2B0D1A00000008000000000020000000000000000000020000000000000000000000000000040000000000000001DBA4
:2B0D450000002E0100000000260000000000000000060000000000000000000000000000180000000000008009808E79
:2B0D7000000088000000000000010000000000000010040000000000000000000000000000100000000000002080E922
:2B0D9B0002002C0000000000040000000000000000240000000000000000000000000000D0000000000000000988E195
:2B0DC600000008000000000020000000000000000000000000000000000000000000000000000000000000002000CFEB
:2B0DF100000098000000000000000000000000000000100000000000000000000000000000080000000000000280C4E1
:2B0E1C00000018020000000000000000000000000000100000000000000000000000000000200000000000000200EE71
:2B0E4700000038000000000018000000000000000020000000000000000000000000000000000000000000008280CD41
:2B0E7200020000010000000040000000000000000000020000000000000000000000000000040000000000000608C836
:2B0E9D0002000600000000002E000000000000000006000000000000000000000000000018000000000000801588E2D7
:2B0EC800020000000000000000000000000000000018040000000000000000000000000040100000000000000688C241
:2B0EF30002001C10000000000C10000000000000003C00000000000000000000000000009000000000000000010CC7EA
:2B0F1E000000000400000000001000000000000000000000000000000000000000000000000000000000000006809579
:2B0F4900000020000000000028000000000000000000000000000000000000000000000000080000000000000E81910D
:2B0F7400000000000000000018020000000000000000000000000000000000000000000000200000000000001600BB47
:2B0F9F00000000000000000038000000000000000000000000000000000000000000000000000000000000000600BA2F
:2B0FCA00020000000000000000000000000000000000000000000000000000000000000000000000000000000008ED05
:2B0FF500000000000000000000000000000000000000000000000000000000000000000000000000000000000080E76A
:2B102000800008800008800008800008800008800008000000000020000220000220000220000220000220000280E742
:2B104B00800008800008800008800008800008800008000000000020000220000220000220000220000220000280E717
:2B10760000418200000080008008000000000000004200000000000000000000000000000020A001000040000100D967
:2B10A100000100000000000000000000000000000000000000000000000000000000000000000001000040000080A2C0
:2B10CC00004000000000000000000000000000000000000000000000000000000000000000000008000000000000EBC6
:2B10F700000000000000800000000000000000000000000000000000000000000000000020000000000000000000CD61
:2B112200000182000000000080080000000000000042020000000000000000000000000000202009000040000100D7F2
:2B114D0000000C100000000004000000000000000004100000000000000000000000000000400000000000000004AF50
:2B117800000000080000000000080000000000000000080000000000000000000000000000000000000000000080EFC5
:2B11A300000000000000000000100000000000000000000000000000000000000000000000000000000000000080F79A
:2B11CE00000000000000000000000000000000000000000000000000000000000000000000000000000000000080E78F
:2B11F9001800000000000000000800000000000000000800000000000000000000000000000000000000000000A0DD26
:2B122400000000000000000000000000000000000000000000000000000000000000000000000000000000000081F727
:2B124F00000000000000000000000000000000000000000000000000000000000000000000000000000000000080E70D
:2B127A00000000000000000000000000000000000000000000000000000000000000000000000000000000000080E7E2
:2B12A500000000000000000000000000000000000000000000000000000000000000000010000000000000000480B2D8
:2B12D000180000000000000000000000000000000000000000000000000000000000000000080000000000000080F75C
:2B12FB00000000000000000000000000000000000000000000000000000000000000000000000000000000004080E325
:2B132600000000000000000004000000000000000000000000000000000000000000000000000000000000000080A771
:2B1351000000000000000000000000000000000000000000000000000000000000000000000000000000000020A0C7EA
:2B137C00000080000000000000000000000000000000000000000000000000000000000000020000000000000000E5DF
:2B13A700000000000000000000000000000000000000000000000000000000000000000000000000000000000080E7B4
:2B13D200000000000000000000000000000000000000000000000000000000000000000000000000000000000080E789
:2B13FD00000000000000000000000000000000000000000000000000000000000000000000000000000000000080E75E
:2B142800000000000000000000000000000000000000000000000000000000000000000000000000000000000080E732
:2B145300000000000000000000000000000000000000000000000000000000000000000000000000000000000080E707
:2B147E00000000000000000000000000000000000000000000000000000000000000000000000000000000000090F6BD
:2B14A900000000000000000000000000000000000000000000000000000000000000000000000000000000000080E7B1
:2B14D400000000000000000000000000000000000000000000000000000000000000000000000000000000000080E786
:2B14FF00000000000000000000000000000000000000000000000000000000000000000000000000000000000080E75B
:2B152A00000000000000000000000000000000000000000000000000000000000000000000000000000000000090F610
:2B155500000000000000000000000000000000000000000000000000000000000000000000000000000000000080E704
:2B158000000000000000000000000000000000000000000000000000000000000000000000000000000000000080E7D9
:2B15AB00000000000000000000000000000000000000000000000000000000000000000000000000000000000080E7AE
:2B15D600000000000000000000000000000000000000000000000000000000000000000000000000000000000080E783
:2B160100000000000000000040000000000000000000000000000000000000000000000000000000000000000080A35B
:2B162C00020000000000000040000000000000000000000000000000000000000000000000000000000000000008A9A0
:2B165700000000000000000000000000000000000000000000000000000000000000000000000000000000000080E701
:2B168200000000000000000000000000000000000000000000000000000000000000000000000000000000000080E7D6
:2B16AD00000000000000000000000000000000000000000000000000000000000000000000000000000000000080E7AB
:2B16D800000000000000000000000000000000000000000000000000000000000000000000000000000000000080E780
:2B170300020000000000000000000000000000000000000000000000000000000000000000000000000000000008EDC4
:2B172E00800008800008800008800008800008800008000000000020000220000220000220000220000220000280E72D
:2B175900800008800008800008800008800008800008000000000020000220000220000220000220000220000280E702
:2B178400000000000000000000000000000000000000000000000000000000000000000000000000000000000080E7D3
:2B17AF00020000000000000000000000000000000000000000000000000000000000000000000000000000000008ED18
:2B17DA00000000000000000000000000000000000000000000000000000000000000000000000000000000000080E77D
:2B180500000000000000000000000000000000000000000000000000000000000000000000000000000000000080E751
:2B183000000000000000000000000000000000000000000000000000000000000000000000000000000000000080E726
:2B185B00000000000000000000000000000000000000000000000000000000000000000000000000000000000080E7FB
:2B188600020000000000000000000000000000000000000000000000000000000000000000000000000000000008ED40
:2B18B100000000000000000000000000000000000000000000000000000000000000000000000000000000000080E7A5
:2B18DC00000000000000000000000000000000000000000000000000000000000000000000000000000000000080E77A
:2B190700000000000000000000000000000000000000000000000000000000000000000000000000000000000080E74E
:2B193200020000000000000000000000000000000000000000000000000000000000000000000000000000000008ED93
:2B195D00000000000000000000000000000000000000000000000000000000000000000000000000000000000008EF68
:2B198800000000000000000000000000000000000000000000000000000000000000000000000000000000000090F6AE
:2B19B300000000000000000000000000000000000000000000000000000000000000000000000000000000000008EF12
:2B19DE00000000000000000000000000000000000000000000000000000000000000000000000000000000000008EFE7
:2B1A0900020000000000000000000000000000000000000000000000000000000000000000000000000000000008EDBB
:2B1A3400000000000000000000000000000000000000000000000000000000000000000000000000000000000080E720
:2B1A5F00000000000000000000000000000000000000000000000000000000000000000000000000000000000080E7F5
:2B1A8A00000000000000000000000000000000000000000000000000000000000000000000000000000000000080E7CA
:2B1AB500020000000000000000000000000000000000000000000000000000000000000000000000000000000008ED0F
:2B1AE000000000000000000000000000000000000000000000000000000000000000000000000000000000000080E774
:2B1B0B00000000000000000000000000000000000000000000000000000000000000000000000000000000000080E748
:2B1B3600000000000000000000000000000000000000000000000000000000000000000000000000000000000080E71D
:2B1B6100000000000000000000000000000000000000000000000000000000000000000000000000000000000080E7F2
:2B1B8C00020000000000000000000000000000000000000000000000000000000000000000000000000000000008ED37
:2B1BB700000000000000000000000000000000000000000000000000000000000000000000000000000000000080E79C
:2B1BE200000000000000000000000000000000000000000000000000000000000000000000000000000000000080E771
:2B1C0D00000000000000000000000000000000000000000000000000000000000000000000000000000000000080E745
:2B1C3800020000000000000000000000000000000000000000000000000000000000000000000000000000000008ED8A
:2B1C6300000000000000000000000000000000000000000000000000000000000000000000000000000000000080E7EF
:2B1C8E00000000000000000000000000000000000000000000000000000000000000000000000000000000000080E7C4
:2B1CB900000000000000000000000000000000000000000000000000000000000000000000000000000000000080E799
:2B1CE400000000000000000000000000000000000000000000000000000000000000000000000000000000000080E76E
:2B1D0F00020000000000000000000000000000000000000000000000000000000000000000000000000000000008EDB2
:2B1D3A00000000000000000000000000000000000000000000000000000000000000000000000000000000000080E717
:2B1D6500000000000000000000000000000000000000000000000000000000000000000000000000000000000080E7EC
:2B1D9000000000000000000000000000000000000000000000000000000000000000000000000000000000000080E7C1
:2B1DBB00020000000000000000000000000000000000000000000000000000000000000000000000000000000008ED06
:2B1DE600020000000000000000000000000000000000000000000000000000000000000000000000000000000080E56B
:2B1E1100040000000000000000000000000000000000000000000000000000000000000000000000000000000080E33F
:2B1E3C00020000000000000000000000000000000000000000000000000000000000000000000000000000000080E514
:2B1E6700020000000000000000000000000000000000000000000000000000000000000000000000000000000080E5E9
:2B1E9200020000000000000000000000000000000000000000000000000000000000000000000000000000000008ED2E
:2B1EBD00000000000000000000000000000000000000000000000000000000000000000000000000000000000080E793
:2B1EE800000000000000000000000000000000000000000000000000000000000000000000000000000000000080E768
:2B1F1300000000000000000000000000000000000000000000000000000000000000000000000000000000000080E73C
:2B1F3E00020000000000000000000000000000000000000000000000000000000000000000000000000000000008ED81
:2B1F6900000000000000000000000000000000000000000000000000000000000000000000000000000000000080E7E6
:2B1F9400000000000000000000000000000000000000000000000000000000000000000000000000000000000080E7BB
:2B1FBF00000000000000000000000000000000000000000000000000000000000000000000000000000000000080E790
:2B1FEA00000000000000000000000000000000000000000000000000000000000000000000000000000000000080E765
:2B201500020000000000000000000000000000000000000000000000000000000000000000000000000000000008EDA9
:2B204000000000000000000000000000000000000000000000000000000000000000000000000000000000000080E70E
:2B206B00000000000000000000000000000000000000000000000000000000000000000000000000000000000080E7E3
:2B209600000000000000000000000000000000000000000000000000000000000000000000000000000000000080E7B8
:2B20C100020000000000000000000000000000000000000000000000000000000000000000000000000000000008EDFD
:2B20EC00000000000000000000000000000000000000000000000000000000000000000000000000000000000080E762
:2B211700000000000000000000000000000000000000000000000000000000000000000000000000000000000080E736
:2B214200000000000000000000000000000000000000000000000000000000000000000000000000000000000080E70B
:2B216D00000000000000000000000000000000000000000000000000000000000000000000000000000000000080E7E0
:2B219800020000000000000000000000000000000000000000000000000000000000000000000000000000000008ED25
:2B21C300000000000000000000000000000000000000000000000000000000000000000000000000000000000080E78A
:2B21EE00000000000000000000000000000000000000000000000000000000000000000000000000000000000080E75F
:2B221900000000000000000000000000000000000000000000000000000000000000000000000000000000000080E733
:2B224400000000000000000000000000000000000000000000000000000000000000000000000000000000000080E708
:2B226F00000000000000000000000000000000000000000000000000000000000000000000000000000000000080E7DD
:2B229A00800008800008800008800008800008800008000000000020000220000220000220000220000220000280E7B6
:2B22C500800008800008800008800008800008800008000000000020000220000220000220000220000220000280E78B
:2B22F000000000000000000000000000000000000000000000000000000000000000000000000000000000000080E75C
:2B231B00000000000000000000000000000000000000000000000000000000000000000000000000000000000080E730
:2B234600000000000000000000000000000000000000000000000000000000000000000000000000000000000080E705
:2B237100000000000000000000000000000000000080000000000000000000000000000000000000000000000000E7DA
:2B239C00000000000000000000000000000000000080000000000000000000000000000000000000000000000000E7AF
:2B23C700000000000000000000000000000000000000000000000000000000000000000000000000000000000080E784
:2B23F200000000000000000000000000000000000000000000000000000000000000000000000000000000000080E759
:2B241D00000000000000000000000000000000000000000000000000000000000000000000000000000000000080E72D
:2B244800000000000000000000000000000000000000000000000000000000000000000000000000000000000080E702
:2B247300080000000000000000000000000000000000000000000000000000000000000000000000000000000080EFC7
:2B249E00000000000000000000000000000000000000000000000000000000000000000000000000000000000080E7AC
:2B24C900000000000000000000000000000000000000000000000000000000000000000000000000000000000080E781
:2B24F400000000000000000000000000000000000000000000000000000000000000000000000000000000000080E756
:2B251F00000000000000000000000000000000000000000000000000000000000000000000000000000000000080E72A
:2B254A00080000000000000000000000000000000000000000000000000000000000000000000000000000000080EFEF
:2B257500000000000000000000000000000000000000000000000000000000000000000000000000000000000080E7D4
:2B25A000000000000000000000000000000000000000000000000000000000000000000000000000000000000080E7A9
:2B25CB00000000000000000000000000000000000000000000000000000000000000000000000000000000000080E77E
:2B25F600000000000000000000000000000000000000000000000000000000000000000000000000000000000080E753
:2B262100000000000000000000000000000000000004000000000000000000000000000000000000000000000080A763
:2B264C00100000000000000000000000000000000000000000000000000000000000000000000000000000000080F7DC
:2B267700000000000000000000000000000000000000000000000000000000000000000000000000000000000080E7D1
:2B26A200020000000000000000000000000000000000020000000000000000000000000000000000000000000080E7A2
:2B26CD00000000000000000000000000000000000000000000000000000000000000000000000000000000000080E77B
:2B26F800000000000000000000000000000000000000000000000000000000000000000000000000000000000080E750
:2B272300000000000000000000000000000000000000000000000000000000000000000000000000000000000080E724
:2B274E00000000000000000000000000000000000000000000000000000000000000000000000000000000000080E7F9
:2B277900000000000000000000000000000000000000000000000000000000000000000000000000000000000080E7CE
:2B27A400100000000000000000000000000000000010100000000000000000000000000000000000000000000080F664
:2B27CF00000000000000000000000000000000000000000000000000000000000000000000000000000000000080E778
:2B27FA00000000000000000000000000000000000000000000000000000000000000000000000000000000000080E74D
:2B282500000000000000000000000000000000000020000000000000000000000000000000000000000000000080C523
:2B28500000000000000000000000000000000000006000000000000000000000000000000000000000000000008081FC
:2B287B00000000000000000000200000000880400002080000000000000000000000000000000000000000000080AF11
:2B28A6000200000000000000002000000000004000000000000000000000000000000000000000000000000000088D10
:2B28D100020000000000000000000000000000000000000000000000000000000000000000000000000000000080E575
:2B28FC00040000000000000000000000000880000000000000000000000000000000000000000000000000000080E3C2
:2B292700020000000000000000000000000000000002080000000000000000000000000000000000000000000080CD2C
:2B295200020000000000000000000000000000000000000000000000000000000000000000000000000000000080E5F3
:2B297D00020000000000000000000000000000000000000000000000000000000000000000000000000000000008ED38
:2B29A800800008800008800008800008800008800008000000000020000220000220000220000220000220000280E7A1
:2B29D300800008800008800008800008800008800008000000000020000220000220000220000220000220000280E776
:2B29FE00000000000000000000000000000000000080000000000000000000000000000000000000000000000000E747
:2B2A29000200000000000000000000000000000000060000000000000000000000000000000000000000000000088DE5
:2B2A5400000000000000000000000000000000000040000000000000000000000000000000000000000000000080A3F4
:2B2A7F0000000000000000000000000000000000003C0000000000000000000000000000000000000000000000009C54
:2B2AAA00000000000000000000000000000000000000000000000000000000000000000000000000000000000080E79A
:2B2AD5000000000000000000000000000000000000A0000000000000000000000000000000000000000000000000C571
:2B2B0000020000000000000000000000000000000010100000000000000000000000000000000000000000000008EC94
:2B2B2B00000000000000000000000000000000000038000000000000000000000000000000000000000000000000DC6B
:2B2B5600000000000000000000000000000000000000020000000000000000000000000000000000000000000080E5ED
:2B2B8100000000000000000000000000000000000006000000000000000000000000000000000000000000000080871C
:2B2BAC00020000000000000000000000000000000010000000000000000000000000000000000000000000000008FCE8
:2B2BD700000000000000000000000000000000000004100000000000000000000000000000000000000000000080B788
:2B2C0200000000000000000000000000000000000000020000000000000000000000000000000000000000000080E540
:2B2C2D00000000000000000000000000000000000020000000000000000000000000000000000000000000000080C517
:2B2C5800000000000000000000000000000000000000000000000000000000000000000000000000000000000080E7EA
:2B2C8300020000000000000000000000000000000000020000000000000000000000000000000000000000000008EF2B
:2B2CAE00000000000000000000000000000000000000020000000000000000000000000000000000000000000080E594
:2B2CD90000000000000000000000000000000000000600000000000000000000000000000000000000000000008087C3
:2B2D0400000000000000000000000000000000000000000000000000000000000000000000000000000000000080E73D
:2B2D2F00020000000000000000000000000000000004020000000000000000000000000000000000000000000080A74A
:2B2D5A00020000000000000000000000000000000018000000000000000000000000000000000000000000000088F4B8
:2B2D8500040000000000000000000000000000000018000000000000000000000000000000000000000000000088F28D
:2B2DB000020000000000000000000000000000000000000000000000000000000000000000000000000000000008ED01
:2B2DDB00020000000000000000000000000000000000000000000000000000000000000000000000000000000008EDD6
:2B2E0600020000000000000000000000000000000020000000000000000000000000000000000000000000000080C738
:2B2E31000000000000000000000000000000000000060000000000000000000000000000000000000000000000808769
:2B2E5C00000000000000000000000000000000000080000000000000000000000000000000000000000000000000E7E4
:2B2E8700000000000000000000000000000000000004000000000000000000000000000000000000000000000080A7F5
:2B2EB200020000000000000000000000000000000040000000000000000000000000000000000000000000000008A902
:2B2EDD00020000000000000000000000000000000020000000000000000000000000000000000000000000000080C761
:2B2F0800040000000000000000000000000000000000000000000000000000000000000000000000000000000080E337
:2B2F3300020000000000000000000000000000000018000000000000000000000000000000000000000000000000FC5D
:2B2F5E00020000000000000000000000000000000080000000000000000000000000000000000000000000000000E5E1
:2B2F89000200000000000000000000000000000000060000000000000000000000000000000000000000000000088D80
:2B2FB400000000000000000000000000000000000040000000000000000000000000000000000000000000000080A38F
:2B2FDF00000000000000000000000000000000000024000000000000000000000000000000000000000000000080859E
:2B300A00000000000000000000000000000000000000000000000000000000000000000000000000000000000080E734
:2B303500020000000000000000000000000000000000000000000000000000000000000000000000000000000008ED79
:2B306000020000000000000000000000000000000018000000000000000000000000000000000000000000000000FC2F
:2B308B00040000000000000000000000000000000018000000000000000000000000000000000000000000000000FA04
:2B30B600020000000000000000000000000000000000010000000000000000000000000000000000000000000080E488
:2B30E1000200000000000000000000000000000000160000000000000000000000000000000000000000000000809498
:2B310C00020000000000000000000000000000000080000000000000000000000000000000000000000000000088EDA1
:2B313700000000000000000000000000000000000014000000000000000000000000000000000000000000000080B623
:2B316200000000000000000000000000000000000040000000000000000000000000000000000000000000000080A3DF
:2B318D00000000000000000000000000000000000030000000000000000000000000000000000000000000000080D493
:2B31B800020000000000000000000000000000000000000000000000000000000000000000000000000000000008EDF5
:2B31E3000000000000000000000000000000000000B8000000000000000000000000000000000000000000000080DCAD
:2B320E00000000000000000000000000000000000000100000000000000000000000000000000000000000000080F70E
:2B323900000000000000000000000000000000000006000000000000000000000000000000000000000000000080875D
:2B326400000000000000000000000000000000000000000000000000000000000000000000000000000000000080E7D8
:2B328F00020000000000000000000000000000000004040000000000000000000000000000000000000000000008A959
:2B32BA00000000000000000000000000000000000000000000000000000000000000000000000000000000000080E782
:2B32E500000000000000000000000000000000000000000000000000000000000000000000000000000000000080E757
:2B331000000000000000000000000000000000000018000000000000000000000000000000000000000000000000FE7C
:2B333B00020000000000000000000000000000000018000000000000000000000000000000000000000000000088F4D1
:2B336600020000000000000000000000000000000008100000000000000000000000000000000000000000000000FD25
:2B33910004000000000000000000000000000000000E0000000000000000000000000000000000000000000000008B74
:2B33BC00020000000000000000000000000000000088000000000000000000000000000000000000000000000080EDEF
:2B33E70002000000000000000000000000000000000C000000000000000000000000000000000000000000000000AD00
:2B341200020000000000000000000000000000000018000000000000000000000000000000000000000000000088F4F9
:2B343D00000000000000000000000000000000000018040000000000000000000000000000000000000000000000FA4E
:2B346800000000000000000000000000000000000008080000000000000000000000000000000000000000000000E742
:2B349300000000000000000000000000000000000018000000000000000000000000000000000000000000000088F678
:2B34BE00000000000000000000000000000000000000000000000000000000000000000000000000000000000080E77C
:2B34E900000000000000000000000000000000000000000000000000000000000000000000000000000000000080E751
:2B351400800008800008800008800008800008800008000000000020000220000220000220000220000220000280E729
:2B353F00800008800008800008800008800008800008000000000020000220000220000220000220000220000280E7FE
:2B356A00000000000000000000000000000000000082080000000000000000000000000000000000000000000000CFDD
:2B359500000000000000000000000000000000000000000000000000000000000000000000000000000000000080E7A4
:2B35C000000000000000000000000000000000000000000000000000000000000000000000000000000000000080E779
:2B35EB00000000000000000000000000000000000000000000000000000000000000000000000000000000000080E74E
:2B361600000000000000000000000000000000000082080000000000000000000000000000000000000000000000CF30
:2B364100000000000000000000000000000000000000110000000000000000000000000000000000000000000080F6D7
:2B366C00000000000000000000000000000000000000000000000000000000000000000000000000000000000080E7CC
:2B369700000000000000000000000000000000000000000000000000000000000000000000000000000000000080E7A1
:2B36C200000000000000000000000000000000000000080000000000000000000000000000000000000000000080EF66
:2B36ED001A0000000000000000000000000000000000000000000000000000000000000000000000000000000080FD1B
:2B371800000000000000000000000000000000000000000000000000000000000000000000000000000000000080E71F
:2B374300020000000000000000000000000000000000000000000000000000000000000000000000000000000080E5F4
:2B376E00000000000000000000000000000000000000000000000000000000000000000000000000000000000080E7C9
:2B379900000000000000000000000000000000000000000000000000000000000000000000000000000000000080E79E
:2B37C400180000000000000000000000000000000000000000000000000000000000000000000000000000000080FF43
:2B37EF00000000000000000000000000000000000000000000000000000000000000000000000000000000000080E748
:2B381A00000000000000000000000000000000000000000000000000000000000000000000000000000000000080E71C
:2B384500000000000000000000000000000000000000000000000000000000000000000000000000000000000080E7F1
:2B387000000000000000000000000000000000000000000000000000000000000000000000000000000000000080E7C6
:2B389B00200803000000000000000000000000000080080000000000000000000000000000002000000000020080FFAE
:2B38C600802248000000000000000000000000000000020000000000000000000000000000008002000080080000A140
:2B38F100000000000000000000000000000000000000000000000000000000000000000000000000000000000080E745
:2B391C00000000000000000000000000000000000000000000000000000000000000000000000000000000000080E719
:2B394700E0380E41100441100441100441100441108403000000001004411004411004411004E1280441100E4100DC67
:2B39720060599661188661188661188661188661188605000000001886611886611886611886617187611896610088EF
:02399D00FFFF2A
:00000001FF
