:020000040000FA
:2B000000FFFF62FF2500FFFFFFFFFFFFFFFFFFFFFFFFFFFFFFFFFFFFFFFFFFFFFFFFFFFFFFFFFFFFFFFFFFFFFFFFFF76
:2B002B00601886611886C11D86C11D86651886611986010000000018866118866118866118866118866118866180F275
:2B005600401004411004A11004A11084431004E11004010000000010044110044110044110044110044110044180CD54
:2B008100000000000000000000000000000000000000000000000000000000000000000000000000000000000080E7ED
:2B00AC00000000000000000000000000000000000000000000000000000000000000000000000000000000000080E7C2
:2B00D700000000000000000000000000120000800000000000000000000000000000000000000000000000000000FD6F
:2B010200000000000000000000000080000000008000000000000000000000000000000000000000000000000000EFE3
:2B012D00020000000000000000000000000000000000000000000000000000000000000000000000000000000080E540
:2B015800000000000000000000000010000000000000000000000000000000000000000000000000000000000008FE66
:2B018300000000000000000000000000000000000000000000000000000000000000000000000000000000000080E7EA
:2B01AE00080000000000000000000000000000000000000000000000000000000000000000000000000000000080EFAF
:2B01D9000000000000000000000000000000000000000000000000000000000000000000000000000000000000A0C596
:2B020400000000000000000000000000000000000000000000000000000000000000000000000000000000000080E768
:2B022F00000000000000000000000000000000000000000000000000000000000000000000000000000000000080E73D
:2B025A00000000000000000000000000000000000000000000000000000000000000000000000000000000000080E712
:2B028500000000000000000000000000100000000000000000000000000000000000000000000000000000000080F7C7
:2B02B000000000000000000000000000000000000000000000000000000000000000000000000000000000000028CD2E
:2B02DB00000000000000000000000000000000000000000000000000000000000000000000000000000000000080E791
:2B030600000000000000000000000000000000000000000000000000000000000000000000000000000000000080E765
:2B033100000000000000000000000020000000000000000000000000000000000000000000000000000000000080C53C
:2B035C000000000000000000000000600000000000000000000000000000000000000000000000000000000000808115
:2B038700000000000000200000000082000000400000000000000000000000800000000000000000000000002080AD9C
:2B03B200020000000000200000000000000000000000000000000000000000000000000000000000000000000008CD29
:2B03DD00000000000000000000000010040000000000000000000000000000000000000000000000000000000080F26F
:2B040800000000000000000000000000000000400000000000000000000000000000000000000000000000000080A762
:2B043300000000000000000000000082000000000000000000000000000000800200000000000000000000002080EF0B
:2B045E00000000000000000000000000000000000000000000000000000000000000000000000000000000000080E70C
:2B048900020000000000000000000000000000000000000000000000000000000000000000000000000000000008ED51
:2B04B400800008800008800008800008800008800008000000000020000220000220000220000220000220000280E7BA
:2B04DF00800008800008800008800008800008800008000000000020000220000220000220000220000220000280E78F
:2B050A00000000000000000000000000000000000000000000000000000000000000000000000000000000000080E75F
:2B053500020000000000000000000006020000000000000000000000000098400000000000000000000000000008D6DB
:2B056000020000000000000000000088000000000000000000000000000000000000000000000000000000000008E5F9
:2B058B00040000000000000000000004000000000000000000000000000010000000000000000000000000000090A3FA
:2B05B600020000000000000000000040000000000000000000000000000060000000000000000000000000000008CFA1
:2B05E1000200000000000000000000000000000000000000000000000000600000000000000000000000000000088BFA
:2B060C00020000000000000000000040000000000000000000000000000060000000000000000000000000000008CF4A
:2B063700000000000000000000000020000000000000000000000000000060000000000000000000000000000080A3F5
:2B066200000000000000000000000000040000000000000000000000000000000000000000000000000000000081F3F5
:2B068D00000000000000000000000026000000000000000000000000000000000000000000000000000000800980BC57
:2B06B800020000000000000000000080000000000000000000000000000000000000000000000000000000000088ED20
:2B06E300000000000000000000000004000000000000000000000000000000000000000000000000000000000184F66D
:2B070E000000000000000000000000180400000000000000000000000000000000000000000000000000000006009C02
:2B073900000000000000000000000000000000000000000000000000000000000000000000000000000000000680818E
:2B076400000000000000000000000058000000000000000000000000000000000000000000000000000000000000BA58
:2B078F00020000000000000000000030000000000000000000000000000000000000000000000000000000000008DE27
:2B07BA00000000000000000000000020000000000000000000000000000000000000000000000000000000000080C5AF
:2B07E50000000000000000000000000600000000000000000000000000000000000000000000000000000000008087DC
:2B081000000000000000000000000018020000000000000000000000000000000000000000000000000000000000FCA7
:2B083B0002000000000000000000001C000000000000000000000000000000000000000000000000000000000088B438
:2B086600020000000000000000000000000000000000000000000000000000000000000000000000000000000008ED70
:2B089100040000000000000000000000000000000000000000000000000000000000000000000000000000000090F2B6
:2B08BC00020000000000000000000000000000000000000000000000000000000000000000000000000000000008ED1A
:2B08E700020000000000000000000000000000000000000000000000000000000000000000000000000000000008EDEF
:2B091200020000000000000000000000010000000000000000000000000000000000000000000000000000000008ECC3
:2B093D000000000000000000000000060000000000000000000000000000000000000000000000000000000000808782
:2B096800000000000000000000000020000000000000000000000000000000000000000000000000000000000080C5FF
:2B099300000000000000000000000004000000000000000000000000000000000000000000000000000000000080A70E
:2B09BE00020000000000000000000048000000000000000000000000000000000000000000000000000000000088A19B
:2B09E900020000000000000000000000000000000000000000000000000000000000000000000000000000000080E57C
:2B0A1400000000000000000000000000020000000000000000000000000000000000000000000000000000000080E550
:2B0A3F00020000000000000000000000000000000000000000000000000000000000000000000000000000000080E525
:2B0A6A00020000000000000000000018040000000000000000000000000000000000000000000000000000000000F84B
:2B0A950002000000000000000000003E000000000000000000000000000000000000000000000000000000000088B6B8
:2B0AC000000000000000000000000000040000000000000000000000000000000000000000000000000000000080E3A4
:2B0AEB00000000000000000000000004000000000000000000000000000000000000000000000000000000000080A7B5
:2B0B1600000000000000000000000018000000000000000000000000000000000000000000000000000000000000FE9E
:2B0B4100020000000000000000000018000000000000000000000000000000000000000000000000000000000000FC73
:2B0B6C00020000000000000000000018000000000000000000000000000000000000000000000000000000000088F4C8
:2B0B9700040000000000000000000018000000000000000000000000000000000000000000000000000000000088F29D
:2B0BC200020000000000000000000000010000000000000000000000000000000000000000000000000000000008EC11
:2B0BED000200000000000000000000060000000000000000000000000000000000000000000000000000000000088D40
:2B0C1800020000000000000000000020000000000000000000000000000000000000000000000000000000000080C748
:2B0C4300000000000000000000000004000000000000000000000000000000000000000000000000000000000080A75B
:2B0C6E00000000000000000000000050000000000000000000000000000000000000000000000000000000000080B2D9
:2B0C9900000000000000000000000000000000000000000000000000000000000000000000000000000000000080E7C9
:2B0CC400020000000000000000000000020000000000000000000000000000000000000000000000000000000008EF0A
:2B0CEF00000000000000000000000000000000000000000000000000000000000000000000000000000000000080E773
:2B0D1A00000000000000000000000000020000000000000000000000000000000000000000000000000000000080E547
:2B0D4500000000000000000000000026000000000000000000000000000000000000000000000000000000000080A538
:2B0D7000000000000000000000000018000000000000000000000000000000000000000000000000000000000000FE42
:2B0D9B0002000000000000000000001C100000000000000000000000000000000000000000000000000000000088A4D3
:2B0DC600000000000000000000000018000000000000000000000000000000000000000000000000000000000000FEEC
:2B0DF100000000000000000000000018000000000000000000000000000000000000000000000000000000000000FEC1
:2B0E1C00000000000000000000000018000000000000000000000000000000000000000000000000000000000000FE95
:2B0E4700020000000000000000000018000000000000000000000000000000000000000000000000000000000088F4EA
:2B0E72000200000000000000000000180400000000000000000000000000000000000000000000000000000006898622
:2B0E9D0004000000000000000000003E000000000000000000000000000000000000000000000000000000800F10D673
:2B0EC800020000000000000000000028000000000000000000000000000000000000000000000000000000000088C786
:2B0EF30002000000000000000000001C00000000000000000000000000000000000000000000000000000000018CE544
:2B0F1E00020000000000000000000018020000000000000000000000000000000000000000000000000000000088F60E
:2B0F4900000000000000000000000018000000000000000000000000000000000000000000000000000000000000FE67
:2B0F7400000000000000000000000018040000000000000000000000000000000000000000000000000000000000FA3C
:2B0F9F00000000000000000000000018000000000000000000000000000000000000000000000000000000000000FE11
:2B0FCA000000000000000000000000000000000000000000000000000000000000000000000000000000000000A0C597
:2B0FF500000000000000000000000000000000000000000000000000000000000000000000000000000000000080E76A
:2B102000800008800008800008800008800008800008000000000020000220000220000220000220000220000280E742
:2B104B00800008800008800008800008800008800008000000000020000220000220000220000220000220000280E717
:2B107600000000000000000000000082080000000000000000000000000000000000000000000000000000800080C7FE
:2B10A100000000000000000000000000000000000004000000000000000000000000000000000000000000000080A7F9
:2B10CC00000000000000000000000000000000000000000000000000000000000000000000000000000000000080E792
:2B10F700000000000000000000000000000000000000000000000000000000000000000000000000000000000080E767
:2B112200000000000000000000000082080000000004000000000000000000000000000000000000000000800080878D
:2B114D00000000000000000000000004000000000000000000000000000000000000000000000000000000000084E708
:2B117800000000000000000000000000010000000000000000000000000000000000000000000000000000000080E6E5
:2B11A300000000000000000000000000000000000000000000000000000000200000000000000000000000000080C7BA
:2B11CE00000000000000000000000080000000000000000000000000000000000000000000000000000000002000E571
:2B11F9000A0000000000000000000000000000000000000000000000000000000000000000000000000000000008E5D4
:2B122400000000000000000000000000000000000000000000000000000000000000000000000000000000000080E738
:2B124F00000000000000000000000000000000000000000000000000000000000000000000000000000000000008EF7D
:2B127A00000000000000000000000000000000000000000000000000000000000000000000000000000000000080E7E2
:2B12A500000000000000000000000000000000000000000000000000000000000000000000000000000000000080E7B7
:2B12D000000000000000000000000000000000000000000000000000000000000000000000000000000000000080E78C
:2B12FB00000000000000000000000000000000000000000000000000000000000000000000000000000000000080E761
:2B132600100000000000000000000000000000000000000000000000000000000000000000000000000000000080F715
:2B1351000A0000000000000000000000000000000000000000000000000000000000000000000000000000000080EDFA
:2B137C00000000000000000000000000000000000000000000000000000000000000000000000000000000000080E7DF
:2B13A700000000000000000000000000000000000004000000000000000000000000000000000000000000000090B6D1
:2B13D200020000000000000000000000000000000000000000000000000000000000000000000000000000000080E589
:2B13FD00000000000000000000000000000000000000000000000000000000000000000000000000000000000080E75E
:2B142800000000000000000000000000000000000000000000000000000000000000000000000000000000000080E732
:2B145300000000000000000000000000000000000000000000000000000000000000000000000000000000000080E707
:2B147E00000000000000000000000000000000000000000000000000000000000000000000000000000000000080E7DC
:2B14A900080000000000000000000000000000000000000000000000000000000000000000000000000000000080EFA1
:2B14D400000000000000000000000000000000000000000000000000000000000000000000000000000000000080E786
:2B14FF00000000000000000000000000000001000000000000000000000000000000000000000000000000000080F74A
:2B152A00020000000000000000000000000000000000090000000000000000000000000000000000000000000090FDFE
:2B155500000000000000000000000000000000000000000000000000000000000000000000000000000000000080E704
:2B158000000000000000000000000000000800000000000000000000000000000000000000000000000000000000E751
:2B15AB00000000000000000000000000000200000020000000000000000000000000000000000000000000000080E78C
:2B15D6000000000000000000000000000001000000600000000000000000000000000000000000000000000000809079
:2B160100000000000000200000200040000802400040000000000000000000000000000000000000000000000000872D
:2B162C00020000000000200000200040000000000000000000000000000000000000000000000000000000000080A1F0
:2B165700000000000000000000000000000000004000000000000000000000000000000000000000000000000008EB35
:2B168200000000000000000000000000000000400000000000000000000000000000000000000000000000000008AF46
:2B16AD0000000000000000000000000000080A00404000000000000000000000000000000000000000000000000887F1
:2B16D800000000000000000000000000000000000000000000000000000000000000000000000000000000000008EFF0
:2B170300020000000000000000000000000000000000000000000000000000000000000000000000000000000080E554
:2B172E00800008800008800008800008800008800008000000000020000220000220000220000220000220000280E72D
:2B175900800008800008800008800008800008800008000000000020000220000220000220000220000220000280E702
:2B178400000000000000000000000000000400000000080000000000000000000000000000000000000000000080AB03
:2B17AF00020000000000000000000000600000000026000000000000000000000000000000000000000000000008CFB0
:2B17DA00020000000000000000000000001000000000010000000000000000000000000000000000000000000080E56C
:2B180500040000000000000000000000400000000004000000000000000000000000000000000000000000000080E30D
:2B183000020000000000000000000000002000000000000000000000000000000000000000000000000000000080E704
:2B185B00020000000000000000000000000000000000040000000000000000000000000000000000000000000080E1FB
:2B188600020000000000000000000000004000000000020000000000000000000000000000000000000000000008EB00
:2B18B100000000000000000000000000000300000008000000000000000000000000000000000000000000000000DC25
:2B18DC00000000000000000000000000000400000000000000000000000000000000000000000000000000000080A3BA
:2B190700000000000000000000000000600000000016020000000000000000000000000000000000000000000080F4C9
:2B193200020000000000000000000000001000000018000000000000000000000000000000000000000000000088F5E3
:2B195D0000000000000000000000000040000000009C000000000000000000000000000000000000000000000008F685
:2B198800000000000000000000000000002000000040000000000000000000000000000000000000000000000090B094
:2B19B300000000000000000000000000000000000020000000000000000000000000000000000000000000000008CD14
:2B19DE00000000000000000000000000004000000018000000000000000000000000000000000000000000000088F20C
:2B1A0900020000000000000000000000000300000058000000000000000000000000000000000000000000000088834A
:2B1A3400000000000000000000000000000000000000000000000000000000000000000000000000000000000080E720
:2B1A5F000000000000000000000000006020000000A6000000000000000000000000000000000000000000000000C76F
:2B1A8A00000000000000000000000000800000000030000000000000000000000000000000000000000000000000DCA5
:2B1AB500020000000000000000000000400600000024000000000000000000000000000000000000000000000008A9E9
:2B1AE000020000000000000000000000000000000010020000000000000000000000000000000000000000000080F651
:2B1B0B00040000000000000000000000000101000000000000000000000000000000000000000000000000000080E247
:2B1B3600020000000000000000000000800000000010000000000000000000000000000000000000000000000000FCF6
:2B1B6100020000000000000000000000004100000000100000000000000000000000000000000000000000000080E0A6
:2B1B8C000200000000000000000000000004000000200000000000000000000000000000000000000000000000088B75
:2B1BB700000000000000000000000000600000000006000000000000000000000000000000000000000000000080E736
:2B1BE200000000000000000000000000001000000040000000000000000000000000000000000000000000000080A266
:2B1C0D0000000000000000000000000040000000001C000000000000000000000000000000000000000000000000FE52
:2B1C3800020000000000000000000000004000000000000000000000000000000000000000000000000000000080E1DE
:2B1C6300000000000000000000000000000200000010040000000000000000000000000000000000000000000008D860
:2B1C8E00000000000000000000000000000000000000040000000000000000000000000000000000000000000008EB34
:2B1CB900000000000000000000000000800100000038000000000000000000000000000000000000000000000008CD72
:2B1CE400000000000000000000000000800100000000000000000000000000000000000000000000000000000088F6D6
:2B1D0F00020000000000000000000000602100000006020000000000000000000000000000000000000000000080F4AA
:2B1D3A00000000000000000000000000800100000000020000000000000000000000000000000000000000000000FCFF
:2B1D6500000000000000000000000000C00700000024000000000000000000000000000000000000000000000000BAAE
:2B1D9000000000000000000000000000800100000010100000000000000000000000000000000000000000000000FF88
:2B1DBB00020000000000000000000000000001000020000000000000000000000000000000000000000000000008DFF3
:2B1DE600020000000000000000000000800100000000040000000000000000000000000000000000000000000000F853
:2B1E1100040000000000000000000000808100000000000000000000000000000000000000000000000000000000F2AF
:2B1E3C00020000000000000000000000001000000000020000000000000000000000000000000000000000000080E601
:2B1E6700020000000000000000000000600000000026000000000000000000000000000000000000000000000080C781
:2B1E9200020000000000000000000000000800000000100000000000000000000000000000000000000000000088FD86
:2B1EBD00000000000000000000000000400100000024000000000000000000000000000000000000000000000080D441
:2B1EE800000000000000000000000000000000000018000000000000000000000000000000000000000000000000FEB9
:2B1F1300000000000000000000000000008200000000040000000000000000000000000000000000000000000080C9D4
:2B1F3E00020000000000000000000000800100000000000000000000000000000000000000000000000000000000FCF9
:2B1F6900000000000000000000000000804100000000000000000000000000000000000000000000000000000088F212
:2B1F9400000000000000000000000000800100000000000000000000000000000000000000000000000000000088F623
:2B1FBF00000000000000000000000000600800000026020000000000000000000000000000000000000000000088CF10
:2B1FEA00000000000000000000000000000000000010080000000000000000000000000000000000000000000008F6B6
:2B201500020000000000000000000000401200000034000000000000000000000000000000000000000000000080F5A3
:2B204000000000000000000000000000804100000000040000000000000000000000000000000000000000000000FEB2
:2B206B00000000000000000000000000000000000018000000000000000000000000000000000000000000000000FE34
:2B209600000000000000000000000000000000000000040000000000000000000000000000000000000000000080E3B8
:2B20C100020000000000000000000000800100000020000000000000000000000000000000000000000000000088D6F3
:2B20EC0002000000000000000000000000000000000002000000000000000000000000006000000000000000000889D4
:2B2117000400000000000000260100006020000000060000000000000000000000000000F8010000000000000090CD96
:2B2142000200000000000000000000000080000000000000000000000000000000000000680000000000000000888B75
:2B216D0002000000000000000410000040030000005C000000000000000000000000000070000000000000000088A4F6
:2B219800020000000000000000000000000200000000000000000000000000000000000008000000000000000088C7C1
:2B21C300000000000000000000000000000000000000100000000000000000000000000008000000000000000000FFDA
:2B21EE00000000000000000018000000000000000000000000000000000000000000000000000000000000000000FEB0
:2B2219000000000000000000180000008083000000000000000000000000000000000000000000000000000000C08936
:2B2244000000000000000000000000000000000000000000000000000000000000000000000000000000000000D0B2ED
:2B226F00000000000000000000000000000000000000000000000000000000000000000020000000000000000080C5DF
:2B229A00800008800008800008800008800008800008000000000020000220000220000200000220000220000280C5F8
:2B22C500800008800008800008800008800008800008000000000020000220000220000220000220000220000280E78B
:2B22F000000000000000000004000000000880A20020000000000000000000000000000008000000000000000080A746
:2B231B00000000000000000000000000000000000002000000000000000000000000000000000000000000000080C74E
:2B234600000000000000000000000000000000000000000000000000000000000000000000000000000000000080E705
:2B237100000800000000000000000000000000000000000000000000000000000000000000000000000000000000E752
:2B239C0000080000000000000C00000000088020002200000000000000000000000000000800000000000000000085AB
:2B23C700000000000000000008100000801000000000110000000000000000000000000000000000000000000080E7CB
:2B23F200000000000000000000000000001200000010000000000000000000000000000000000000000000000080D549
:2B241D00000000000000000000000000004000000000000000000000000000000000000000000000000000000080E3F1
:2B244800000000000000000000000000004000000080040000000000000000000000000000000000000000000000E7BE
:2B247300000000000000000000000000400000000040000000000000000000000000000000000000000000000008EBCB
:2B249E00020000000000000000000000000000000004000000000000000000000000000000000000000000000080A5E8
:2B24C900000000000000000000000000000000000000000000000000000000000000000000000000000000000080E781
:2B24F400000000000000000000000000000000000000000000000000000000000000000000000000000000000080E756
:2B251F00000000000000000000000000000000000000000000000000000000000000000000000000000000000080E72A
:2B254A00000000000000000000000000000000000000000000000000000000000000000000000000000000000008EF6F
:2B257500000000000000000000000000002000000000000000000000000000000000000000000000000000000080E5B6
:2B25A000080000000000000000000000000000000000000000000000000000000000000000000000000000000080EF99
:2B25CB00000000000000000000000000000000000000000000000000000000000000000000000000000000000080E77E
:2B25F600000000000000000000000000000000000000000000000000000000000000000000000000000000000080E753
:2B262100020000000000000000000000000000000000000000000000000000000000000000000000000000000080E527
:2B264C00000000000000000000000000000000000000000000000000000000000000000000000000000000000080E7FC
:2B267700000000000000000000000000000000000000000000000000000000000000000000000000000000000080E7D1
:2B26A2000000000000000000000000000000000040000000000000000000000000000000000000000000000000A0C16C
:2B26CD00100000000000000000000000000000000000000000000000000000000000000000000000000000000080F75B
:2B26F800000000000000000000000000000000000000000000000000000000000000000000000000000000000080E750
:2B272300000000000000000000000000000000000000000000000000000000000000000000000000000000000080E724
:2B274E00000000000000000000000000000000000000000000000000000000000000000000000000000000000080E7F9
:2B277900000000000000000000000000000000000001000000000000000000000000000000000000000000000080F7BD
:2B27A4001000000000000000000000000000000000000000000000000000000000000000000000000000000000A0D585
:2B27CF00000000000000000000000000000000000000000000000000000000000000000000000000000000000080E778
:2B27FA00000000000000000000000000000000000000000000000000000000000000000000000000000000000080E74D
:2B282500000020000000000000000000000000000200000000000000000000000000000000000000000000000080E7FF
:2B285000000030000000000000000000000000000300000000000000000000000000000000000000000000000080E7C3
:2B287B00000002000000200000000020000000008000010000000000000000000000000000000000000000000080CC23
:2B28A600020000020000200000000020000000800000000000000000000000000000000000000000000000000088E5D6
:2B28D100020000000000000000000000000000000000000000000000000000000000000000000000000000000080E575
:2B28FC00040000000000000000000000000000000000000000000000000000000000000000000000000000000080E34A
:2B292700020002000000000000000000000000008000030000000000000000000000000000000000000000000080CEB0
:2B295200020000000000000000000000000000000000000000000000000000000000000000000000000000000080E5F3
:2B297D00020000000000000000000000000000000000000000000000000000000000000000000000000000000008ED38
:2B29A800800008800008800008800008800008800008000000000020000220000220000220000220000220000280E7A1
:2B29D300800008800008800008800008800008800008000000000020000220000220000220000220000220000280E776
:2B29FE00000000000000000000000000000000800500000000000000000000000000000000000000000000000000BA6F
:2B2A2900020006040000000000000000000000600000000000000000000000000000000000000000000000000008E925
:2B2A5400000000020000000000000000000000808100000000000000000000000000000000000000000000000088FCD0
:2B2A7F00000004000000000000000000000000400300000000000000000000000000000000000000000000000090C590
:2B2AAA00000018000000000000000000000000004000000000000000000000000000000000000000000000000088F22F
:2B2AD500000018000000000000000000000000000000000000000000000000000000000000000000000000000088F640
:2B2B0000020000000000000000000000000000000000000000000000000000000000000000000000000000000008EDB3
:2B2B2B00000000000000000000000000000000000400000000000000000000000000000000000000000000000080A358
:2B2B5600000008000000000000000000000000001000000000000000000000000000000000000000000000000000EE4E
:2B2B810000001E040000000000000000000000600000000000000000000000000000000000000000000000000000FAAD
:2B2BAC00020038000000000000000000000000000000000000000000000000000000000000000000000000000088D666
:2B2BD70000003C000000000000000000000000400001000000000000000000000000000000000000000000000000CC8A
:2B2C0200000048000000000000000000000000800100000000000000000000000000000000000000000000000080B2AC
:2B2C2D00000028000000000000000000000000800100000000000000000000000000000000000000000000000080D47F
:2B2C5800000008000000000000000000000000000000000000000000000000000000000000000000000000000000EF5A
:2B2C8300020008100000000000000000000000000000000000000000000000000000000000000000000000000088F58F
:2B2CAE00000000000000000000000000000000000000000000000000000000000000000000000000000000000080E794
:2B2CD900000006020000000000000000000000600800000000000000000000000000000000000000000000000000E57B
:2B2D0400000000010000000000000000000000000400000000000000000000000000000000000000000000000080A27D
:2B2D2F00020004000000000000000000000000400000000000000000000000000000000000000000000000000008ED3E
:2B2D5A00020010000000000000000000000000008000000000000000000000000000000000000000000000000080FC40
:2B2D8500040000040000000000000000000000000300000000000000000000000000000000000000000000000080D4C4
:2B2DB000020000020000000000000000000000004000000000000000000000000000000000000000000000000080E351
:2B2DDB00020000000000000000000000000000000000000000000000000000000000000000000000000000000080E566
:2B2E0600020000000000000000000000000000000000000000000000000000000000000000000000000000000008EDAA
:2B2E3100000026010000000000000000000000E02100000000000000000000000000000000000000000000000000DF6F
:2B2E5C00000000000000000000000000000000001000000000000000000000000000000000000000000000000080E6D5
:2B2E8700000004040000000000000000000000400000000000000000000000000000000000000000000000000080E375
:2B2EB200020000020000000000000000000000000000000000000000000000000000000000000000000000000008EFFA
:2B2EDD00020000000000000000000000000000000001000000000000000000000000000000000000000000000080F552
:2B2F0800040018000000000000000000000000000000000000000000000000000000000000000000000000000000FA88
:2B2F3300020000000000000000000000000000000000000000000000000000000000000000000000000000000080E50C
:2B2F5E00020000000000000000000000000000800500000000000000000000000000000000000000000000000000B809
:2B2F8900020026010000000000000000000000E00100000000000000000000000000000000000000000000000088D7B4
:2B2FB400000080000000000000000000000000A00100000000000000000000000000000000000000000000000080DE73
:2B2FDF00000024000000000000000000000000C00100000000000000000000000000000000000000000000000000DC06
:2B300A00000080000000000000000000000000200000000000000000000000000000000000000000000000000000C734
:2B303500020018000000000000000000000000200000000000000000000000000000000000000000000000000088D4DA
:2B306000020010000000000000000000000000000000000000000000000000000000000000000000000000000008FC2F
:2B308B00040018010000000000000000000000000000000000000000000000000000000000000000000000000010EA03
:2B30B600020020000000000000000000000000000000000000000000000000000000000000000000000000000008CFF6
:2B30E100020006000000000000000000000000602000000000000000000000000000000000000000000000000008EF45
:2B310C00020010000000000000000000000000001000000000000000000000000000000000000000000000000008FD71
:2B313700000034010000000000000000000000400000000000000000000000000000000000000000000000000080D5A3
:2B316200000080000000000000000000000000000000000000000000000000000000000000000000000000000000E7DB
:2B318D00000020000000000000000000000000800101000000000000000000000000000000000000000000000000CCA9
:2B31B800020090000000000000000000000000000000000000000000000000000000000000000000000000000088FCD6
:2B31E300000018000000000000000000000000000000000000000000000000000000000000000000000000000000FEAB
:2B320E00000010000000000000000000000000000000000000000000000000000000000000000000000000000080F60F
:2B323900000006020000000000000000000000600800000000000000000000000000000000000000000000000000E515
:2B326400000000010000000000000000000000000400000000000000000000000000000000000000000000000080A218
:2B328F00020004000000000000000000000000400000000000000000000000000000000000000000000000000008EDD9
:2B32BA00000000040000000000000000000000008000000000000000000000000000000000000000000000000080EBFA
:2B32E500000020000000000000000000000000000300000000000000000000000000000000000000000000000080F625
:2B331000000000020000000000000000000000004000000000000000000000000000000000000000000000000080E1EF
:2B333B00020000000000000000000000000000000000000000000000000000000000000000000000000000000080E500
:2B336600020000000000000000000000000000000000000000000000000000000000000000000000000000000008ED45
:2B339100040026010000000000000000000000600800000000000000000000000000000000000000000000000088C82E
:2B33BC00020000000000000000000000000000000500000000000000000000000000000000000000000000000008B81F
:2B33E700020004040000000000000000000000400000000000000000000000000000000000000000000000000008E980
:2B341200020010020000000000000000000000002000000000000000000000000000000000000000000000000080F4E7
:2B343D00000000000000000000000000000000000000000000000000000000000000000000000000000000000080E7FD
:2B346800000018000000000000000000000000800100000000000000000000000000000000000000000000000080E739
:2B349300000020100000000000000000000000000A00000000000000000000000000000000000000000000000000F7DD
:2B34BE00000000000000000000000000000000000000000000000000000000000000000000000000000000000008EFEC
:2B34E900000000000000000000000000000000800000000000000000000000000000000000000000000000000000EF49
:2B351400800008800008800008800008800008000008000000000020000220000220000220000220000220000200EF21
:2B353F00800008800008800008800008800008800008000000000020000220000220000220000220000220000280E7FE
:2B356A0000000209000000000000000000000020088C020000000000000000000000000000000000000000000000A4D1
:2B359500000000000000000000000000000000000000000000000000000000000000000000000000000000000080E7A4
:2B35C000000000000000000000000000000000000000000000000000000000000000000000000000000000000080E779
:2B35EB00000800000000000002000000000000000008000000000000000000000000000000000000000000000080CF54
:2B3616000008020900000000020000000000002008840000000000000000000000000000000000000000000000008E3A
:2B364100000008110000000000000000000000000000000000000000000000000000000000000000000000000000FE47
:2B366C00000004000000000000000000000000001000000000000000000000000000000000000000000000000080A6F9
:2B369700000000000000000000000000000000000000000000000000000000000000000000000000000000000080E7A1
:2B36C200000080000000000000000000000000000000000000000000000000000000000000000000000000000000E776
:2B36ED000A00040000000000000000000000000000000000000000000000000000000000000000000000000000A08F75
:2B371800000000000000000000000000000000000000000000000000000000000000000000000000000000000080E71F
:2B374300000000000000000000000000000000000000000000000000000000000000000000000000000000000080E7F4
:2B376E00000000000000000000000000000000000000000000000000000000000000000000000000000000000080E7C9
:2B379900000010000000000000000000000000000000000000000000000000000000000000000000000000000080F67F
:2B37C400080000000000000000000000000000000000000000000000000000000000000000000000000000000080EF63
:2B37EF000000000800000000000000000000000000000000000000000000000000000000000000000000000000A0CD3A
:2B381A00100000000000000000000000000000000000000000000000000000000000000000000000000000000080F7FC
:2B384500020000000000000000000000000000000000000000000000000000000000000000000000000000000080E5F1
:2B387000000000000000000000000000000000000000000000000000000000000000000000000000000000000080E7C6
:2B389B00000000000000000000000000000000000008000000000000000000000000000000000000000000000000EF0B
:2B38C600000008040000000000000000000000000000000000000000000000000000000000000000000000000000EBE0
:2B38F100000000000000000000000000000000000000000000000000000000000000000000000000000000000080E745
:2B391C00000000000000000000000000000000000000000000000000000000000000000000000000000000000080E719
:2B39470040280E411004411004411004411004411084030000000010044110044110044110044110044110044100CEE7
:2B397200607097611886611886611886611886611886050000000018866118866118866118866118866118866100E4E5
:02399D00FFFF2A
:00000001FF
