:1000000078007432F2087464F27800E2F52108E2B4
:10001000F52311B58527901136852590E5252527EF
:10002000F5288528907810E527F208E525F208E5FF
:1000300028F2080200F8C023C021752501300F0402
:10004000D230C20F301F0C203005D230020051C216
:1000500030C21FC3200011E5219523F521E520952D
:10006000205401F520020076E5212523F521E52025
:1000700025205401F520C3E52133C2E0F5214007D6
:10008000C200C2D102008BD200D2D1B3E525332009
:10009000D105D2E0020099C2E0F525E524335324CE
:1000A00001F5243020ADD021D023303007E525F4F0
:1000B0002401F52522C023C021300F09C20FE521FC
:1000C000F42401F521301F09C21FE523F42401F5B2
:1000D00023E5219523F527303F09E527F42401F591
:1000E00027D2D1C313C313F52730D107E527F42452
:0900F00001F527D021D0232200E4
:00000001FF
