:1000000078007409F2087451F27800E2F52108E2F0
:10001000F523112D1165E5252527F5287810E5250F
:10002000F208E527F208E528F2080200A0C023C084
:1000300021301F04D230C21F300F13E521F42401F8
:10004000F521203005D23002004CC230C20FE5232A
:100050008521F084F525D021D023303007E525F423
:100060002401F52522C023C021300F02C20F301F0A
:1000700009C21FE523F42401F523C3E5213523F547
:1000800027303F09E527F42401F527D2D1C313F522
:100090002730D107E527F42401F527D021D02322EA
:0100A000005F
:00000001FF
