:020000040000FA
:2B000000FFFF62FF2500FFFFFFFFFFFFFFFFFFFFFFFFFFFFFFFFFFFFFFFFFFFFFFFFFFFFFFFFFFFFFFFFFFFFFFFFFF76
:2B002B00601886611886C11D866118067770077719860100000000188661188661188661188661188661188661809DAE
:2B005600401004411004A11004411084422884A21004010000000010044110044110044110044110044110044100E4C5
:2B008100000000000000000000000000000000000000000000000000000000000000000000000000000000000080E7ED
:2B00AC00000000000000000000000000000000400000000000000000000000000000000000000000000000000080A7C2
:2B00D700000000000000000000000000000000A00200000000000000000000000000000000000000000000000000ED6F
:2B010200000000000000000000000000000000000000000000000000000000000000000000000000000000000080E76B
:2B012D00000000000000000000000000000000000000000000000000000000000000000000000000000000000080E740
:2B015800000000000000000000000000000000000000000000000000000000000000000000000000000000000080E715
:2B018300000000000000000000000000000000000000000000000000000000000000000000000000000000000080E7EA
:2B01AE00000000000000000000000000000000000000000000000000000000000000000000000000000000000080E7BF
:2B01D900000000000000000000000000000000000000000000000000000000000000000000000000000000000080E794
:2B020400000000000000000000000000000000000000000000000000000000000000000000000000000000000080E768
:2B022F00000000000000000000000000000000000000000000000000000000000000000000000000000000000080E73D
:2B025A00000000000000000000000000000000000000000000000000000000000000000000000000000000000080E712
:2B028500000000000000000000000000000000000000000000000000000000000000000000000000000000000080E7E7
:2B02B000000000000000000000000000000000000000000000000000000000000000000000000000000000000080E7BC
:2B02DB00000000000000000000000000000000000000000000000000000000000000000000000000000000000080E791
:2B030600000000000000000000000000000000000000000000000000000000000000000000000000000000000080E765
:2B033100000000000000000000000000000000000000000000000000000000000000000000000000000000000080E73A
:2B035C00000000000000000000000000000000000000000000000000000000000000000000000000000000000080E70F
:2B038700000000000000000000000000000000000000000000000000000000000000000000000000000000000080E7E4
:2B03B200020000000000000000000000000000000000000000000000000000000000000000000000000000000008ED29
:2B03DD00000000000000000000000000000000000000000000000000000000000000000000000000000000000080E78E
:2B040800000000000000000000000000000000000000000000000000000000000000000000000000000000000080E762
:2B043300000000000000000000000000000000000000000000000000000000000000000000000000000000000080E737
:2B045E00000000000000000000000000000000000000000000000000000000000000000000000000000000000080E70C
:2B048900020000000000000000000000000000000000000000000000000000000000000000000000000000000008ED51
:2B04B400800008800008800008800008800008800008000000000020000220000220000220000220000220000280E7BA
:2B04DF00800008800008800008800008800008800008000000000020000220000220000220000220000220000280E78F
:2B050A00000000000000000000000000000000000000000000000000000000000000000000000000000000000080E75F
:2B053500020000000000000000000000000000000000000000000000000000000000000000000000000000000008EDA4
:2B056000000000000000000000000000000000000000000000000000000000000000000000000000000000000080E709
:2B058B00000000000000000000000000000000000000000000000000000000000000000000000000000000000080E7DE
:2B05B600000000000000000000000000000000000000000000000000000000000000000000000000000000000080E7B3
:2B05E100000000000000000000000000000000000000000000000000000000000000000000000000000000000080E788
:2B060C00020000000000000000000000000000000000000000000000000000000000000000000000000000000008EDCC
:2B063700000000000000000000000000000000000000000000000000000000000000000000000000000000000080E731
:2B066200000000000000000000000000000000000000000000000000000000000000000000000000000000000080E706
:2B068D00000000000000000000000000000000000000000000000000000000000000000000000000000000000080E7DB
:2B06B800020000000000000000000000000000000000000000000000000000000000000000000000000000000008ED20
:2B06E300000000000000000000000000000000000000000000000000000000000000000000000000000000000080E785
:2B070E00000000000000000000000000000000000000000000000000000000000000000000000000000000000080E759
:2B073900000000000000000000000000000000000000000000000000000000000000000000000000000000000080E72E
:2B076400000000000000000000000000000000000000000000000000000000000000000000000000000000000080E703
:2B078F00020000000000000000000000000000000000000000000000000000000000000000000000000000000008ED48
:2B07BA00000000000000000000000000000000000000000000000000000000000000000000000000000000000080E7AD
:2B07E500000000000000000000000000000000000000000000000000000000000000000000000000000000000080E782
:2B081000000000000000000000000000000000000000000000000000000000000000000000000000000000000080E756
:2B083B00020000000000000000000000000000000000000000000000000000000000000000000000000000000008ED9B
:2B086600000000000000000000000000000000000000000000000000000000000000000000000000000000000080E700
:2B089100000000000000000000000000000000000000000000000000000000000000000000000000000000000080E7D5
:2B08BC00000000000000000000000000000000000000000000000000000000000000000000000000000000000080E7AA
:2B08E700000000000000000000000000000000000000000000000000000000000000000000000000000000000080E77F
:2B091200020000000000000000000000000000000000000000000000000000000000000000000000000000000008EDC3
:2B093D00000000000000000000000000000000000000000000000000000000000000000000000000000000000080E728
:2B096800000000000000000000000000000000000000000000000000000000000000000000000000000000000080E7FD
:2B099300000000000000000000000000000000000000000000000000000000000000000000000000000000000080E7D2
:2B09BE00020000000000000000000000000000000000000000000000000000000000000000000000000000000008ED17
:2B09E900000000000000000000000000000000000000000000000000000000000000000000000000000000000080E77C
:2B0A1400000000000000000000000000000000000000000000000000000000000000000000000000000000000080E750
:2B0A3F00000000000000000000000000000000000000000000000000000000000000000000000000000000000080E725
:2B0A6A00000000000000000000000000000000000000000000000000000000000000000000000000000000000080E7FA
:2B0A9500020000000000000000000000000000000000000000000000000000000000000000000000000000000008ED3F
:2B0AC000000000000000000000000000000000000000000000000000000000000000000000000000000000000080E7A4
:2B0AEB00000000000000000000000000000000000000000000000000000000000000000000000000000000000080E779
:2B0B1600000000000000000000000000000000000000000000000000000000000000000000000000000000000080E74D
:2B0B4100020000000000000000000000000000000000000000000000000000000000000000000000000000000008ED92
:2B0B6C00000000000000000000000000000000000000000000000000000000000000000000000000000000000080E7F7
:2B0B9700000000000000000000000000000000000000000000000000000000000000000000000000000000000080E7CC
:2B0BC200000000000000000000000000000000000000000000000000000000000000000000000000000000000080E7A1
:2B0BED00000000000000000000000000000000000000000000000000000000000000000000000000000000000080E776
:2B0C1800020000000000000000000000000000000000000000000000000000000000000000000000000000000008EDBA
:2B0C4300000000000000000000000000000000000000000000000000000000000000000000000000000000000080E71F
:2B0C6E00000000000000000000000000000000000000000000000000000000000000000000000000000000000080E7F4
:2B0C9900000000000000000000000000000000000000000000000000000000000000000000000000000000000080E7C9
:2B0CC400020000000000000000000000000000000000000000000000000000000000000000000000000000000008ED0E
:2B0CEF00000000000000000000000000000000000000000000000000000000000000000000000000000000000080E773
:2B0D1A00000000000000000000000000000000000000000000000000000000000000000000000000000000000080E747
:2B0D4500000000000000000000000000000000000000000000000000000000000000000000000000000000000080E71C
:2B0D7000000000000000000000000000000000000000000000000000000000000000000000000000000000000080E7F1
:2B0D9B00020000000000000000000000000000000000000000000000000000000000000000000000000000000008ED36
:2B0DC600000000000000000000000000000000000000000000000000000000000000000000000000000000000080E79B
:2B0DF100000000000000000000000000000000000000000000000000000000000000000000000000000000000080E770
:2B0E1C00000000000000000000000000000000000000000000000000000000000000000000000000000000000080E744
:2B0E4700060000000000000000000000000000000000000000000000000000000000000000000000000000000008E989
:2B0E72000A0000000000000000000000000000000000000000000000000000000000000000000000000000000080EDDE
:2B0E9D00040000000000000000000000000000000000000000000000000000000000000000000000000000000080E3C3
:2B0EC800020000000000000000000000000000000000000000000000000000000000000000000000000000000080E598
:2B0EF300020000000000000000000000000000000000000000000000000000000000000000000000000000000080E56D
:2B0F1E00000000000000000000000000000000000000000000000000000000000000000000000000000000000008EFB1
:2B0F4900000000000000000000000000000000000000000000000000000000000000000000000000000000000080E716
:2B0F7400000000000000000000000000000000000000000000000000000000000000000000000000000000000080E7EB
:2B0F9F00000000000000000000000000000000000000000000000000000000000000000000000000000000000080E7C0
:2B0FCA00000000000000000000000000000000000000000000000000000000000000000000000000000000000080E795
:2B0FF500000000000000000000000000000000000000000000000000000000000000000000000000000000000080E76A
:2B102000800008800008800008800008800008800008000000000020000220000220000220000220000220000280E742
:2B104B00800008800008800008800008800008800008000000000020000220000220000220000220000220000280E717
:2B107600000000000000000000000000000000000000000000000000000000000000000000000000000000000080E7E8
:2B10A100000000000000000000000000000000000000000000000000000000000000000000000000000000000080E7BD
:2B10CC00000000000000000000000000000000000000000000000000000000000000000000000000000000000080E792
:2B10F700000000000000000000000000000000000002000000000000000000000000000000000000000000000080C785
:2B112200000000000000000000000000000000000002000000000000000000000000000000000000000000000080C759
:2B114D00000000000000000000000000000000000000000000000000000000000000000000000000000000000080E710
:2B117800000000000000000000000000000000000000000000000000000000000000000000000000000000000080E7E5
:2B11A300020000000000000000000000000000000000000000000000000000000000000000000000000000000008ED2A
:2B11CE00000000000000000000000000000000000000000000000000000000000000000000000000000000000080E78F
:2B11F900020000000000000000000000000000000000000000000000000000000000000000000000000000000080E564
:2B122400000000000000000000000000000000000000000000000000000000000000000000000000000000000080E738
:2B124F00020000000000000000000000000000000000000000000000000000000000000000000000000000000080E50D
:2B127A00000000000000000000000000000000000000000000000000000000000000000000000000000000000080E7E2
:2B12A500000000000000000000000000000000000000000000000000000000000000000000000000000000000080E7B7
:2B12D000000000000000000000000000000000000000000000000000000000000000000000000000000000000080E78C
:2B12FB00000000000000000000000000000000000000000000000000000000000000000000000000000000000080E761
:2B132600000000000000000000000000000000000000000000000000000000000000000000000000000000000080E735
:2B135100000000000000000000000000000000000000000000000000000000000000000000000000000000000080E70A
:2B137C00000000000000000000000000000000000000000000000000000000000000000000000000000000000080E7DF
:2B13A700000000000000000000000000000000000000000000000000000000000000000000000000000000000080E7B4
:2B13D200000000000000000000000000000000000000000000000000000000000000000000000000000000000080E789
:2B13FD00000000000000000000000000000000000000000000000000000000000000000000000000000000000080E75E
:2B142800000000000000000000000000000000000040000000000000000000000000000000000000000000000080A336
:2B145300080000000000000000000000000000000000000000000000000000000000000000000000000000000080EFF7
:2B147E00000000000000000000000000000000000000000000000000000000000000000000000000000000000080E7DC
:2B14A900020000000000000000000000000000000000000000000000000000000000000000000000000000000080E5B1
:2B14D400000000000000000000000000000000000000000000000000000000000000000000000000000000000080E786
:2B14FF00000000000000000000000000000000000010000000000000000000000000000000000000000000000080F63C
:2B152A00080000000000000000000000000000000000100000000000000000000000000000000000000000000080FFFF
:2B1555000000000000000000000000000000000000000000000000000000000000000000000000000000000000C0A308
:2B158000000000000000000000000000000000000004000000000000000000000000000000000000000000000080A715
:2B15AB00000000000000000000000000000000000028000000000000000000000000000000000000000000000000CD20
:2B15D600000000000000000000000000000000000030000000000000000000000000000000000000000000000080D466
:2B16010000000000000040000000008000088020008000000000000000000000000000000000000000000000008087CF
:2B162C00020000000000400000000000000000000000000000000000000000000000000000000000000000000080A52C
:2B165700000000000000000000000000000000000010040000000000000000000000000000000000000000000008FA52
:2B168200000000000000000000000080000880000000000000000000000000000000000000000000000000000088EFBE
:2B16AD00000000000000000000000000000000A00080000000000000000000000000000000000000000000000008C723
:2B16D800000000000000000000000000000000000000000000000000000000000000000000000000000000000008EFF0
:2B170300020000000000000000000000000000000000000000000000000000000000000000000000000000000080E554
:2B172E00800008800008800008800008800008800008000000000020000220000220000220000220000220000280E72D
:2B175900800008800008800008800008800008800008000000000020000220000220000220000220000220000280E702
:2B178400000000000000000000000000000000000000000000000000000000000000000000000000000000000080E7D3
:2B17AF0006000000000000000000000000000000001E02000000000000000000000000000000000000000000008892CF
:2B17DA000A0000000000000000000000000000000000000000000000000000000000000000000000000000000080ED6D
:2B18050004000000000000000000000000000000003C08000000000000000000000000000000000000000000000090E0
:2B183000020000000000000000000000000000000000080000000000000000000000000000000000000000000080ED16
:2B185B00020000000000000000000000000000000020000000000000000000000000000000000000000000000080C7F9
:2B188600000000000000000000000000000000000018000000000000000000000000000000000000000000000088F6A1
:2B18B100000000000000000000000000000000000018000000000000000000000000000000000000000000000000FEF6
:2B18DC00000000000000000000000000000000000000000000000000000000000000000000000000000000000080E77A
:2B19070000000000000000000000000000000000001E0200000000000000000000000000000000000000000000009CF9
:2B193200020000000000000000000000000000000000020000000000000000000000000000000000000000000080E71F
:2B195D0000000000000000000000000000000000003C0000000000000000000000000000000000000000000000889407
:2B198800000000000000000000000000000000000000080000000000000000000000000000000000000000000008E73D
:2B19B300000000000000000000000000000000000000000000000000000000000000000000000000000000000008EF12
:2B19DE00000000000000000000000000000000000018000000000000000000000000000000000000000000000088F648
:2B1A0900020000000000000000000000000000000018000000000000000000000000000000000000000000000000FC9C
:2B1A3400000000000000000000000000000000000000000000000000000000000000000000000000000000000080E720
:2B1A5F0000000000000000000000000000000000001E0200000000000000000000000000000000000000000000009CA0
:2B1A8A00000000000000000000000000000000000000040000000000000000000000000000000000000000000080E3CA
:2B1AB50006000000000000000000000000000000003C00000000000000000000000000000000000000000000008892AA
:2B1AE0000A0000000000000000000000000000000020000000000000000000000000000000000000000000000080CF62
:2B1B0B00040000000000000000000000000000000000000000000000000000000000000000000000000000000080E348
:2B1B3600020000000000000000000000000000000018000000000000000000000000000000000000000000000000FC6E
:2B1B6100020000000000000000000000000000000018000000000000000000000000000000000000000000000000FC43
:2B1B8C00000000000000000000000000000000000000000000000000000000000000000000000000000000000008EF37
:2B1BB70000000000000000000000000000000000001E0200000000000000000000000000000000000000000000009C47
:2B1BE200000000000000000000000000000000000020000000000000000000000000000000000000000000000080C573
:2B1C0D0000000000000000000000000000000000003C0000000000000000000000000000000000000000000000009CD4
:2B1C3800020000000000000000000000000000000000000000000000000000000000000000000000000000000018FC6B
:2B1C6300000000000000000000000000000000000020010000000000000000000000000000000000000000000028EE1F
:2B1C8E00000000000000000000000000000000000018000000000000000000000000000000000000000000000010EF14
:2B1CB900000000000000000000000000000000000018000000000000000000000000000000000000000000000088F66A
:2B1CE400000000000000000000000000000000000000000000000000000000000000000000000000000000000008EFDE
:2B1D0F0002000000000000000000000000000000001E0200000000000000000000000000000000000000000000009EE9
:2B1D3A00000000000000000000000000000000000000000000000000000000000000000000000000000000000080E717
:2B1D650000000000000000000000000000000000001C100000000000000000000000000000000000000000000000AE79
:2B1D9000000000000000000000000000000000000000000000000000000000000000000000000000000000000080E7C1
:2B1DBB00060000000000000000000000000000000000010000000000000000000000000000000000000000000008E806
:2B1DE6000A0000000000000000000000000000000018000000000000000000000000000000000000000000000000F4BC
:2B1E1100040000000000000000000000000000000018000000000000000000000000000000000000000000000000FA90
:2B1E3C00020000000000000000000000000000000000000000000000000000000000000000000000000000000080E514
:2B1E670002000000000000000000000000000000001E0200000000000000000000000000000000000000000000009E90
:2B1E9200000000000000000000000000000000000000100000000000000000000000000000000000000000000008FF0E
:2B1EBD0000000000000000000000000000000000003C0000000000000000000000000000000000000000000000009C22
:2B1EE800000000000000000000000000000000000000020000000000000000000000000000000000000000000080E568
:2B1F1300000000000000000000000000000000000000000000000000000000000000000000000000000000000080E73C
:2B1F3E00020000000000000000000000000000000018000000000000000000000000000000000000000000000000FC62
:2B1F6900000000000000000000000000000000000018000000000000000000000000000000000000000000000088F6B7
:2B1F9400000000000000000000000000000000000000000000000000000000000000000000000000000000000008EF2B
:2B1FBF0000000000000000000000000000000000001E02000000000000000000000000000000000000000000008894BB
:2B1FEA00000000000000000000000000000000000000000000000000000000000000000000000000000000000008EFD5
:2B20150002000000000000000000000000000000003C1000000000000000000000000000000000000000000000008EC4
:2B204000000000000000000000000000000000000000100000000000000000000000000000000000000000000080F7EE
:2B206B00000000000000000000000000000000000000000000000000000000000000000000000000000000000080E7E3
:2B209600000000000000000000000000000000000018000000000000000000000000000000000000000000000000FE09
:2B20C100000000000000000000000000000000000018000000000000000000000000000000000000000000000000FEDE
:2B20EC00020000000000000000000000000000000000000000000000000000000000000000000000000000000008EDD2
:2B21170002000000000000000000000000000000001E020000000000000000000000000000000000000000000088965D
:2B214200020000000000000000000000000000000000010000000000000000000000000000000000000000000008EC7B
:2B216D0002000000000000000000000000000000001C000000000000000000000000000000000000000000000088B4ED
:2B219800000000000000000000000000000000000000000000000000000000000000000000000000000000000080E7B5
:2B21C300000000000000000000000000000000000000040000000000000000000000000000000000000000000080E38A
:2B21EE00000000000000000000000000000000000018000000000000000000000000000000000000000000000000FEB0
:2B221900000000000000000000000000000000000018000000000000000000000000000000000000000000000010EF83
:2B224400020000000000000000000000000000000000000000000000000000000000000000000000000000000018FC59
:2B226F00000000000000000000000000000000000000000000000000000000000000000000000000000000000080E7DD
:2B229A00800008800008800008800008800008800008000000000020000220000220000220000220000220000280E7B6
:2B22C500800008800008800008800008800008800008000000000020000220000220000220000220000220000280E78B
:2B22F000000000000000000000000000000000004181000000000000000000000000000000000000000000000000E21F
:2B231B00000000000000000000000000000000000000000000000000000000000000000000000000000000000080E730
:2B234600200002200000000000000000000000000100000000000000000000000000000000000000000000000080D6D3
:2B237100000000000000000000000000000000000000000000000000000000000000000000000000000000000080E7DA
:2B239C00200002200000000000000000000000000089000000000000000000000000000000000000000000000080DFEC
:2B23C700000000000000000000000000000000000000010000000000000000000000000000000000000000000080E684
:2B23F200000000000000000000000000000000000000080000000000000000000000000000000000000000000080EF49
:2B241D00000000000000000000000000000000000000000000000000000000000000000000000000000000000080E72D
:2B244800000000000000000000000000000000000000020000000000000000000000000000000000000000000080E502
:2B2473000800000000000000000000000000000000000C00000000000000000000000000000000000000000000C0A7C3
:2B249E00000000000000000000000000000000000000040000000000000000000000000000000000000000000080E3AC
:2B24C900000000000000000000000000000000000000000000000000000000000000000000000000000000000080E781
:2B24F400000000000000000000000000000000000000000000000000000000000000000000000000000000000080E756
:2B251F00000000000000000000000000000000000004100000000000000000000000000000000000000000000080B746
:2B254A00080000000000000000000000000000000000000000000000000000000000000000000000000000000080EFEF
:2B257500000000000000000000000000000000000000000000000000000000000000000000000000000000000080E7D4
:2B25A0000000000000000000000000000000000000000000000000000000000000000000000000000000000000C0A3AD
:2B25CB00000000000000000000000000000000000000000000000000000000000000000000000000000000000080E77E
:2B25F600000000000000000000000000000000000080000000000000000000000000000000000000000000000000E753
:2B262100000000000000000000000000000000000000000000000000000000000000000000000000000000000080E727
:2B264C00100000000000000000000000000000000000000000000000000000000000000000000000000000000080F7DC
:2B267700000000000000000000000000000000000000000000000000000000000000000000000000000000000080E7D1
:2B26A200000000000000000000000000000000000000000000000000000000000000000000000000000000000080E7A6
:2B26CD00000000000000000000000000000000000000000000000000000000000000000000000000000000000080E77B
:2B26F800000000000000000000000000000000000000000000000000000000000000000000000000000000000080E750
:2B272300000000000000000000000000000000000000000000000000000000000000000000000000000000000080E724
:2B274E00000000000000000000000000000000000000000000000000000000000000000000000000000000000080E7F9
:2B277900000000000000000000000000000000000000000000000000000000000000000000000000000000000080E7CE
:2B27A400100000000000000000000000000000000000000000000000000000000000000000000000000000000080F783
:2B27CF00000000000000000000000000000000000000000000000000000000000000000000000000000000000080E778
:2B27FA00000000000000000000000000000000000000000000000000000000000000000000000000000000000080E74D
:2B282500000000000000000000000000000000000000000000000000000000000000000000000000000000000080E721
:2B285000000000000000000000000000000000000000000000000000000000000000000000000000000000000080E7F6
:2B287B00000000000000000000000000000000000000080000000000000000000000000000000000000000000080EFBB
:2B28A600060000000000000000000000000000000000000000000000000000000000000000000000000000000008E910
:2B28D1000A0000000000000000000000000000000000000000000000000000000000000000000000000000000080ED65
:2B28FC00040000000000000000000000000000000000080000000000000000000000000000000000000000000080EB3A
:2B292700020000000000000000000000000000000000000000000000000000000000000000000000000000000080E51E
:2B295200020000000000000000000000000000000000000000000000000000000000000000000000000000000080E5F3
:2B297D00000000000000000000000000000000000000000000000000000000000000000000000000000000000008EF38
:2B29A800800008800008800008800008800008800008000000000020000220000220000220000220000220000280E7A1
:2B29D300800008800008800008800008800008800008000000000020000220000220000220000220000220000280E776
:2B29FE00000000000000000000000000000000000000000000000000000000000000000000000000000000000080E747
:2B2A2900020000000000000000000000000000000000000000000000000000000000000000000000000000000008ED8B
:2B2A5400000000000000000000000000000000000000000000000000000000000000000000000000000000000080E7F0
:2B2A7F00000000000000000000000000000000000000000000000000000000000000000000000000000000000080E7C5
:2B2AAA00000000000000000000000000000000000000000000000000000000000000000000000000000000000080E79A
:2B2AD500000000000000000000000000000000000000000000000000000000000000000000000000000000000080E76F
:2B2B0000020000000000000000000000000000000000000000000000000000000000000000000000000000000008EDB3
:2B2B2B00000000000000000000000000000000000000000000000000000000000000000000000000000000000080E718
:2B2B5600000000000000000000000000000000000000000000000000000000000000000000000000000000000080E7ED
:2B2B8100000000000000000000000000000000000000000000000000000000000000000000000000000000000080E7C2
:2B2BAC00020000000000000000000000000000000000000000000000000000000000000000000000000000000008ED07
:2B2BD700000000000000000000000000000000000000000000000000000000000000000000000000000000000080E76C
:2B2C0200000000000000000000000000000000000000000000000000000000000000000000000000000000000080E740
:2B2C2D00000000000000000000000000000000000000000000000000000000000000000000000000000000000080E715
:2B2C5800000000000000000000000000000000000000000000000000000000000000000000000000000000000080E7EA
:2B2C8300020000000000000000000000000000000000000000000000000000000000000000000000000000000008ED2F
:2B2CAE00000000000000000000000000000000000000000000000000000000000000000000000000000000000080E794
:2B2CD900000000000000000000000000000000000000000000000000000000000000000000000000000000000080E769
:2B2D0400000000000000000000000000000000000000000000000000000000000000000000000000000000000080E73D
:2B2D2F00020000000000000000000000000000000000000000000000000000000000000000000000000000000008ED82
:2B2D5A00000000000000000000000000000000000000000000000000000000000000000000000000000000000080E7E7
:2B2D8500000000000000000000000000000000000000000000000000000000000000000000000000000000000080E7BC
:2B2DB000000000000000000000000000000000000000000000000000000000000000000000000000000000000080E791
:2B2DDB00000000000000000000000000000000000000000000000000000000000000000000000000000000000080E766
:2B2E0600020000000000000000000000000000000000000000000000000000000000000000000000000000000008EDAA
:2B2E3100000000000000000000000000000000000000000000000000000000000000000000000000000000000080E70F
:2B2E5C00000000000000000000000000000000000000000000000000000000000000000000000000000000000080E7E4
:2B2E8700000000000000000000000000000000000000000000000000000000000000000000000000000000000080E7B9
:2B2EB200020000000000000000000000000000000000000000000000000000000000000000000000000000000008EDFE
:2B2EDD00000000000000000000000000000000000000000000000000000000000000000000000000000000000080E763
:2B2F0800000000000000000000000000000000000000000000000000000000000000000000000000000000000080E737
:2B2F3300000000000000000000000000000000000000000000000000000000000000000000000000000000000080E70C
:2B2F5E00000000000000000000000000000000000000000000000000000000000000000000000000000000000080E7E1
:2B2F8900020000000000000000000000000000000000000000000000000000000000000000000000000000000008ED26
:2B2FB400000000000000000000000000000000000000000000000000000000000000000000000000000000000080E78B
:2B2FDF00000000000000000000000000000000000000000000000000000000000000000000000000000000000080E760
:2B300A00000000000000000000000000000000000000000000000000000000000000000000000000000000000080E734
:2B303500020000000000000000000000000000000000000000000000000000000000000000000000000000000008ED79
:2B306000000000000000000000000000000000000000000000000000000000000000000000000000000000000080E7DE
:2B308B00000000000000000000000000000000000000000000000000000000000000000000000000000000000080E7B3
:2B30B600000000000000000000000000000000000000000000000000000000000000000000000000000000000080E788
:2B30E100000000000000000000000000000000000000000000000000000000000000000000000000000000000080E75D
:2B310C00020000000000000000000000000000000000000000000000000000000000000000000000000000000008EDA1
:2B313700000000000000000000000000000000000000000000000000000000000000000000000000000000000080E706
:2B316200000000000000000000000000000000000000000000000000000000000000000000000000000000000080E7DB
:2B318D00000000000000000000000000000000000000000000000000000000000000000000000000000000000080E7B0
:2B31B800020000000000000000000000000000000000000000000000000000000000000000000000000000000008EDF5
:2B31E300000000000000000000000000000000000000000000000000000000000000000000000000000000000080E75A
:2B320E00000000000000000000000000000000000000000000000000000000000000000000000000000000000080E72E
:2B323900000000000000000000000000000000000000000000000000000000000000000000000000000000000080E703
:2B326400000000000000000000000000000000000000000000000000000000000000000000000000000000000080E7D8
:2B328F00020000000000000000000000000000000000000000000000000000000000000000000000000000000008ED1D
:2B32BA00000000000000000000000000000000000000000000000000000000000000000000000000000000000080E782
:2B32E500000000000000000000000000000000000000000000000000000000000000000000000000000000000080E757
:2B331000000000000000000000000000000000000000000000000000000000000000000000000000000000000080E72B
:2B333B00020000000000000000000000000000000000000000000000000000000000000000000000000000000008ED70
:2B336600000000000000000000000000000000000000000000000000000000000000000000000000000000000080E7D5
:2B339100000000000000000000000000000000000000000000000000000000000000000000000000000000000080E7AA
:2B33BC00000000000000000000000000000000000000000000000000000000000000000000000000000000000080E77F
:2B33E700000000000000000000000000000000000000000000000000000000000000000000000000000000000080E754
:2B341200020000000000000000000000000000000000000000000000000000000000000000000000000000000008ED98
:2B343D00000000000000000000000000000000000000000000000000000000000000000000000000000000000080E7FD
:2B346800000000000000000000000000000000000000000000000000000000000000000000000000000000000080E7D2
:2B349300000000000000000000000000000000000000000000000000000000000000000000000000000000000080E7A7
:2B34BE00000000000000000000000000000000000000000000000000000000000000000000000000000000000080E77C
:2B34E900000000000000000000000000000000000000000000000000000000000000000000000000000000000080E751
:2B351400800008800008800008800008800008800008000000000020000220000220000220000220000220000280E729
:2B353F00800008800008800008800008800008800008000000000020000220000220000220000220000220000280E7FE
:2B356A00000000000000000000000000000000000000000000000000000000000000000000000000000000000080E7CF
:2B359500000000000000000000000000000000000000000000000000000000000000000000000000000000000080E7A4
:2B35C000000000000000000000000000000000000000000000000000000000000000000000000000000000000080E779
:2B35EB00000000000000000000000000000000000000000000000000000000000000000000000000000000000080E74E
:2B361600000000000000000000000000000000000000000000000000000000000000000000000000000000000080E722
:2B364100000000000000000000000000000000000000000000000000000000000000000000000000000000000080E7F7
:2B366C00000000000000000000000000000000000000000000000000000000000000000000000000000000000080E7CC
:2B369700000000000000000000000000000000000000000000000000000000000000000000000000000000000080E7A1
:2B36C200000000000000000000000000000000000000000000000000000000000000000000000000000000000080E776
:2B36ED00000000000000000000000000000000000000000000000000000000000000000000000000000000000080E74B
:2B371800000000000000000000000000000000000000000000000000000000000000000000000000000000000080E71F
:2B374300000000000000000000000000000000000000000000000000000000000000000000000000000000000080E7F4
:2B376E00000000000000000000000000000000000000000000000000000000000000000000000000000000000080E7C9
:2B379900000000000000000000000000000000000000000000000000000000000000000000000000000000000080E79E
:2B37C400000000000000000000000000000000000000000000000000000000000000000000000000000000000080E773
:2B37EF00000000000000000000000000000000000000000000000000000000000000000000000000000000000080E748
:2B381A00000000000000000000000000000000000000000000000000000000000000000000000000000000000080E71C
:2B384500000000000000000000000000000000000000000000000000000000000000000000000000000000000080E7F1
:2B387000000000000000000000000000000000000000000000000000000000000000000000000000000000000080E7C6
:2B389B00000000000000000000000000000000000020000000000000000000000000000000000000000000000080C59D
:2B38C600000000000000000000000000000000000080020000000000000000000000000000000000000000000000E570
:2B38F100000000000000000000000000000000000000010000000000000000000000000000000000000000000080E645
:2B391C00000000000000000000000000000000000000000000000000000000000000000000000000000000000080E719
:2B394700A0100AA110044110044110044110044110840200000000100441100441100441100441100441100441808C06
:2B397200C01DDCC11D866118866118866118866118860500000000188661188661188661188661188661188661009E74
:02399D00FFFF2A
:00000001FF
