:100000007EFF9080007401F09080027400F0120076
:10001000999080007406F09080027476F012009936
:100020009080007408F0908002740DF0120099DE48
:10003000D17400908000F0908002F074137D5BCD4D
:100040007FFF908001F01200999080027401F0749B
:100050005B908001F07B0279FF7AFFDAFED9FADB50
:10006000F67400120099F07B0279FF7AFFDAFED96C
:10007000FADBF6740090A004F0ED90A000F090B0D0
:1000800000F012009012009090A00474FFF00100A4
:1000900079FF7AFFDAFED9FA2279057AFFDAFED9FA
:0200A000FA2242
:00000001FF
