:020000040000FA
:4D000000FFFF62FF3900FFFFFFFFFFFFFFFFFFFFFFFFFFFFFFFFFFFFFFFFFFFFFFFFFFFFFFFFFFFFFFFFFFFFFFFFFFFFFFFFFFFFFFFFFFFFFFFFFFFFFFFFFFFFFFFFFFFFFFFFFFFFFFFFFFFFFFFFFFFFFF62
:4D004D00A009340130D004C040130059200B64812C9203069A001900034D00E48001000000000000000000000000000000000C90812600B29A441368024DA00934AC26D0044016C86A024DA0093401C8FD3F
:4D009A000015A00248800A20012A800A50012A4005BC000950012E8004A8002A40020000000000000000000000000000000012E002540015D0032A4005A80015A00554800AA002544005A80015A00298FF0F
:4D00E70000000000000000000000000000000000000000000000000000000000000000000000000000000000000000000000000000000000000000000000000000000000000000000000000000000098FF35
:4D01340000000000000000000000000000000000000000000000000000000000000000000000000000000000000000000000000000000000000000000000000000000000000000000000000000000098FFE7
:4D018100000000000000000000000000000000000004000000000201000000000000000000000000000000000000000000000020000000000202000000000000000000000000000000000000000000E8FD21
:4D01CE00000000000000000000000000000000000080000000000800000000000000000000000000000000400000000000000000020000008000000000000000000000000000000000000000000000F0FDAD
:4D021B0000000000000000000000000000000000000000001A00000000000000000000000000000000000000000000000000000000000000000000000000000000000000000000000000000000000038FE46
:4D02680000000000000000000000000000000000000000000000000000000000000000000000000000000000000000000000000000000000000000000000000000000000000000000000000000000098FFB2
:4D02B50000000000000000000000000000000000000000001800000000000000000000000000000000000000000000000000000000000000000000000000000000000000000000000000000000000018FECE
:4D03020000000000000000000000000000000000000000008010000000000000000000000000000000000000000000000000000000000000000000000000000000000000000000000000000000000000FF1F
:4D034F0000000000000000000000000000000000000000008000000000000000000000000000000000000000000000000000000000000000000000000000000000000000000000000000000000000010FFD2
:4D039C00000000000000000000000000000000000000000006080000000000000000000000000000000000000000000000000000000000000000000000000000000000000000000000000000000000F0FF17
:4D03E90000000000000000000000000000000000000000001810000000000000000000000000000000000000000000000000000000000000000000000000000000000000000000000000000000000008FE99
:4D04360000000000000000000000000000000000000000001801000000000000000000000000000000000000000000000000000000000000000000000000000000000000000000000000000000000008FF59
:4D04830000000000000000000000000000000000000000001A00000000000000000000000000000000000000000000000000000000000000000000000000000000000000000000000000000000000038FEDC
:4D04D00000000000000000000000000000000000000000000000000000000000000000000000000000000000000000000000000000000000000000000000000000000000000000000000000000000098FF48
:4D051D0000000000000000000000000000000000000000001800000000000000000000000000000000000000000000000000000000000000000000000000000000000000000000000000000000000018FE63
:4D056A0008000000000000000000000000000000000000000010000000000000000000000000000000000000000000000000000000000000000000000000000000000000000000000000000000000091FE9D
:4D05B70000000000000000000000000000000000000000008000000000000000000000000000000000000000000000000000000000000000000000000000000000000000000000000000000000000023FC58
:4D060400000000000000000000000000000000000000000006080000000000000000000000000000000000000000000000000000000000000000000000000000000000000000000000000000000000F0FFAC
:4D0651000400000000000000000000000000000000000000180000000000000000000000000000000000000000000000000000000000000000000000000000000000000000000000000000000000007AF8CE
:4D069E0000000000000000000000000000000000000000009808000000000000000000000000000000000000000000000000000000000000000000000000000000000000000000000000000000000098FED9
:4D06EB0010000000000000000000000000000000000000000A03000000000000000000000000000000000000000000000000000000000000000000000000000000000000000000000000000000000018FC91
:4D07380000000000000000000000000000000000000000000000000000000000000000000000000000000000000000000000000000000000000000000000000000000000000000000000000000000098FFDD
:4D07850000000000000000000000000000000000000000000000000000000000000000000000000000000000000000000000000000000000000000000000000000000000000000000000000000000098FF90
:4D07D2000C0000000000000000000000000000000000000000080000000000000000000000000000000000000000000000000000000000000000000000000000000000000000000000000000000000FAF9D3
:4D081F0004000000000000000000000000000000000000001801000000000000000000000000000000000000000000000000000000000000000000000000000000000000000000000000000000000048FB2C
:4D086C00000000000000000000000000000000000000000016040000000000000000000000000000000000000000000000000000000000000000000000000000000000000000000000000000000000B8FA73
:4D08B9000C000000000000000000000000000000000000001800000000000000000000000000000000000000000000000000000000000000000000000000000000000000000000000000000000000041FB92
:4D09060000000000000000000000000000000000000000000009000000000000000000000000000000000000000000000000000000000000000000000000000000000000000000000000000000000080FE1D
:4D09530000000000000000000000000000000000000000000A20000000000000000000000000000000000000000000000000000000000000000000000000000000000000000000000000000000000018FF16
:4D09A00000000000000000000000000000000000000000000000000000000000000000000000000000000000000000000000000000000000000000000000000000000000000000000000000000000098FF73
:4D09ED0000000000000000000000000000000000000000000000000000000000000000000000000000000000000000000000000000000000000000000000000000000000000000000000000000000098FF26
:4D0A3A0008000000000000000000000000000000000000000008000000000000000000000000000000000000000000000000000000000000000000000000000000000000000000000000000000000089FED8
:4D0A87000000000000000000000000000000000000000000180000000000000000000000000000000000000000000000000000000000000000000000000000000000000000000000000000000000002BFDE2
:4D0AD400000000000000000000000000000000000000000016040000000000000000000000000000000000000000000000000000000000000000000000000000000000000000000000000000000000B8FA09
:4D0B21000400000000000000000000000000000000000000180000000000000000000000000000000000000000000000000000000000000000000000000000000000000000000000000000000000007AF8F9
:4D0B6E0000000000000000000000000000000000000000000009000000000000000000000000000000000000000000000000000000000000000000000000000000000000000000000000000000000080FEB3
:4D0BBB0010000000000000000000000000000000000000001A00000000000000000000000000000000000000000000000000000000000000000000000000000000000000000000000000000000000028FE9D
:4D0C080000000000000000000000000000000000000000000000000000000000000000000000000000000000000000000000000000000000000000000000000000000000000000000000000000000098FF08
:4D0C550000000000000000000000000000000000000000001810000000000000000000000000000000000000000000000000000000000000000000000000000000000000000000000000000000000008FE24
:4D0CA2000C000000000000000000000000000000000000008000000000000000000000000000000000000000000000000000000000000000000000000000000000000000000000000000000000000049FA36
:4D0CEF0004000000000000000000000000000000000000008000000000000000000000000000000000000000000000000000000000000000000000000000000000000000000000000000000000000063F8D9
:4D0D3C00000000000000000000000000000000000000000006080000000000000000000000000000000000000000000000000000000000000000000000000000000000000000000000000000000000F0FF6D
:4D0D89000C00000000000000000000000000000000000000180800000000000000000000000000000000000000000000000000000000000000000000000000000000000000000000000000000000007AF87F
:4D0DD60000000000000000000000000000000000000000005800000000000000000000000000000000000000000000000000000000000000000000000000000000000000000000000000000000000018FA66
:4D0E230000000000000000000000000000000000000000000A09000000000000000000000000000000000000000000000000000000000000000000000000000000000000000000000000000000000020FE51
:4D0E700000000000000000000000000000000000000000000000000000000000000000000000000000000000000000000000000000000000000000000000000000000000000000000000000000000098FF9E
:4D0EBD0000000000000000000000000000000000000000000000000000000000000000000000000000000000000000000000000000000000000000000000000000000000000000000000000000000098FF51
:4D0F0A0008000000000000000000000000000000000000000008000000000000000000000000000000000000000000000000000000000000000000000000000000000000000000000000000000000089FE03
:4D0F5700000000000000000000000000000000000000000098040000000000000000000000000000000000000000000000000000000000000000000000000000000000000000000000000000000000E3F9D5
:4D0FA400000000000000000000000000000000000000000016000000000000000000000000000000000000000000000000000000000000000000000000000000000000000000000000000000000000F8FEF4
:4D0FF1000400000000000000000000000000000000000000180000000000000000000000000000000000000000000000000000000000000000000000000000000000000000000000000000000000007AF825
:4D103E0000000000000000000000000000000000000000000009000000000000000000000000000000000000000000000000000000000000000000000000000000000000000000000000000000000080FEDE
:4D108B0010000000000000000000000000000000000000008A080000000000000000000000000000000000000000000000000000000000000000000000000000000000000000000000000000000000A8FFCF
:4D10D80000000000000000000000000000000000000000000000000000000000000000000000000000000000000000000000000000000000000000000000000000000000000000000000000000000098FF34
:4D11250000000000000000000000000000000000000000000000000000000000000000000000000000000000000000000000000000000000000000000000000000000000000000000000000000000098FFE6
:4D1172000C0000000000000000000000000000000000000000080000000000000000000000000000000000000000000000000000000000000000000000000000000000000000000000000000000000C9FA59
:4D11BF000400000000000000000000000000000000000000180400000000000000000000000000000000000000000000000000000000000000000000000000000000000000000000000000000000002BFD9B
:4D120C00000000000000000000000000000000000000000016000000000000000000000000000000000000000000000000000000000000000000000000000000000000000000000000000000000000F8FE89
:4D1259000C000000000000000000000000000000000000001800000000000000000000000000000000000000000000000000000000000000000000000000000000000000000000000000000000000072F8BA
:4D12A60000000000000000000000000000000000000000000009000000000000000000000000000000000000000000000000000000000000000000000000000000000000000000000000000000000080FE74
:4D12F30000000000000000000000000000000000000000001A00000000000000000000000000000000000000000000000000000000000000000000000000000000000000000000000000000000000038FE5E
:4D13400000000000000000000000000000000000000000000000000000000000000000000000000000000000000000000000000000000000000000000000000000000000000000000000000000000098FFC9
:4D138D0000000000000000000000000000000000000000001800000000000000000000000000000000000000000000000000000000000000000000000000000000000000000000000000000000000018FEE5
:4D13DA00080000000000000000000000000000000000000040080000000000000000000000000000000000000000000000000000000000000000000000000000000000000000000000000000000000BAF9C3
:4D14270000000000000000000000000000000000000000008000000000000000000000000000000000000000000000000000000000000000000000000000000000000000000000000000000000000010FFE9
:4D147400000000000000000000000000000000000000000006080000000000000000000000000000000000000000000000000000000000000000000000000000000000000000000000000000000000F0FF2E
:4D14C10004000000000000000000000000000000000000001800000000000000000000000000000000000000000000000000000000000000000000000000000000000000000000000000000000000049FB7E
:4D150E00000000000000000000000000000000000000000098020000000000000000000000000000000000000000000000000000000000000000000000000000000000000000000000000000000000B0FC4A
:4D155B0000000000000000000000000000000000000000000000000000000000000000000000000000000000000000000000000000000000000000000000000000000000000000000000000000000098FFAC
:4D15A80020000480001000024000080001200004800010000240000800012000040000000000000000000000000000000020000480001000024000080001200004800010000240000800012000040098FF1B
:4D15F50000000000000000000000000000000000000000000000000000000000000000000000000000000000000000000000000000000000000000000000000000000000000000000000000000000098FF12
:4D164200240004800010000240000800012000048000100002400008000120000400000000000000000000000000000000200004800010000240000800012000048000100002400008000120000400C9FA50
:4D168F000C0000000000000000000000000000000000000000000000000000000000000000000000000000000000000000000000000000000000000000000000000000000000000000000000000000E3F827
:4D16DC0020000480001000024000080001200004800010000240000800012000040000000000000000000000000000000020000480001000024000080001200004800010000240000800012000040098FFE6
:4D172900080000000000000000000000000000000000000000000000000000000000000000000000000000000000000000000000000000000000000000000000000000000000000000000000000000B2FDBC
:4D17760020000480001000024000080001200004800010000240000800012000040000000000000000000000000000000020000480001000024000080001200004800010000240000800012000040098FF4B
:4D17C30000000000000000000000000000000000000000000000000000000000000000000000000000000000000000000000000000000000000000000000000000000000000000000000000000000098FF42
:4D18100000000000000000000000000000000000000000000000000000000000000000000000000000000000000000000000000000000000000000000000000000000000000000000000000000000098FFF4
:4D185D0000000000000000000000000000000000000000000800000000000000000000000000000000000000000000000000000000000000000000000000000000000000000000000000000000000018FF1F
:4D18AA00000000000000000000000000000000000000000000020000000000000000000000000000000000000000000000000000000000000000000000000000000000000000000000000000000000B8FD3A
:4D18F70000000000000000000000000000000000000000000000000000000000000000000000000000000000000000000000000000000000000000000000000000000000000000000000000000000098FF0D
:4D19440000000000000000000000000000000000000000000000000000000000000000000000000000000000000000000000000000000000000000000000000000000000000000000000000000000098FFBF
:4D19910000000000000000000000000000000000000000000000000000000000000000000000000000000000000000000000000000000000000000000000000000000000000000000000000000000098FF72
:4D19DE0000000000000000000000000000000000000000000000000000000000000000000000000000000000000000000000000000000000000000000000000000000000000000000000000000000098FF25
:4D1A2B000A0000000000000000000000000000000000000000000000000000000000000000000000000000000000000000000000000000000000000000000000000000000000000000000000000000B0FDB7
:4D1A780000000000004000000000000000000000000000000800A00000040000000000000000000000000000000000000000000000000000000000000000000000000000000000000000000000000030FD08
:4D1AC50000000000008000000000000000000000000000000800800000080000000000000000000000000000000000000000000000000000000000000000000000000000000000000000000000000010FFB5
:4D1B120000000000000000000000000000000000000000000000000000000000000000000000000000000000000000000000000000000000000000000000000000000000000000000000000000000098FFEF
:4D1B5F0000000000000000000000000000000000000000000000000000000000000000000000000000000000000000000000000000000000000000000000000000000000000000000000000000000098FFA2
:4D1BAC0000000000000000000000000000000000000000000000000000000000000000000000000000000000000000000000000000000000000000000000000000000000000000000000000000000098FF55
:4D1BF90000000000000000000000000000000000000000000000000000000000000000000000000000000000000000000000000000000000000000000000000000000000000000000000000000000098FF08
:4D1C460000000000000000000000000000000000000000000000000000000000000000000000000000000000000000000000000000000000000000000000000000000000000000000000000000000098FFBA
:4D1C930000000000000000000000000000000000000000000000000000000000000000000000000000000000000000000000000000000000000000000000000000000000000000000000000000000098FF6D
:4D1CE00000000000000000000000000000000000000000000000000000000000000000000000000000000000000000000000000000000000000000000000000000000000000000000000000000000098FF20
:4D1D2D0000000000000000000000000000000000000000000000000000000000000000000000000000000000000000000000000000000000000000000000000000000000000000000000000000000098FFD2
:4D1D7A00000000000000000000000000000000000000000000000000000000000000000000000000000000000000000000000000000000000000000000000000000000000000000000000000000000BAFD65
:4D1DC70000000000000000000000000000000000000000000000000000000000000000000000000000000000000000000000000000000000000000000000000000000000000000000000000000000098FF38
:4D1E140000000000000000000000000000000000000000000000000000000000000000000000000000000000000000000000000000000000000000000000000000000000000000000000000000000098FFEA
:4D1E610000000000000000000000000000000000000000000010000000000000000000000000000000000000000000000000000000000000000000000000000000000000000000000000000000000088FF9D
:4D1EAE0000000000000000000000000000000000000000000000000000000000000000000000000000000000000000000000000000000000000000000000000000000000000000000000000000000098FF50
:4D1EFB0000000000000000000000000000000000000000003000000000000000000000000000000000000000000000000000000000000000000000000000000000000000000000000000000000000098FCD6
:4D1F480000000000000000000000000000000000000000000000000000000000000000000000000000000000000000000000000000000000000000000000000000000000000000000000000000000098FFB5
:4D1F950000000000000000000000000000000000000000000000000000000000000000000000000000000000000000000000000000000000000000000000000000000000000000000000000000000098FF68
:4D1FE20000000000000000000000000000000000000000000008000000000000000000000000000000000000000000000000000000000000000000000000000000000000000000000000000000000090FF1B
:4D202F0000000000000000000000000000000000000000000000000000000000000000000000000000000000000000000000000000000000000000000000000000000000000000000000000000000098FFCD
:4D207C00000000000000000000000000000000000000000002000000000000000000000000000000000000000000000000000000000000000000000000000000000000000000000000000000000000B8FF5E
:4D20C900000000000000000000000000000000000000000042080000000000000000000000000000000000000000000000000000000000000000000000000000000000000000000000000000000000B0FBD5
:4D21160000000000000000000000000000000000000000002C00000000000000000000000000000000000000000000000000000000000000000000000000000000000000000000000000000000000058FDFB
:4D21630000000000000000000000000000000000000000000000000000000000000000000000000000000000000000000000000000000000000000000000000000000000000000000000000000000098FF98
:4D21B00000000000000000000000000000000000000000000000000000000000000000000000000000000000000000000000000000000000000000000000000000000000000000000000000000000098FF4B
:4D21FD0000000000000000000000000000000000000000000000000000000000000000000000000000000000000000000000000000000000000000000000000000000000000000000000000000000098FFFE
:4D224A0008000000000000000000000000000000000000000000000000000000000000000000000000000000000000000000000000000000000000000000000000000000000000000000000000000090FFB0
:4D22970000000000000000000000000000000000000000000000000000000000000000000000000000000000000000000000000000000000000000000000000000000000000000000000000000008045FA3B
:4D22E40008000000000000000000000000000000000000000000000000000000000000000000000000000000000000000000000000000000000000000000000000000000000000000000000000000090FF16
:4D233100000000000000000000000000000000000000000000005000000000000000000000000000000000000000000000000000000000000000000000000000000000000000000000000000000000C8FA4D
:4D237E0000001000000000000000000000000000000080000800B000000000000000000000000000000000000000000000000000000000000000000000000000000000000000000000000000000000A0FD2D
:4D23CB0000000800000000000000000000000000000000000400800000000000000000000000000000000000000000000000000000000000000000000000000000000000000000000000000000000050FFEA
:4D241800000000000000000000000000000000000000200000000000000000000000000000000000000000000000000000000000000000000000000000000000000000000000000000000000000000B8FFA0
:4D24650000000000000000000000000000000000000000000000000000000000000000000000000000000000000000000000000000000000000000000000000000000000000000000000000000000098FF93
:4D24B20000000000000000000000000000000000000000000000000000000000000000000000000000000000000000000000000000000000000000000000000000000000000000000000000000000098FF46
:4D24FF0000000000000000000000000000000000000000000000000000000000000000000000000000000000000000000000000000000000000000000000000000000000000000000000000000000098FFF9
:4D254C0000000000000000000000000000000000000000000000000000000000000000000000000000000000000000000000000000000000000000000000000000000000000000000000000000000098FFAB
:4D25990002000000000000000000000000000000000000000000000000000000000000000000000000000000000000000000000000000000000000000000000000000000000000000000000000008074F906
:4D25E60000000000000000000000000000000000000000000000000000000000000000000000000000000000000000000000000000000000000000000000000000000000000000000000000000000098FF11
:4D26330000000000000000000000000000000000000000000000000000000000000000000000000000000000000000000000000000000000000000000000000000000000000000000000000000000098FFC3
:4D26800000000000000000000000000000000000000000000000000000000000000000000000000000000000000000000000000000000000000000000000000000000000000000000000000000000098FF76
:4D26CD0000000000000000000000000000000000000000000000000000000000000000000000000000000000000000000000000000000000000000000000000000000000000000000000000000000098FF29
:4D271A0000000000000000000000000000000000000000001000000000000000000000000000000000000000000000000000000000000000000000000000000000000000000000000000000000000098FECC
:4D27670000000000000000000000000000000000000000000000000000000000000000000000000000000000000000000000000000000000000000000000000000000000000000000000000000000098FF8E
:4D27B40000000000000000000000000000000000000000000000000000000000000000000000000000000000000000000000000000000000000000000000000000000000000000000000000000000098FF41
:4D280100000000000000000000000000000000008006000000000000000000000000000000000000000000000000000000000000000000000000000000000000000000000000000000000000000000F0FF15
:4D284E0000000000000000000000000000000000000000000000000000000000000000000000000000000000000000000000000000000000000000000000000000000000000000000000000000000098FFA6
:4D289B00000000000000000000000000000000000006000000000000000000000000000000000000000000000000000000000000000000000000000000000000000000000000000000000000000000F8FFF3
:4D28E80000000000000000000000000000000000008000000000000000000000000000000000000000000000000000000000000000000000000000000000000000000000000000000000000000000010FF14
:4D293500000000000000000000000000000000000010040000000000000000000000000000000000000000000000000000000000000000000000000000000000000000000000000000000000000000D8FA6F
:4D29820000000000000000000000000000000000800100000000000000000000000000000000000000000000000000000000000000000000000000000000000000000000000000000000000000000080FF08
:4D29CF00000000000000000000000000000000000006000000000000000000000000000000000000000000000000000000000000000000000000000000000000000000000000000000000000000000F8FFBE
:4D2A1C00000000000000000000000000000000000026040000000000000000000000000000000000000000000000000000000000000000000000000000000000000000000000000000000000000000B8F992
:4D2A6900000000000000000000000000000000008006000000000000000000000000000000000000000000000000000000000000000000000000000000000000000000000000000000000000000000F0FFAB
:4D2AB60000000000000000000000000000000000000000000000000000000000000000000000000000000000000000000000000000000000000000000000000000000000000000000000000000000098FF3C
:4D2B0300000000000000000000000000000000000006040000000000000000000000000000000000000000000000000000000000000000000000000000000000000000000000000000000000000000B8FBC8
:4D2B500008000000000000000000000000000000004000000000000000000000000000000000000000000000000000000000000000000000000000000000000000000000000000000000000000000081FA75
:4D2B9D00000000000000000000000000000000000010040000000000000000000000000000000000000000000000000000000000000000000000000000000000000000000000000000000000000000EBF9F3
:4D2BEA0000000000000000000000000000000000800100000000000000000000000000000000000000000000000000000000000000000000000000000000000000000000000000000000000000000080FF9E
:4D2C3700040000000000000000000000000000000006040000000000000000000000000000000000000000000000000000000000000000000000000000000000000000000000000000000000000000DAFD6B
:4D2C8400000000000000000000000000000000000026000000000000000000000000000000000000000000000000000000000000000000000000000000000000000000000000000000000000000000F8FDE8
:4D2CD100000000000000000000000000000000008006000000000000000000000000000000000000000000000000000000000000000000000000000000000000000000000000000000000000000000F0FF41
:4D2D1E0000000000000000000000000000000000000000000000000000000000000000000000000000000000000000000000000000000000000000000000000000000000000000000000000000000098FFD1
:4D2D6B00000000000000000000000000000000000006020000000000000000000000000000000000000000000000000000000000000000000000000000000000000000000000000000000000000000D8FD3E
:4D2DB800040000000000000000000000000000000010000000000000000000000000000000000000000000000000000000000000000000000000000000000000000000000000000000000000000000FAF8C8
:4D2E05000C000000000000000000000000000000001004000000000000000000000000000000000000000000000000000000000000000000000000000000000000000000000000000000000000000090FED2
:4D2E520000000000000000000000000000000000800100000000000000000000000000000000000000000000000000000000000000000000000000000000000000000000000000000000000000000080FF33
:4D2E9F00080000000000000000000000000000000006000000000000000000000000000000000000000000000000000000000000000000000000000000000000000000000000000000000000000000E1FEF9
:4D2EEC00000000000000000000000000000000000046020000000000000000000000000000000000000000000000000000000000000000000000000000000000000000000000000000000000000000D8F980
:4D2F390010000000000000000000000000000000808200000000000000000000000000000000000000000000000000000000000000000000000000000000000000000000000000000000000000000028FF12
:4D2F860000000000000000000000000000000000000000000000000000000000000000000000000000000000000000000000000000000000000000000000000000000000000000000000000000000098FF67
:4D2FD30000000000000000000000000000000000000000000000000000000000000000000000000000000000000000000000000000000000000000000000000000000000000000000000000000000098FF1A
:4D3020000C0000000000000000000000000000000000020000000000000000000000000000000000000000000000000000000000000000000000000000000000000000000000000000000000000000D2FB88
:4D306D00040000000000000000000000000000000026010000000000000000000000000000000000000000000000000000000000000000000000000000000000000000000000000000000000000000A8F84B
:4D30BA00000000000000000000000000000000008005000000000000000000000000000000000000000000000000000000000000000000000000000000000000000000000000000000000000000000C0FF85
:4D3107000C0000000000000000000000000000000006040000000000000000000000000000000000000000000000000000000000000000000000000000000000000000000000000000000000000000E1FE86
:4D31540000000000000000000000000000000000001000000000000000000000000000000000000000000000000000000000000000000000000000000000000000000000000000000000000000000098FE88
:4D31A100000000000000000000000000000000008006000000000000000000000000000000000000000000000000000000000000000000000000000000000000000000000000000000000000000000F0FF6C
:4D31EE0000000000000000000000000000000000000000000000000000000000000000000000000000000000000000000000000000000000000000000000000000000000000000000000000000000098FFFD
:4D323B00000000000000000000000000000000000006000000000000000000000000000000000000000000000000000000000000000000000000000000000000000000000000000000000000000000F8FF49
:4D328800040000000000000000000000000000000040080000000000000000000000000000000000000000000000000000000000000000000000000000000000000000000000000000000000000000C1FEEE
:4D32D5000C0000000000000000000000000000000010040000000000000000000000000000000000000000000000000000000000000000000000000000000000000000000000000000000000000000A3FDEC
:4D33220000000000000000000000000000000000800100000000000000000000000000000000000000000000000000000000000000000000000000000000000000000000000000000000000000000080FF5E
:4D336F00080000000000000000000000000000000006000000000000000000000000000000000000000000000000000000000000000000000000000000000000000000000000000000000000000000D2FD34
:4D33BC00000000000000000000000000000000000006040000000000000000000000000000000000000000000000000000000000000000000000000000000000000000000000000000000000000000B8FB07
:4D340900000000000000000000000000000000008012000000000000000000000000000000000000000000000000000000000000000000000000000000000000000000000000000000000000000000B0FE36
:4D345600000000000000000000000000000000000000040000000000000000000000000000000000000000000000000000000000000000000000000000000000000000000000000000000000000000D8FB52
:4D34A30000000000000000000000000000000000000000000000000000000000000000000000000000000000000000000000000000000000000000000000000000000000000000000000000000000098FF45
:4D34F000040000000000000000000000000000000000020000000000000000000000000000000000000000000000000000000000000000000000000000000000000000000000000000000000000000DAFBB4
:4D353D000C0000000000000000000000000000000006000000000000000000000000000000000000000000000000000000000000000000000000000000000000000000000000000000000000000000B0FB84
:4D358A00000000000000000000000000000000008005010000000000000000000000000000000000000000000000000000000000000000000000000000000000000000000000000000000000000000D0FEA0
:4D35D700080000000000000000000000000000000006040000000000000000000000000000000000000000000000000000000000000000000000000000000000000000000000000000000000000000A1FAFA
:4D36240000000000000000000000000000000000001000000000000000000000000000000000000000000000000000000000000000000000000000000000000000000000000000000000000000000098FEB3
:4D367100100000000000000000000000000000008012000000000000000000000000000000000000000000000000000000000000000000000000000000000000000000000000000000000000000000A0FECC
:4D36BE00000000000000000000000000000000000000020000000000000000000000000000000000000000000000000000000000000000000000000000000000000000000000000000000000000000B8FD08
:4D370B0000000000000000000000000000000000000000000000000000000000000000000000000000000000000000000000000000000000000000000000000000000000000000000000000000000098FFDA
:4D3758000C0000000000000000000000000000000000020000000000000000000000000000000000000000000000000000000000000000000000000000000000000000000000000000000000000000E1F83D
:4D37A5000400000000000000000000000000000000460000000000000000000000000000000000000000000000000000000000000000000000000000000000000000000000000000000000000000008BFC06
:4D37F200000000000000000000000000000000008005010000000000000000000000000000000000000000000000000000000000000000000000000000000000000000000000000000000000000000D0FE36
:4D383F000C0000000000000000000000000000000006040000000000000000000000000000000000000000000000000000000000000000000000000000000000000000000000000000000000000000D2FD57
:4D388C0000000000000000000000000000000000001000000000000000000000000000000000000000000000000000000000000000000000000000000000000000000000000000000000000000000098FE49
:4D38D900000000000000000000000000000000008042040000000000000000000000000000000000000000000000000000000000000000000000000000000000000000000000000000000000000000F0FFED
:4D39260000000000000000000000000000000000000000000000000000000000000000000000000000000000000000000000000000000000000000000000000000000000000000000000000000000098FFBD
:4D39730000000000000000000000000000000000000000000000000000000000000000000000000000000000000000000000000000000000000000000000000000000000000000000000000000000098FF70
:4D39C00008000000000000000000000000000000000002000000000000000000000000000000000000000000000000000000000000000000000000000000000000000000000000000000000000000092FF1F
:4D3A0D00000000000000000000000000000000000016000000000000000000000000000000000000000000000000000000000000000000000000000000000000000000000000000000000000000000F8FE60
:4D3A5A00000000000000000000000000000000008005010000000000000000000000000000000000000000000000000000000000000000000000000000000000000000000000000000000000000000D0FECB
:4D3AA700040000000000000000000000000000000006040000000000000000000000000000000000000000000000000000000000000000000000000000000000000000000000000000000000000000E9FEDD
:4D3AF40000000000000000000000000000000000001000000000000000000000000000000000000000000000000000000000000000000000000000000000000000000000000000000000000000000098FEDF
:4D3B410010000000000000000000000000000000000000000000000000000000000000000000000000000000000000000000000000000000000000000000000000000000000000000000000000000088FFA0
:4D3B8E0020000480001000024000080001200004800010000240000800012000040000000000000000000000000000000020000480001000024000080001200004800010000240000800012000040098FF0F
:4D3BDB0000000000000000000000000000000000000000000000000000000000000000000000000000000000000000000000000000000000000000000000000000000000000000000000000000000098FF06
:4D3C28002C0004800010000240000800012000048000100002400008000120000400000000000000000000000000000000200004800010000240000800012000048000100002400008000120000400C1FA44
:4D3C7500040000000000000000000000000000000000000000000000000000000000000000000000000000000000000000000000000000000000000000000000000000000000000000000000000000EBF81B
:4D3CC20020000480001000024000080001200004800010000240000800012000040000000000000000000000000000000020000480001000024000080001200004800010000240000800012000040098FFDA
:4D3D0F000C0000000000000000000000000000000000000000000000000000000000000000000000000000000000000000000000000000000000000000000000000000000000000000000000000000F2F970
:4D3D5C0020000480001000024000080001200004800010000240000800012000040000000000000000000000000000000020000480001000024000080001200004800010000240000800012000040098FF3F
:4D3DA90000000000000000000000000000000000000000000000000000000000000000000000000000000000000000000000000000000000000000000000000000000000000000000000000000000098FF36
:4D3DF60000000000000000000000000000000000000000000000000000000000000000000000000000000000000000000000000000000000000000000000000000000000000000000000000000000098FFE9
:4D3E430000000000000000000000000000000000000000000000000000000000000000000000000000000000000000000000000000000000000000000000000000000000000000000000000000000098FF9B
:4D3E900000000000000000000000000000000000000000000000000000000000000000000000000000000000000000000000000000000000000000000000000000000000000000000000000000000098FF4E
:4D3EDD0000000000000000000000000000000000000000000000000000000000000000000000000000000000000000000000000000000000000000000000000000000000000000000000000000000098FF01
:4D3F2A0000000000000000000000000000000000000000000000000000000000000000000000000000000000000000000000000000000000000000000000000000000000000000000000000000000098FFB3
:4D3F770000000000000000000000000000000000000044000000000000000000000000000000000000000000000000000000000000000000000000000000000000000000000000000000000000000098FB26
:4D3FC40000000000000000000000000000000000000000000000000000000000000000000000000000000000000000000000000000000000000000000000000000000000000000000000000000000098FF19
:4D401100040000000000000000000000000000000000220000000000000000000000000000000000000000000000000000000000000000000000000000000000000000000000000000000000000000D8F96B
:4D405E0080001000000000000000000000000000000000020000000000000000000000000000000000000000000000000000000000000000000000000000000000000000000000000000000000000018FC6F
:4D40AB00000120000000000000000000000000000000000000000000000000000000000000000000000000000000000000000000000000000000000000000000000000000000000000000000000000DCF8D3
:4D40F80000000000000000000000000000000000000000000000000000000000000000000000000000000000000000000000000000000000000000000000000000000000000000000000000000000098FFE4
:4D41450000000000000000000000000000000000000000000000000000000000000000000000000000000000000000000000000000000000000000000000000000000000000000000000000000000098FF96
:4D41920000000000000000000000000000000000000000000000000000000000000000000000000000000000000000000000000000000000000000000000000000000000000000000000000000000098FF49
:4D41DF0000000000000000000000000000000000000000000000000000000000000000000000000000000000000000000000000000000000000000000000000000000000000000000000000000000098FFFC
:4D422C00000000000000000000000000000000000000020000000000000000000000000000000000000000000000000000000000000000000000000000000000000000000000000000000000000000B8FD8E
:4D42790000000000000000000000000000000000000000000000000000000000000000000000000000000000000000000000000000000000000000000000000000000000000000000000000000000098FF61
:4D42C60000000000000000000000000000000000000000000000000000000000000000000000000000000000000000000000000000000000000000000000000000000000000000000000000000000098FF14
:4D431300000000000000000000000000000000000002000000000000000000000000000000000000000000000000000000000000000000000000000000000000000000000000000000000000000000B8FFA4
:4D43600000000000000000000000000000000000000000000000000000000000000000000000000000000000000000000000000000000000000000000000000000000000000000000000000000000098FF79
:4D43AD0000000000000000000000000000000000000000000000000000000000000000000000000000000000000000000000000000000000000000000000000000000000000000000000000000000098FF2C
:4D43FA0000000000000000000000000000000000001000000000000000000000000000000000000000000000000000000000000000000000000000000000000000000000000000000000000000000098FED0
:4D44470000000000000000000000000000000000000000000000000000000000000000000000000000000000000000000000000000000000000000000000000000000000000000000000000000000098FF91
:4D44940000000000000000000000000000000000000000000000000000000000000000000000000000000000000000000000000000000000000000000000000000000000000000000000000000000098FF44
:4D44E10000000000000000000000000000000000008800000000000000000000000000000000000000000000000000000000000000000000000000000000000000000000000000000000000000000090FF77
:4D452E0000000000000000000000000000000000000000000000000000000000000000000000000000000000000000000000000000000000000000000000000000000000000000000000000000000098FFA9
:4D457B0000000000000000000000000000000000800000000000000000000000000000000000000000000000000000000000000000000000000000000000000000000000000000000000000000000090FFE4
:4D45C80000000000000000000000000000000000000000000000000000000000000000000000000000000000000000000000000000000000000000000000000000000000000000000000000000000098FF0F
:4D461500000000000000000000000000000000000004000000000000000000000000000000000000000000000000000000000000000000000000000000000000000000000000000000000000000000D8FF7D
:4D46620008000000000000000000000000000000800008000000000000000000000000000000000000000000000000000000000000000000000000000000000000000000000000000000000000000090FFEC
:4D46AF00000000000000000000000000000000000000020000000000000000000000000000000000000000000000000000000000000000000000000000000000000000000000000000000000000000B8FD07
:4D46FC0000000000000000000000000000000000008001000000000000000000000000000000000000000000000000000000000000000000000000000000000000000000000000000000000000000000FEF2
:4D474900020000000000000000000000000000000000000000000000000000000000000000000000000000000000000000000000000000000000000000000000000000000000000000000000000000B8FD6C
:4D47960000000000000000000000000000000000000000000000000000000000000000000000000000000000000000000000000000000000000000000000000000000000000000000000000000000098FF3F
:4D47E30000000000000000000000000000000000000000000000000000000000000000000000000000000000000000000000000000000000000000000000000000000000000000000000000000000098FFF2
:4D48300000000000000000000000000000000000000000000000000000000000000000000000000000000000000000000000000000000000000000000000000000000000000000000000000000000098FFA4
:4D487D000A000000000000000000000000000000000000000000000000000000000000000000000000000000000000000000000000000000000000000000000000000000000000000000000000008038FD2F
:4D48CA000A0000000000000000000000000000000000000000000000000000000000000000000000000000000000000000000000000000000000000000000000000000000000000000000000000000B0FDEA
:4D49170000000000000000000000000000000000000000000000000000000000000000000000000000000000000000000000000000000000000000000000000000000000000000000000000000000098FFBC
:4D4964000000000002000008000000000000000000020A2800000000000000000000000000000000000000000000000000000000000000000000000000000000000000000000000000000000000000B0FD1B
:4D49B10000000000010000040000000000000000000200200000000000000000000000000000000000000000000000000000000000000000000000000000000000000000000000000000000000000098F802
:4D49FE0000000000000000000000000000000000000000000000000000000000000000000000000000000000000000000000000000000000000000000000000000000000000000000000000000000098FFD5
:4D4A4B0000000000000000000000000000000000000000000000000000000000000000000000000000000000000000000000000000000000000000000000000000000000000000000000000000000098FF87
:4D4A980000000000000000000000000000000000000000000000000000000000000000000000000000000000000000000000000000000000000000000000000000000000000000000000000000000098FF3A
:4D4AE50000000000000000000000000000000000001000000000000000000000000000000000000000000000000000000000000000000000000000000000000000000000000000000000000000000098FEDE
:4D4B320000000000000000000000000000000000000000000000000000000000000000000000000000000000000000000000000000000000000000000000000000000000000000000000000000000098FF9F
:4D4B7F0010000000000000000000000000000000000000000000000000000000000000000000000000000000000000000000000000000000000000000000000000000000000000000000000000008022FD3A
:4D4BCC0000000000000000000000000000000000000000000000000000000000000000000000000000000000000000000000000000000000000000000000000000000000000000000000000000000098FF05
:4D4C190000000000000000000000000000000000000000000000000000000000000000000000000000000000000000000000000000000000000000000000000000000000000000000000000000000098FFB7
:4D4C660000000000000000000000000000000000000000000000000000000000000000000000000000000000000000000000000000000000000000000000000000000000000000000000000000000098FF6A
:4D4CB30000000000000000000000000000000000000000000000000000000000000000000000000000000000000000000000000000000000000000000000000000000000000000000000000000000098FF1D
:4D4D0000000000000000000000000000000000000004000000000000000000000000000000000000000000000000000000000000000000000000000000000000000000000000000000000000000000D8FF8B
:4D4D4D0000000000000000000000000000000000000000000000000000000000000000000000000000000000000000000000000000000000000000000000000000000000000000000000000000000098FF82
:4D4D9A0000000000000000000000000000000000000000000000000000000000000000000000000000000000000000000000000000000000000000000000000000000000000000000000000000000098FF35
:4D4DE70000000000000000000000000000000000000000001A00000000000000000000000000000000000000000000000000000000000000000000000000000000000000000000000000000000000038FE2F
:4D4E340000000000000000000000000000000000000000000000000000000000000000000000000000000000000000000000000000000000000000000000000000000000000000000000000000000098FF9A
:4D4E810000000000000000000000000000000000000000001800000000000000000000000000000000000000000000000000000000000000000000000000000000000000000000000000000000000018FEB6
:4D4ECE0000000000000000000000000000000000000000000009000000000000000000000000000000000000000000000000000000000000000000000000000000000000000000000000000000000080FE10
:4D4F1B0000000000000000000000000000000000000000004010000000000000000000000000000000000000000000000000000000000000000000000000000000000000000000000000000000000088FB76
:4D4F6800000000000000000000000000000000000000000006000000000000000000000000000000000000000000000000000000000000000000000000000000000000000000000000000000000000F8FFFF
:4D4FB50000000000000000000000000000000000000000001800000000000000000000000000000000000000000000000000000000000000000000000000000000000000000000000000000000000018FE81
:4D50020000000000000000000000000000000000000000001821000000000000000000000000000000000000000000000000000000000000000000000000000000000000000000000000000000000028FF01
:4D504F0000000000000000000000000000000000000000001A00000000000000000000000000000000000000000000000000000000000000000000000000000000000000000000000000000000000038FEC4
:4D509C0000000000000000000000000000000000000000000000000000000000000000000000000000000000000000000000000000000000000000000000000000000000000000000000000000000098FF30
:4D50E90000000000000000000000000000000000000000001808000000000000000000000000000000000000000000000000000000000000000000000000000000000000000000000000000000000010FE4C
:4D51360008000000000000000000000000000000000000000001000000000000000000000000000000000000000000000000000000000000000000000000000000000000000000000000000000000091FF93
:4D518300000000000000000000000000000000000000000040100000000000000000000000000000000000000000000000000000000000000000000000000000000000000000000000000000000000BBF8DC
:4D51D000000000000000000000000000000000000000000006000000000000000000000000000000000000000000000000000000000000000000000000000000000000000000000000000000000000F8FF95
:4D521D0004000000000000000000000000000000000000001808000000000000000000000000000000000000000000000000000000000000000000000000000000000000000000000000000000000072F8B6
:4D526A0000000000000000000000000000000000000000009800000000000000000000000000000000000000000000000000000000000000000000000000000000000000000000000000000000000090FED1
:4D52B70010000000000000000000000000000000000000000A10000000000000000000000000000000000000000000000000000000000000000000000000000000000000000000000000000000000038FF49
:4D53040000000000000000000000000000000000000000000000000000000000000000000000000000000000000000000000000000000000000000000000000000000000000000000000000000000098FFC5
:4D53510000000000000000000000000000000000000000000000000000000000000000000000000000000000000000000000000000000000000000000000000000000000000000000000000000000098FF78
:4D539E000C0000000000000000000000000000000000000000080000000000000000000000000000000000000000000000000000000000000000000000000000000000000000000000000000000000FAF9BB
:4D53EB0004000000000000000000000000000000000000001801000000000000000000000000000000000000000000000000000000000000000000000000000000000000000000000000000000000048FB15
:4D543800000000000000000000000000000000000000000016040000000000000000000000000000000000000000000000000000000000000000000000000000000000000000000000000000000000B8FA5B
:4D5485000C000000000000000000000000000000000000001810000000000000000000000000000000000000000000000000000000000000000000000000000000000000000000000000000000000051FB5A
:4D54D20000000000000000000000000000000000000000004000000000000000000000000000000000000000000000000000000000000000000000000000000000000000000000000000000000000098FBBA
:4D551F0010000000000000000000000000000000000000004A00000000000000000000000000000000000000000000000000000000000000000000000000000000000000000000000000000000000028FBC2
:4D556C0000000000000000000000000000000000000000000008000000000000000000000000000000000000000000000000000000000000000000000000000000000000000000000000000000000090FF5B
:4D55B90000000000000000000000000000000000000000000000000000000000000000000000000000000000000000000000000000000000000000000000000000000000000000000000000000000098FF0E
:4D5606000C0000000000000000000000000000000000000000080000000000000000000000000000000000000000000000000000000000000000000000000000000000000000000000000000000000FAF950
:4D56530004000000000000000000000000000000000000005804000000000000000000000000000000000000000000000000000000000000000000000000000000000000000000000000000000000018FA98
:4D56A000000000000000000000000000000000000000000016000000000000000000000000000000000000000000000000000000000000000000000000000000000000000000000000000000000000F8FEB1
:4D56ED000C000000000000000000000000000000000000001810000000000000000000000000000000000000000000000000000000000000000000000000000000000000000000000000000000000051FBF0
:4D573A0000000000000000000000000000000000000000004000000000000000000000000000000000000000000000000000000000000000000000000000000000000000000000000000000000000098FB4F
:4D57870000000000000000000000000000000000000000001A00000000000000000000000000000000000000000000000000000000000000000000000000000000000000000000000000000000000038FE85
:4D57D40000000000000000000000000000000000000000000000000000000000000000000000000000000000000000000000000000000000000000000000000000000000000000000000000000000098FFF1
:4D58210000000000000000000000000000000000000000001800000000000000000000000000000000000000000000000000000000000000000000000000000000000000000000000000000000000018FE0C
:4D586E0004000000000000000000000000000000000000008002000000000000000000000000000000000000000000000000000000000000000000000000000000000000000000000000000000000061F80E
:4D58BB000C0000000000000000000000000000000000000040100000000000000000000000000000000000000000000000000000000000000000000000000000000000000000000000000000000000F3FC55
:4D590800000000000000000000000000000000000000000006000000000000000000000000000000000000000000000000000000000000000000000000000000000000000000000000000000000000F8FF55
:4D5955000800000000000000000000000000000000000000180800000000000000000000000000000000000000000000000000000000000000000000000000000000000000000000000000000000003AFCA7
:4D59A20000000000000000000000000000000000000000001800000000000000000000000000000000000000000000000000000000000000000000000000000000000000000000000000000000000018FE8A
:4D59EF0000000000000000000000000000000000000000001A00000000000000000000000000000000000000000000000000000000000000000000000000000000000000000000000000000000000038FE1B
:4D5A3C0000000000000000000000000000000000000000000000000000000000000000000000000000000000000000000000000000000000000000000000000000000000000000000000000000000098FF86
:4D5A890000000000000000000000000000000000000000001800000000000000000000000000000000000000000000000000000000000000000000000000000000000000000000000000000000000018FEA2
:4D5AD600040000000000000000000000000000000000000000100000000000000000000000000000000000000000000000000000000000000000000000000000000000000000000000000000000000EAF98C
:4D5B23000C0000000000000000000000000000000000000040100000000000000000000000000000000000000000000000000000000000000000000000000000000000000000000000000000000000C0FF1A
:4D5B7000000000000000000000000000000000000000000006000000000000000000000000000000000000000000000000000000000000000000000000000000000000000000000000000000000000F8FFEB
:4D5BBD0008000000000000000000000000000000000000001808000000000000000000000000000000000000000000000000000000000000000000000000000000000000000000000000000000000009FF6B
:4D5C0A0000000000000000000000000000000000000000005800000000000000000000000000000000000000000000000000000000000000000000000000000000000000000000000000000000000018FAE3
:4D5C570010000000000000000000000000000000000000004A00000000000000000000000000000000000000000000000000000000000000000000000000000000000000000000000000000000000028FB83
:4D5CA40000000000000000000000000000000000000000000010000000000000000000000000000000000000000000000000000000000000000000000000000000000000000000000000000000000088FF1C
:4D5CF10000000000000000000000000000000000000000000000000000000000000000000000000000000000000000000000000000000000000000000000000000000000000000000000000000000098FFCF
:4D5D3E000C0000000000000000000000000000000000000000080000000000000000000000000000000000000000000000000000000000000000000000000000000000000000000000000000000000C9FA41
:4D5D8B000400000000000000000000000000000000000000180000000000000000000000000000000000000000000000000000000000000000000000000000000000000000000000000000000000006BF94B
:4D5DD800000000000000000000000000000000000000000016040000000000000000000000000000000000000000000000000000000000000000000000000000000000000000000000000000000000B8FAB2
:4D5E25000C000000000000000000000000000000000000001810000000000000000000000000000000000000000000000000000000000000000000000000000000000000000000000000000000000062F8A2
:4D5E720000000000000000000000000000000000000000004000000000000000000000000000000000000000000000000000000000000000000000000000000000000000000000000000000000000098FB10
:4D5EBF0000000000000000000000000000000000000000008A000000000000000000000000000000000000000000000000000000000000000000000000000000000000000000000000000000000000B0FF5D
:4D5F0C0000000000000000000000000000000000000000000010000000000000000000000000000000000000000000000000000000000000000000000000000000000000000000000000000000000088FFB1
:4D5F590000000000000000000000000000000000000000000000000000000000000000000000000000000000000000000000000000000000000000000000000000000000000000000000000000000098FF64
:4D5FA600040000000000000000000000000000000000000000080000000000000000000000000000000000000000000000000000000000000000000000000000000000000000000000000000000000F2F9B7
:4D5FF3000C000000000000000000000000000000000000009804000000000000000000000000000000000000000000000000000000000000000000000000000000000000000000000000000000000098FE23
:4D604000000000000000000000000000000000000000000016000000000000000000000000000000000000000000000000000000000000000000000000000000000000000000000000000000000000F8FE07
:4D608D0008000000000000000000000000000000000000001810000000000000000000000000000000000000000000000000000000000000000000000000000000000000000000000000000000000011FF86
:4D60DA0000000000000000000000000000000000000000004000000000000000000000000000000000000000000000000000000000000000000000000000000000000000000000000000000000000098FBA6
:4D61270010000000000000000000000000000000000000000000000000000000000000000000000000000000000000000000000000000000000000000000000000000000000000000000000000000088FF94
:4D61740020000480001000024000080001200004800010000240000800012000040000000000000000000000000000000020000480001000024000080001200004800010000240000800012000040098FF03
:4D61C10000000000000000000000000000000000000000000000000000000000000000000000000000000000000000000000000000000000000000000000000000000000000000000000000000000098FFFA
:4D620E002C0004800010000240000800012000048000100002400008000120000400000000000000000000000000000000200004800010000240000800012000048000100002400008000120000400C1FA38
:4D625B00040000000000000000000000000000000000000000000000000000000000000000000000000000000000000000000000000000000000000000000000000000000000000000000000000000EBF80F
:4D62A80020000480001000024000080001200004800010000240000800012000040000000000000000000000000000000020000480001000024000080001200004800010000240000800012000040098FFCE
:4D62F5000C0000000000000000000000000000000000000000000000000000000000000000000000000000000000000000000000000000000000000000000000000000000000000000000000000000F2F965
:4D63420020000480001000024000080001200004800010000240000800012000040000000000000000000000000000000020000480001000024000080001200004800010000240000800012000040098FF33
:4D638F0000000000000000000000000000000000000000000000000000000000000000000000000000000000000000000000000000000000000000000000000000000000000000000000000000000098FF2A
:4D63DC0000000000000000000000000000000000000000000000000000000000000000000000000000000000000000000000000000000000000000000000000000000000000000000000000000000098FFDD
:4D64290000000000000000000000000000000000000000000000000000000000000000000000000000000000000000000000000000000000000000000000000000000000000000000000000000000098FF8F
:4D64760000000000000000000000000000000000000000000000000000000000000000000000000000000000000000000000000000000000000000000000000000000000000000000000000000000098FF42
:4D64C30000000000000000000000000000000000000000000000000000000000000000000000000000000000000000000000000000000000000000000000000000000000000000000000000000000098FFF5
:4D65100000000000000000000000000000000000000000000000000000000000000000000000000000000000000000000000000000000000000000000000000000000000000000000000000000000098FFA7
:4D655D00040000000000000000000000000000000000000000000100000000000000000000000000000000000000000000000000000000000000000000000000000000000000000000000000000000D8FA1A
:4D65AA0000000000000000000000000000000000000000000000000000000000000000000000000000000000000000000000000000000000000000000000000000000000000000000000000000000098FF0D
:4D65F70008000000000000000000000000000000000000000080000000000000000000000000000000000000000000000000000000000000000000000000000000000000000000000000000000000010FFC0
:4D66440000000000000000000000000000002000080000000800A80000000000000000000000000000000000000000000000000000000000000000000000000000000000000000000000000000000030FF02
:4D669100000000000000000000000000000000002000000010008000000000000000000000000000000000000000000000000000000000000000000000000000000000000000000000000000000000B0FC60
:4D66DE00040000000000000000000000000000010000000000000000000000000000000000000000000000000000000000000000000000000000000000000000000000000000000000000000000000C8FAA8
:4D672B0000000000000000000000000000000000000000000000000000000000000000000000000000000000000000000000000000000000000000000000000000000000000000000000000000000098FF8A
:4D67780000000000000000000000000000000000000000000000000000000000000000000000000000000000000000000000000000000000000000000000000000000000000000000000000000000098FF3D
:4D67C50000000000000000000000000000000000000000000800000000000000000000000000000000000000000000000000000000000000000000000000000000000000000000000000000000000018FF68
:4D68120000000000000000000000000000000000000000000000000000000000000000000000000000000000000000000000000000000000000000000000000000000000000000000000000000000098FFA2
:4D685F0000000000000000000000000000000000000000000000000000000000000000000000000000000000000000000000000000000000000000000000000000000000000000000000000000000098FF55
:4D68AC0000000000000000000000000000000000000000000000000000000000000000000000000000000000000000000000000000000000000000000000000000000000000000000000000000000098FF08
:4D68F90000000000000000000000000000000000000000000000000000000000000000000000000000000000000000000000000000000000000000000000000000000000000000000000000000000098FFBB
:4D69460000000000000000000000000000000000000000000000000000000000000000000000000000000000000000000000000000000000000000000000000000000000000000000000000000000098FF6D
:4D69930000000000000000000000000000000000000000000000000000000000000000000000000000000000000000000000000000000000000000000000000000000000000000000000000000000098FF20
:4D69E00000000000000000000000000000000000000000000800000000000000000000000000000000000000000000000000000000000000000000000000000000000000000000000000000000000018FF4B
:4D6A2D0000000000000000000000000000000000000000000000000000000000000000000000000000000000000000000000000000000000000000000000000000000000000000000000000000000098FF85
:4D6A7A0000000000000000000000000000000000000000001000000000000000000000000000000000000000000000000000000000000000000000000000000000000000000000000000000000000098FE29
:4D6AC700000000000000000000000000000000000000000020020000000000000000000000000000000000000000000000000000000000000000000000000000000000000000000000000000000000B8FFA9
:4D6B140000000000000000000000000000000000000000000000000000000000000000000000000000000000000000000000000000000000000000000000000000000000000000000000000000000098FF9D
:4D6B610000000000000000000000000000000000000000000000000000000000000000000000000000000000000000000000000000000000000000000000000000000000000000000000000000000098FF50
:4D6BAE0000000000000000000000000000000000000000000000000000000000000000000000000000000000000000000000000000000000000000000000000000000000000000000000000000000098FF03
:4D6BFB00000000000000000000000000000000000000000010040000000000000000000000000000000000000000000000000000000000000000000000000000000000000000000000000000000000D8FA67
:4D6C480000000000000000000000000000000000000000000220000000000000000000000000000000000000000000000000000000000000000000000000000000000000000000000000000000000098FF46
:4D6C950000000000000000000000000000000000000000004008000000000000000000000000000000000000000000000000000000000000000000000000000000000000000000000000000000000090FBDF
:4D6CE20000000000000000000000000000000000000000000404000000000000000000000000000000000000000000000000000000000000000000000000000000000000000000000000000000000098FBCA
:4D6D2F0000000000000000000000000000000000000000000000000000000000000000000000000000000000000000000000000000000000000000000000000000000000000000000000000000000098FF80
:4D6D7C0000000000000000000000000000000000000000000000000000000000000000000000000000000000000000000000000000000000000000000000000000000000000000000000000000000098FF33
:4D6DC90000000000000000000000000000000000000000000000000000000000000000000000000000000000000000000000000000000000000000000000000000000000000000000000000000000098FFE6
:4D6E160008000000000000000000000000000000000000000000000000000000000000000000000000000000000000000000000000000000000000000000000000000000000000000000000000000090FF98
:4D6E630002000000000000000000000000000000000000000000000000000000000000000000000000000000000000000000000000000000000000000000000000000000000000000000000000008074F9F3
:4D6EB00008000000000000000000000000000000000000000000000000000000000000000000000000000000000000000000000000000000000000000000000000000000000000000000000000000090FFFE
:4D6EFD0000000000000000000000000000000000000000000000000000000000000000000000000000000000000000000000000000000000000000000000000000000000000000000000000000000098FFB1
:4D6F4A0000000000000000000000000008000000000000000800A000000080000000000000000000000000000000000000000000000000000000000000000000000000000000000000000000000000B0FD1D
:4D6F970000000000000000000000000000000000000000000800800000004000000000000000000000000000000000000000000000000000000000000000000000000000000000000000000000000010FBDA
:4D6FE400000000000000000000000000020000000000000000000000000000000000000000000000000000000000000000000000000000000000000000000000000000000000000000000000000000B8FDA9
:4D70310000000000000000000000000000000000000000000000000000000000000000000000000000000000000000000000000000000000000000000000000000000000000000000000000000000098FF7B
:4D707E0000000000000000000000000000000000000000000000000000000000000000000000000000000000000000000000000000000000000000000000000000000000000000000000000000000098FF2E
:4D70CB00000000000000000000000000000000000000000004000000000000000000000000000000000000000000000000000000000000000000000000000000000000000000000000000000000000D8FF9D
:4D71180000000000000000000000000000000000000000000000000000000000000000000000000000000000000000000000000000000000000000000000000000000000000000000000000000000098FF93
:4D71650014000000000000000000000000000000000000000000000000000000000000000000000000000000000000000000000000000000000000000000000000000000000000000000000000008062F9EE
:4D71B20000000000000000000000000000000000000000000000000000000000000000000000000000000000000000000000000000000000000000000000000000000000000000000000000000000098FFF9
:4D71FF0000000000000000000000000000000000000000000000000000000000000000000000000000000000000000000000000000000000000000000000000000000000000000000000000000000098FFAC
:4D724C0000000000000000000000000000000000000000000000000000000000000000000000000000000000000000000000000000000000000000000000000000000000000000000000000000000098FF5E
:4D72990000000000000000000000000000000000000000000000000000000000000000000000000000000000000000000000000000000000000000000000000000000000000000000000000000000098FF11
:4D72E600020000000000000000000000000000000000000000000000000000000000000000000000000000000000000000000000000000000000000000000000000000000000000000000000000000B8FDA4
:4D73330000000000000000000000000000000000000000000000000000000000000000000000000000000000000000000000000000000000000000000000000000000000000000000000000000000098FF76
:4D73800000000000000000000000000000000000000000000000000000000000000000000000000000000000000000000000000000000000000000000000000000000000000000000000000000000098FF29
